:100000000C94B4010C94D1010C94D1010C94D10145
:100010000C94D1010C94D1010C94D1010C94D10118
:100020000C94D1010C94D1010C94D1010C94D10108
:100030000C94D1010C94F6030C94D1010C94D101D1
:100040000C94D1010C94D1010C94D1010C94FE01BB
:100050000C94D1010C94D1010C94D1010C94D101D8
:100060000C94D1010C94D1010C94D1010C94D101C8
:10007000000000000000000000005F000000000021
:100080000007000700000000147F147F1400000028
:10009000242A7F2A12000000231308646200000053
:1000A00036495620500000000008070300000000F9
:1000B000001C2241000000000041221C0000000042
:1000C00014083E081400000008083E08080000005C
:1000D0000050300000000000080808080800000078
:1000E0000060600000000000201008040200000012
:1000F0003E5149453E00000000427F4000000000A4
:1001000042615149460000002141454B3100000049
:100110001814127F100000002745454539000000E3
:100120003C4A494930000000017109050300000004
:100130003649494936000000064949291E00000099
:1001400000363600000000000056360000000000B7
:1001500008142241000000001414141414140000A8
:1001600041221408000000000201510906000000AD
:100170003E415D5D1E0000007E1111117E000000F9
:100180007F494949360000003E41414122000000BC
:100190007F4141221C0000007F4949494100000085
:1001A0007F090909010000003E4149497A00000029
:1001B0007F0808087F00000000417F410000000028
:1001C0002040413F010000007F0814224100000050
:1001D0007F404040400000007F0204027F0000009A
:1001E0007F0204087F0000003E4141413E000000C4
:1001F0007F090909060000003E4151215E00000010
:100200007F0919294600000046494949310000008C
:1002100001017F01010000003F4040403F0000001D
:100220001F2040201F0000007F2018207F000000BA
:100230006314081463000000030478040300000042
:100240006151494543000000003E4141000000006B
:1002500002040810200000000041413E00000000A0
:100260000402010204000000404040404040000001
:1002700000000307000000002054545478000000E0
:100280007F484444380000003844444420000000C3
:10029000384444487F00000038545454180000008B
:1002A000087E090102000000081454543C000000BC
:1002B0007F0804047800000000447D400000000036
:1002C0002040443D00000000007F10284400000052
:1002D00000417F40000000007C041804780000000A
:1002E0007C080404780000003844444438000000CE
:1002F0007C14141408000000081414187C0000007A
:100300007C080404080000004854545420000000F5
:10031000043F4440200000003C4040207C0000009E
:100320001C2040201C0000003C4030403C000000ED
:1003300044281028440000000C5050503C0000009D
:100340004464544C440000000008364100000000A2
:1003500000007F000000000000413608000000009F
:10036000080408100800000011241FBECFEFD4E0DD
:10037000DEBFCDBF11E0A0E0B1E0ECE1FFE002C0E4
:1003800005900D92A43AB107D9F721E0A4EAB1E0B3
:1003900001C01D92AE3AB207E1F70E940B020C9425
:1003A0008C070C94000090BD89B9549A539A8EE83A
:1003B00080BD08955D9BFECF8CB908950E94DA013F
:1003C00080E090E008955F9BFECF8CB10895CF93BD
:1003D0000E94E301C82F0E94DA018C2F90E0CF9198
:1003E0000895E8EAF1E08EE091E09383828380E073
:1003F00091E0918380830895579A08951F920F92F8
:100400000FB60F9211248F938CB18F910F900FBE66
:100410000F901F901895CF93DF93CDB7DEB7CF58CD
:10042000D1090FB6F894DEBF0FBECDBF8FE190E0CB
:100430000E94D3010E94F1010E94FC010E94240449
:1004400078940E943004CE0101960E946F020E94AF
:10045000D7020E94D00280E8ECE1F1E0DE01509684
:1004600001900D928A95E1F7CE0140960E946C03AF
:100470000E941A0301E010E0412C512C32010F2E92
:10048000FCE32F2E312CF02D0F2EFDE9EF2EF1E0A5
:10049000FF2EF02D0E941B044B015C01DC01CB01FF
:1004A00084199509A609B709883E9340A105B105AD
:1004B00088F368018FEFC81AD80AC801B1010E94F9
:1004C0007F049F938F93FF92EF920E94A7040F9057
:1004D0000F900F900F90860124013501DBCFCF9351
:1004E000DF93EC01BC98BB98BA98B998C29A60E8BF
:1004F00080E094E10E945F04B199FECF80E094E136
:100500000E946F04888780E094E10E946F048F83CB
:100510001A821B821C821D82198218821A861986F1
:100520001C861B861E861D861E82DF91CF91089534
:10053000682F80E090E00E945F040895EF92FF92A0
:100540000F931F93CF93DF936115710581F07C01A9
:100550008C01E60EF71EC0E0D2E0F80161918F0138
:10056000CE010E945F0421960E151F05B1F7DF91A1
:10057000CF911F910F91FF90EF9008958770806B3E
:100580000E9498020895CF93C82F82958F70806142
:100590000E9498028C2F8F700E949802CF9108952C
:1005A00080E00E94BE0280E00E94C30208958EEAAD
:1005B0000E94980281EA0E9498028AED0E949802A5
:1005C00082E10E94980288EC0E94980288EA0E94C8
:1005D00098028FE30E94980285ED0E94980280E8BD
:1005E0000E94980281E80E94980280E50E94980289
:1005F00089ED0E94980281E20E94980280E20E94A6
:10060000980282E00E9498028BED0E94980280E39B
:100610000E9498028DEA0E94980280E00E9498024F
:1006200084EA0E94980286EA0E9498028FEA0E9459
:10063000980208958F929F92BF92CF92DF92EF928D
:10064000FF920F931F93CF93DF93CDB7DEB7C058C0
:10065000D1090FB6F894DEBF0FBECDBFCE01019613
:100660004C01EE24FF24E81AF90AB12C6E0191E83E
:10067000C90ED11C8B2D0E94BE0280E00E94C302D5
:100680008401C8018E0D9F1D0E944F04F8018193C3
:100690008F01EC15FD05A9F760E870E0CE01019629
:1006A0000E949E02B394F0E8EF0EF11C88E0B812AD
:1006B000E1CFC058DF4F0FB6F894DEBF0FBECDBFFD
:1006C000DF91CF911F910F91FF90EF90DF90CF902E
:1006D000BF909F908F9008954F925F926F927F92FC
:1006E0008F929F92AF92BF92CF92DF92EF92FF9242
:1006F0000F931F93CF93DF935C0100E010E0C12CB8
:10070000D12C0F2EF1EA4F2EF1E05F2EF02D0F2E9F
:10071000F0E76F2EF0E07F2EF02D0F2EF8E7EF2E92
:10072000F0E0FF2EF02D4501D5018C9190E00E9464
:10073000BD04C6018F709927892B09F03BC05F92D9
:100740004F920E94A7040F900F9034C0C0E0D0E0F9
:10075000D401EC91F0E0B097EE0FFF1FEE0FFF1FFA
:10076000EE0FFF1FEC0FFD1FE059FF4F6491CE010C
:10077000800F911F0E943F042196C830D10541F798
:100780000BC0FE016491C4018C0F9D1F0E943F04A9
:100790002196CE15DF05A9F7FFEFCF1ADF0A8FEFFD
:1007A000A81AB80A085F1F4FA0E8CA16D10409F0BA
:1007B000BACF0BC0F40180818052803638F2C0E796
:1007C000D0E0480186189708DCCFDF91CF911F91C8
:1007D0000F91FF90EF90DF90CF90BF90AF909F90E0
:1007E0008F907F906F905F904F9008951F920F921F
:1007F0000FB60F9211248F939F93AF93BF93809165
:10080000A4019091A501A091A601B091A701019624
:10081000A11DB11D8093A4019093A501A093A601F1
:10082000B093A701BF91AF919F918F910F900FBE91
:100830000F901F9018956091A4017091A50180916F
:10084000A6019091A70108958EB58B608EBD85E5B8
:1008500090E09BBD8ABD89B7806489BF7894089574
:100860008FEF8ABB8FE084BB8E9A8F9A319A85B7BF
:10087000806885BF10BE80B7806280BF0895CF9327
:10088000DF9300D0CDB7DEB79A838983E981FA81FF
:10089000F85E60830F900F90DF91CF910895CF9312
:1008A000DF9300D0CDB7DEB79A838983E981FA81DF
:1008B000F85E80810F900F90DF91CF910895CF93D4
:1008C000DF9300D0CDB7DEB79A838983E981FA81BF
:1008D000F05F60830F900F90DF91CF910895CF93D9
:1008E000DF9300D0CDB7DEB79A838983E981FA819F
:1008F000F05F80810F900F90DF91CF91089597FB6B
:10090000072E16F4009407D077FD09D00E949304B7
:1009100007FC05D03EF4909581959F4F0895709502
:1009200061957F4F0895AA1BBB1B51E107C0AA1F09
:10093000BB1FA617B70710F0A61BB70B881F991F80
:100940005A95A9F780959095BC01CD010895A0E036
:10095000B0E0EDEAF4E00C946507AE014B5F5F4F49
:10096000FA0161917191AF018091AA019091AB015F
:100970000E94C404E2E00C9481076091AA01709186
:10098000AB010E94BB060895ABE0B0E0EAECF4E0F6
:100990000C9455076C017B018A01FC0117821682B9
:1009A000838181FFCCC1CE0101963C01F601938188
:1009B000F70193FD859193FF81917F01882309F4CD
:1009C000BAC1853239F493FD859193FF81917F01FE
:1009D000853229F4B60190E00E94BB06E7CF912C46
:1009E000212C312CFFE1F315D8F08B3279F038F45B
:1009F000803279F08332A1F4232D20611DC08D3225
:100A000061F0803369F4232D216016C0832D82604C
:100A1000382EE32DE4603E2E2AC0F32DF8601DC071
:100A200037FC2DC020ED280F2A3040F08E32B9F46B
:100A300036FC81C1232D2064322E19C036FE06C03B
:100A40008AE0989E200D1124922E11C0EAE02E9E7D
:100A5000200D1124222EF32DF0623F2E08C08C367B
:100A600021F4832D8068382E02C0883641F4F701C6
:100A700093FD859193FF81917F018111B3CF982FD1
:100A80009F7D9554933028F40C5F1F4F9FE399830B
:100A90000DC0833631F0833771F0833509F059C0CA
:100AA00021C0F801808189830E5F1F4F88248394C1
:100AB000912C530113C02801F2E04F0E511CF80194
:100AC000A080B18036FE03C0692D70E002C06FEFD8
:100AD0007FEFC5010E94B0064C018201F32DFF7724
:100AE0003F2E16C0280122E0420E511CF801A080C2
:100AF000B18036FE03C0692D70E002C06FEF7FEF5A
:100B0000C5010E94A5064C01F32DF0683F2E82011D
:100B100033FC1BC0822D90E088169906B0F4B60114
:100B200080E290E00E94BB062A94F4CFF50137FCE6
:100B3000859137FE81915F01B60190E00E94BB066E
:100B400021102A9421E0821A91088114910471F7EE
:100B5000E8C0843611F0893641F5F80137FE07C048
:100B600060817181828193810C5F1F4F08C0608119
:100B70007181072E000C880B990B0E5F1F4FF32D10
:100B8000FF763F2E97FF09C09095809570956195EF
:100B90007F4F8F4F9F4FF0683F2E2AE030E0A30138
:100BA0000E94F706882E861845C0853731F4232D1C
:100BB0002F7EB22E2AE030E025C0932D997FB92EEA
:100BC0008F36C1F018F4883579F0B5C0803719F048
:100BD000883721F0B0C0E92FE061BE2EB4FE0DC011
:100BE000FB2DF460BF2E09C034FE0AC0292F2660F9
:100BF000B22E06C028E030E005C020E130E002C09F
:100C000020E132E0F801B7FE07C060817181828186
:100C100093810C5F1F4F06C06081718180E090E07E
:100C20000E5F1F4FA3010E94F706882E8618FB2D2A
:100C3000FF773F2E36FE0DC0232D2E7FA22E891466
:100C400058F434FE0BC032FC09C0832D8E7EA82ED2
:100C500005C0B82CA32C03C0B82C01C0B92CA4FE2D
:100C60000FC0FE01E80DF11D8081803321F49A2D23
:100C7000997EA92E09C0A2FE06C0B394B39404C005
:100C80008A2D867809F0B394A3FC11C0A0FE06C09B
:100C9000B21488F4280C922C9B180EC0B21460F485
:100CA000B60180E290E00E94BB06B394F7CFB21485
:100CB00018F42B1802C0982C212CA4FE10C0B601E9
:100CC00080E390E00E94BB06A2FE17C0A1FC03C017
:100CD00088E790E002C088E590E0B6010CC08A2D5C
:100CE000867859F0A1FE02C08BE201C080E2A7FC29
:100CF0008DE2B60190E00E94BB06891438F4B6017B
:100D000080E390E00E94BB069A94F7CF8A94F301A7
:100D1000E80DF11D8081B60190E00E94BB068110B4
:100D2000F5CF222009F442CEB60180E290E00E9485
:100D3000BB062A94F6CFF6018681978102C08FEF19
:100D40009FEF2B96E2E10C947107FC010590615036
:100D500070400110D8F7809590958E0F9F1F0895D1
:100D6000FC016150704001900110D8F7809590957A
:100D70008E0F9F1F08950F931F93CF93DF93FB0157
:100D8000238121FD03C08FEF9FEF2CC022FF16C0EF
:100D900046815781248135814217530744F4A0814D
:100DA000B1819D012F5F3F4F318320838C9326813A
:100DB00037812F5F3F4F3783268314C08B01EC01AF
:100DC000FB010084F185E02D0995892BE1F6D8011E
:100DD00016968D919C911797019617969C938E93DA
:100DE0001697CE01DF91CF911F910F910895FA01CF
:100DF000AA27283051F1203181F1E8946F936E7F5A
:100E00006E5F7F4F8F4F9F4FAF4FB1E03ED0B4E04A
:100E10003CD0670F781F891F9A1FA11D680F791F8B
:100E20008A1F911DA11D6A0F711D811D911DA11D9C
:100E300020D009F468943F912AE0269F11243019AC
:100E4000305D3193DEF6CF010895462F4770405D47
:100E50004193B3E00FD0C9F7F6CF462F4F70405DF6
:100E60004A3318F0495D31FD4052419302D0A9F751
:100E7000EACFB4E0A6959795879577956795BA954B
:100E8000C9F700976105710508959B01AC010A2E11
:100E900006945795479537952795BA95C9F7620FE8
:100EA000731F841F951FA01D08952F923F924F928C
:100EB0005F926F927F928F929F92AF92BF92CF92EA
:100EC000DF92EF92FF920F931F93CF93DF93CDB7F3
:100ED000DEB7CA1BDB0B0FB6F894DEBF0FBECDBF6B
:100EE00009942A88398848885F846E847D848C843C
:100EF0009B84AA84B984C884DF80EE80FD800C8145
:100F00001B81AA81B981CE0FD11D0FB6F894DEBF27
:0C0F10000FBECDBFED010895F894FFCF97
:100F1C0000000001000000000000E70100000000DC
:100F2C00000200000000DE010000000020202079FB
:100F3C0061704040402A20202020202020202023A7
:100F4C00404040232020202A232020202020234002
:100F5C0040402A20202A4040404023202A20202B99
:100F6C002340404040404020204040404040202012
:100F7C00202B404040402A2020204040404040252B
:100F8C0025404040404040202B20202A2023404038
:100F9C0040402A20202A404040232020202020238B
:100FAC002320202023404040232020200025640AB9
:040FBC00000A0D001A
:00000001FF
