S011000041546D6567613136322E737265634B
S11300000C94F4020C9411030C9411030C9411033A
S11300100C9411030C9411030C9411030C9411030C
S11300200C9411030C94000C0C9411030C94110304
S11300300C9411030C9411030C9411030C94DB0B1A
S11300400C9411030C9411030C9411030C944204AA
S11300500C9411030C9411030C9411030C941103CC
S11300600C9411030C9411030C9411030C941103BC
S113007020536F756E642020202020202020202013
S1130080204272696768746E657373202020202093
S113009020436F6E74726F6C732020202020202008
S11300A0204261636B20202020202020202020205B
S11300B0204974656D203120204241434B2020208B
S11300C0204974656D20322020202020202020200B
S11300D0204974656D2033202020202020202020FA
S11300E0204974656D2034202020202020202020E9
S11300F0204974656D2035202020202020202020D8
S1130100204974656D2036202020202020202020C6
S1130110204974656D2037202020202020202020B5
S1130120204974656D2038202020202020202020A4
S1130130204974656D203920202020202020202093
S1130140204974656D20313020202020202020207B
S1130150204974656D20313120202020202020206A
S1130160204974656D203132202020202020202059
S1130170204974656D203133202020202020202048
S1130180204974656D203134202020202020202037
S1130190204974656D203135202020202020202026
S11301A0204974656D203136202020202020202015
S11301B0204974656D203137202020202020202004
S11301C0204974656D2031382020202020202020F3
S11301D0204974656D2031392020202020202020E2
S11301E0204974656D2032302020202020202020DA
S11301F02053746172742047616D65202020202093
S11302002053657474696E67732020202020202099
S113021020486967682053636F726573202020202B
S113022020437265646974732020202020202020DC
S113023020457869742020202020202020202020A0
S113024000000000000000000000000000000000AA
S1130250000000000000000000000000000000009A
S1130260000000000000000000000000000000008A
S11302702020207961704040402A20202020202026
S113028020202023404040232020202A23202020F7
S11302902020234040402A20202A40404040232060
S11302A02A20202B23404040404040202040404012
S11302B040402020202B404040402A202020404025
S11302C04040402525404040404040202B20202AEB
S11302D02023404040402A20202A40404023202020
S11302E0202020232320202023404040232020209E
S11302F0000000000000000000005F00000000009B
S11303000007000700000000147F147F14000000A1
S1130310242A7F2A120000002313086462000000CC
S11303203649562050000000000807030000000072
S1130330001C2241000000000041221C00000000BB
S113034014083E081400000008083E0808000000D5
S113035000503000000000000808080808000000F1
S1130360006060000000000020100804020000008B
S11303703E5149453E00000000427F40000000001D
S113038042615149460000002141454B31000000C3
S11303901814127F1000000027454545390000005D
S11303A03C4A49493000000001710905030000007E
S11303B03649494936000000064949291E00000013
S11303C00036360000000000005636000000000031
S11303D00814224100000000141414141414000022
S11303E04122140800000000020151090600000027
S11303F03E415D5D1E0000007E1111117E00000073
S11304007F494949360000003E4141412200000035
S11304107F4141221C0000007F49494941000000FE
S11304207F090909010000003E4149497A000000A2
S11304307F0808087F00000000417F4100000000A1
S11304402040413F010000007F08142241000000C9
S11304507F404040400000007F0204027F00000013
S11304607F0204087F0000003E4141413E0000003D
S11304707F090909060000003E4151215E00000089
S11304807F09192946000000464949493100000006
S113049001017F01010000003F4040403F00000097
S11304A01F2040201F0000007F2018207F00000034
S11304B063140814630000000304780403000000BC
S11304C06151494543000000003E414100000000E5
S11304D002040810200000000041413E000000001A
S11304E0040201020400000040404040404000007B
S11304F0000003070000000020545454780000005A
S11305007F4844443800000038444444200000003C
S1130510384444487F000000385454541800000004
S1130520087E090102000000081454543C00000035
S11305307F0804047800000000447D4000000000AF
S11305402040443D00000000007F102844000000CB
S113055000417F40000000007C0418047800000083
S11305607C08040478000000384444443800000047
S11305707C14141408000000081414187C000000F3
S11305807C0804040800000048545454200000006F
S1130590043F4440200000003C4040207C00000018
S11305A01C2040201C0000003C4030403C00000067
S11305B044281028440000000C5050503C00000017
S11305C04464544C4400000000083641000000001C
S11305D000007F0000000000004136080000000019
S11305E0080408100800000011241FBECFEFD4E057
S11305F0DEBFCDBF13E0A0E0B1E0E6EBF0E202C065
S113060005900D92A435B107D9F723E0A4E5B3E032
S113061001C01D92A737B207E1F70E944F040C9462
S113062059100C9400000E94E80308950F931F933F
S1130630CF938C010E94D50382FDFCCFF801608129
S1130640718176956795769567957695679581E33B
S11306500E94BD03F80160816295660F607E82E3AB
S11306600E94BD03F801628185E30E94BD03F80185
S11306708281882371F0C0E0F801EC0FF11D6381E1
S113068086E38C0F0E94BD03CF5FF8018281C817F7
S113069098F381E00E94CF03CF911F910F910895A9
S11306A09F92AF92BF92CF92DF92EF92FF920F93FD
S11306B01F93CF93DF93CDB7DEB72B970FB6F89484
S11306C0DEBF0FBECDBF5C010E94D50380FFFCCF0F
S11306D081E60E94AF03C82E82E60E94AF03D12CAC
S11306E0CC0CDD1CCC0CDD1CCC0CDD1C8295869561
S11306F08770C80ED11C85E60E94AF03982E88230C
S113070081F07E0184E0E80EF11C06E6090D16E690
S1130710812F0E94AF03F70181937F011F5F1013A4
S1130720F7CFDA82C9829B828BE0FE013196D50134
S113073001900D928A95E1F7C5012B960FB6F894B6
S1130740DEBF0FBECDBFDF91CF911F910F91FF9000
S1130750EF90DF90CF90BF90AF909F900895CF938C
S1130760C82FC49883E00E940E048C2F0E940E04AC
S11307700E941204C49ACF910895CF93DF93D82F87
S1130780C62FC49882E00E940E048D2F0E940E048E
S11307908C2F0E940E04C49ADF91CF910895C498BF
S11307A081680E940E04C49A0895C49880EA0E9445
S11307B00E040E941204C49A0895C4980E940E0460
S11307C0C49A0895C49880EC0E94DD03C49A0895E5
S11307D00E9406040E94E2038CEC94E00197F1F776
S11307E000C0000080EE0E94AF03982F907E9038E6
S11307F061F01F928F938CE191E09F938F930E94FD
S11308004B0D0F900F900F900F900895BD9ABF9AC3
S1130810BE98BC9A81E58DB9C49808958FB9779B29
S1130820FECF089580E00E940E048FB1089590BD1C
S113083089B9549A539A8EE880BD08955D9BFECF82
S11308408CB908950E941E0480E090E008955F9B97
S1130850FECF8CB10895CF930E942704C82F0E9425
S11308601E048C2F90E0CF910895E1E7F3E08EE031
S113087091E09383828380E091E091838083089563
S1130880579A08951F920F920FB60F9211248F93C7
S11308908CB18F910F900FBE0F901F901895CF932E
S11308A0DF93CDB7DEB7A8970FB6F894DEBF0FBEBF
S11308B0CDBF8FE190E00E9417040E9435040E948E
S11308C040040E94250C78940E94980C0E94F6071C
S11308D0CE0101960E9418080E9427090E94130362
S11308E08FE00E94AF03182F1F928F938FE591E042
S11308F09F938F930E944B0D107E0F900F900F903B
S11309000F90103449F48EE691E09F938F930E94E8
S11309104B0D0F900F9008C08DE891E09F938F933B
S11309200E944B0D0F900F9083E291E09C8B8B8B78
S113093083E08D8B81E18E8B82E28F8B83E3888FC2
S1130940CE0143960E94160387EB91E00E94610D4D
S1130950CE014E960E9450030E8D1F8DF8A08AEC96
S113096091E00E94610D8B899C8908171907E9F4AD
S11309708D898F111AC0882309F473C029A19E8917
S1130980291386C0FE01B296DE0157968150AE014E
S1130990480F511DCA01829604C041913D914313F1
S11309A077C0E817F907C9F75CC08BA11F928F9332
S11309B08AA11F928F9389A11F928F931F930F93E4
S11309C080EE91E09F938F930E944B0D0FB6F894A5
S11309D0DEBF0FBECDBF0E94D30A22E344E66AE025
S11309E08AE00E94E30A44E150E060E270E080E4BF
S11309F090E00E94460B2EE148E264E184E10E940B
S1130A00B60B0E946A099FEF2FE747E09150204000
S1130A104040E1F700C0000085E693E09093550361
S1130A20809354030E94C40560915403709155034C
S1130A30CE0101960E94CE070E944E0C60317105D2
S1130A408105910520F00E94590C0E946A090E94B8
S1130A507A0C613071058140910530F30E948B0C52
S1130A60E3CF8BA11F928F938AA11F928F9389A1A9
S1130A701F928F931F930F9380E392E09F938F9322
S1130A800E944B0D0FB6F894DEBF0FBECDBFA3CFAF
S1130A908BA11F928F938AA11F928F931F922F93E2
S1130AA01F930F938EE692E09F938F930E944B0DBA
S1130AB00FB6F894DEBF0FBECDBF8DCFAF92BF92FD
S1130AC0CF92DF92EF92FF920F931F93CF93DF9316
S1130AD0EC018B01AC84BD840E947A0C288939898D
S1130AE06B017C01C21AD30AE108F1081AF40E94CE
S1130AF07A0C9B01398B288B85E6C816D104E10456
S1130B00F104BCF1E3E3AE16B1048CF0F801828188
S1130B10882379F18383815082839481891710F427
S1130B20915094830E947A0C798B688B22C0FEECDE
S1130B30AF16FFEFBF06ECF4F8018281482F50E0B6
S1130B40258130E0215031094217530794F48383FF
S1130B508F5F8283448190E0242F30E0285F3F4FF1
S1130B608217930714F04F5F44830E947A0C798BA9
S1130B70688BDF91CF911F910F91FF90EF90DF90E1
S1130B80CF90BF90AF9008952F923F924F925F9273
S1130B906F927F928F929F92AF92BF92CF92DF9289
S1130BA0EF92FF920F931F93CF93DF93CDB7DEB7EE
S1130BB02A970FB6F894DEBF0FBECDBF7C01DC01CF
S1130BC015968C91893008F0BBC0E82FF0E0F887C7
S1130BD0EF83E295F295F07FFE27E07FFE27FC830A
S1130BE0EB83FE83ED83EF2B09F46DC01A82198227
S1130BF0412C512C0F2EF8EE8F2EF3E09F2EF02D6A
S1130C0033243394212CD701ED91FC91E40DF51D8F
S1130C108491320176946794769467947694679479
S1130C2076946794C82ED12CC601880F991F880F1B
S1130C30991F880F991FE0EEF3E0FA87E98709818D
S1130C401A815201FFE0AF22BB249C01205F314096
S1130C506901832DA114B10409F0822D882391F038
S1130C60D70112968C9190E0232D8615970509F0F3
S1130C70222D222339F0E985FA856491C8010E9466
S1130C80A70C08C0E985FA85EC0DFD1D6491C80127
S1130C900E94A70C29853A852F5F3F4F3A87298701
S1130CA00F5F1F4F82169306A1F63FEF431A530AB4
S1130CB089819A8108969A838983AD81BE814A1677
S1130CC05B0609F0A0CF08E010E0EF81F8850E1B69
S1130CD01F0B02951295107F1027007F1027101606
S1130CE01106C4F0A7C060E089819A810E94A70C14
S1130CF029813A812F5F3F4F3A8329832E153F057F
S1130D0091F7D3948D2D90E09A838983801791076E
S1130D1024F090C01A821982D12CA981BA81EB8166
S1130D20FC81AE0FBF1FAA0FBB1FAA0FBB1FAA0FC8
S1130D30BB1FBA83A9837D01F8E0EF0EF11CD3CF6A
S1130D401A821982412C512C0F2EF8EE8F2EF3E0CB
S1130D509F2EF02D33243394212CD70114968C919B
S1130D601497F20120E1829FE00DF11D1124CF01BF
S1130D70ED91FC91E80FF91FC4905201B694A79429
S1130D80B694A794B694A794B694A794D12CC6010C
S1130D90880F991F880F991F880F991FA0EEB3E041
S1130DA0BC83AB8309811A81FC01E05FF1406F01D0
S1130DB03201FFE06F227724D70112968C911297AB
S1130DC090E014962C91821B9109232D8A159B0582
S1130DD009F0222D222371F0832D6114710409F08E
S1130DE0822D882339F0EB81FC816491C8010E9433
S1130DF0A70C08C0EB81FC81EC0DFD1D6491C801BA
S1130E000E94A70C2B813C812F5F3F4F3C832B8397
S1130E100F5F1F4F2815390579F63FEF431A530A20
S1130E2089819A8108969A83898390E849165104A6
S1130E3009F093CF2A960FB6F894DEBF0FBECDBF4C
S1130E40DF91CF911F910F91FF90EF90DF90CF90A2
S1130E50BF90AF909F908F907F906F905F904F90D6
S1130E603F902F900895CF93DF93EB010E94D30A14
S1130E7080915603813009F46FC020F0823009F468
S1130E8041C089C08A818230E9F028F4882341F086
S1130E90813071F031C08330F9F0843039F12CC0E5
S1130EA066EB72E080E00E94270A0E946A0973C020
S1130EB082E0809356038FE593E0909355038093EB
S1130EC0540369C081E0809356038BE693E09093CA
S1130ED05503809354035FC068EC72E080E00E9485
S1130EE0270A80E792E00E94BC0955C06BED72E0CE
S1130EF080E00E94270A4FC068EE72E080E00E9402
S1130F00270A49C08A81813061F028F0823079F063
S1130F10833099F01BC065EF72E080E00E94270ADD
S1130F203AC060E173E080E00E94270A34C064E2C2
S1130F3073E080E00E94270A2EC01092560385E6D3
S1130F4093E0909355038093540325C068EE72E0B8
S1130F5080E00E94270A1FC08A81882319F081300B
S1130F6079F014C069E373E080E00E94270A1092CC
S1130F70560385E693E090935503809354030BC086
S1130F8066E473E080E00E94270A05C068EE72E020
S1130F9080E00E94270ADF91CF9108950F931F9359
S1130FA0CF93DF93EC018B010E94B108B801CE010D
S1130FB00E945E0521E030E08F81882311F020E05B
S1130FC030E09E81892F90E082239323892B21F0A6
S1130FD0B801CE010E943307C8010E94C4058E8166
S1130FE08F83DF91CF911F910F910895E5E6F3E090
S1130FF080EF91E09183808385E085831282138260
S11310001482EBE6F3E080EB90E09183808384E14B
S11310108583128213821482EFE5F3E080E790E087
S11310209183808384E085831282138214820895DD
S1131030CF93DF93EC018C98BB98BA98B998C29A75
S113104060E880E094E10E94C70CB199FECF80E093
S113105094E10E94D70C898780E094E10E94D70C28
S113106088871A821B821C821D82198218821B8621
S11310701A861D861C861F861E861E821F82198A5A
S1131080188ADF91CF910895FC01628573854485A8
S11310905585CB0105960B9738F4CA0105960B9735
S11310A018F4178616860895872F8095881F882739
S11310B0881F90E0880F991F252F2095221F222733
S11310C0221F822B81309105B9F01CF4892B29F160
S11310D045C08230910599F1039709F03FC02AE594
S11310E0249FC001259F900D1124640F751F0E9439
S11310F0E70C77876687089526EA2603C001279FB1
S1131100900D11249A01261B370BB9010E94E70C9C
S1131110665A7F4F77876687089526EA2403C001BD
S1131120259F900D1124719561957109641B750BB0
S11311300E94E70C6C547F4F7787668708952AE5F1
S1131140269FC001279F900D1124641B750B0E94DC
S1131150E70C625F7E4F7787668708951786168649
S11311600895CF93DF93EC0160E080E094E10E9466
S1131170C70CB199FECF80E094E10E94D70C88831C
S113118080E094E10E94D70C898380E094E10E947E
S1131190D70C8B8380E094E10E94D70C8A8381E092
S11311A0849B80E08C8381E0B39B80E08D8381E02D
S11311B0B29980E08E83888190E02985821B910911
S11311C09D878C87898190E02885821B91099B8764
S11311D08A87CE010E944408DF91CF910895682F39
S11311E080E090E00E94C70C0895EF92FF920F9365
S11311F01F93CF93DF936115710581F07C018C01FE
S1131200E60EF71EC0E0D2E0F80161918F01CE0135
S11312100E94C70C21960E151F05B1F7DF91CF91DF
S11312201F910F91FF90EF9008958770806B0E943B
S1131230EF080895CF93C82F82958F7080610E9424
S1131240EF088C2F8F700E94EF08CF9108958EEADB
S11312500E94EF0881EA0E94EF088AED0E94EF08DD
S113126082E10E94EF0888EC0E94EF0888EA0E945D
S1131270EF088FE30E94EF0885ED0E94EF0880E8F5
S11312800E94EF0881E80E94EF0880E50E94EF08C1
S113129089ED0E94EF0881E20E94EF0880E20E943B
S11312A0EF0882E00E94EF088BED0E94EF0880E3D4
S11312B00E94EF088DEA0E94EF0880E00E94EF0888
S11312C084EA0E94EF0886EA0E94EF088FEA0E94EF
S11312D0EF0808958F929F92BF92CF92DF92EF9280
S11312E0FF920F931F93CF93DF93CDB7DEB7C05810
S11312F0D1090FB6F894DEBF0FBECDBFCE01019663
S11313004C01EE24FF24E81AF90AB12C6E0191E88D
S1131310C90ED11C8B2D0E94150980E00E941A0968
S11313208401C8018E0D9F1D0E94B70CF8018193A2
S11313308F01EC15FD05A9F760E870E0CE01019678
S11313400E94F508B394F0E8EF0EF11C88E0B8129F
S1131350E1CFC058DF4F0FB6F894DEBF0FBECDBF4C
S1131360DF91CF911F910F91FF90EF90DF90CF907D
S1131370BF909F908F9008956F927F928F929F92CB
S1131380AF92BF92CF92DF92EF92FF920F931F938F
S1131390CF93DF934C01E12CF12C0F2EF0EF6F2E45
S11313A0F2E07F2EF02D0F2EF8EFAF2EF2E0BF2EDD
S11313B0F02DF401049180EE800F8036F0F410E0FB
S11313C000521109000F111F000F111F000F111FF0
S11313D06701F8E0CF0ED11CE7010E191F09F801CF
S11313E0EC0FFD1FE051FD4F6491CE010E94A70C4C
S11313F02196CC16DD0699F710C0C0EFD2E0870124
S113140006191709FE016491C8018C0F9D1F0E94E3
S1131410A70C2196CA15DB05A9F7FFEF8F1A9F0ABF
S113142088E0E80EF11CE114E4E0FE0609F0C1CF07
S1131430DF91CF911F910F91FF90EF90DF90CF90AC
S1131440BF90AF909F908F907F906F9008958F92F0
S11314509F92BF92CF92DF92EF92FF920F931F93CE
S1131460CF93DF93883008F05EC0FB0190E8899F3A
S1131470600111248081882309F447C076018B011F
S1131480B12C0AC00F5F1F4FA8E0EA0EF11CF8014F
S11314908081882309F43AC0C0E0D0E0D801EC91FF
S11314A0F0E0B097EE0FFF1FEE0FFF1FEE0FFF1FD0
S11314B0EC0FFD1FE051FD4F6491C7018C0F9D1F80
S11314C00E94A70C2196C830D10541F7B394B0E12E
S11314D0BB12D8CF28C0FE016491C8018C0F9D1F98
S11314E00E94A70C2196CE15DF05A9F7B394FFE05F
S11314F0FB15C8F0C0EFD2E0860188E0B89E000D6D
S1131500111D112408191909E6CFB12C0F2EF0EF83
S11315108F2EF2E09F2EF02D0F2EF8EFEF2EF2E03B
S1131520FF2EF02DE7CFDF91CF911F910F91FF9008
S1131530EF90DF90CF90BF909F908F9008950F937E
S11315401F93CF93DF93803448F566233CF1042F37
S1131550182F869586958695C62FD0E090E8899FAA
S1131560C00DD11D1124CE010E94B70C17700023A9
S113157049F061E070E002C0660F771F1A95E2F748
S1131580682B09C061E070E002C0660F771F1A95EE
S1131590E2F760956823CE010E94A70CDF91CF91FA
S11315A01F910F910895CF93DF93C0E0D0E060E0E6
S11315B0CE010E94A70C2196C11584E0D807B9F783
S11315C0DF91CF9108956F927F928F929F92AF9205
S11315D0BF92CF92DF92EF92FF920F931F93CF931C
S11315E0DF93C82FD62F942E622E842F90E08C1B6D
S11315F091097C0122F4EE24FF24E81AF90A862DCD
S113160090E08D1B91095C0122F4AA24BB24A81A42
S1131610B90AC91518F088248A9402C088248394CE
S1131620D61518F077247A9402C07724739487012E
S11316300A191B09CC24DD24CA18DB0841E06C2FED
S11316408D2F0E949F0AC91102C0D61581F0C801CE
S1131650880F991FC816D9061CF40A191B09C80D4E
S11316608E159F055CF70E0D1F1DD70DE7CFDF917B
S1131670CF911F910F91FF90EF90DF90CF90BF908B
S1131680AF909F908F907F906F9008959F92AF92AC
S1131690BF92CF92DF92EF92FF920F931F93CF935B
S11316A0DF93982EC62EC42FD0E0A12CB12C00E0DD
S11316B010E041E0FC2EF90C6F2DDC2CD00E8D2DAA
S11316C00E949F0A41E0E92CEC1A6E2D8D2D0E9498
S11316D09F0A41E06F2DFC2CF01A8F2D0E949F0A67
S11316E041E06E2D8F2D0E949F0A41E0F92CF00EEF
S11316F06F2DDC2EDC0C8D2D0E949F0A41E0E92C1D
S1131700E01A6E2D8D2D0E949F0A41E06F2DFC2C56
S1131710FC1A8F2D0E949F0A41E06E2D8F2D0E948E
S11317209F0A1A141B045CF00F5F1F4FC801880F37
S1131730991F0196A80EB91E1A141B043CF4219794
S1131740CE01880F991F0196A81AB90AC017D107AC
S11317500CF0AFCFDF91CF911F910F91FF90EF90DD
S1131760DF90CF90BF90AF909F9008950F931F93F9
S1131770CF93DF93082F162FD22FC82FC40F262FF5
S11317804C2F0E94E30AD10F2D2F4C2F6D2F802F49
S11317900E94E30A2D2F402F612F802F0E94E30A1D
S11317A02D2F4C2F612F8C2F0E94E30ADF91CF91B4
S11317B01F910F9108951F920F920FB60F9211244B
S11317C08F939F93AF93BF9380915B0390915C033E
S11317D0A0915D03B0915E030196A11DB11D80939C
S11317E05B0390935C03A0935D03B0935E03BF918E
S11317F0AF919F918F910F900FBE0F901F901895EE
S11318001F920F920FB60F9211248F939F93AF9351
S1131810BF938091570390915803A0915903B091BD
S11318205A030196A11DB11D809357039093580349
S1131830A0935903B0935A03BF91AF919F918F9195
S11318400F900FBE0F901F9018951FBC81E08EBDA6
S113185089B7806889BF1DBC1CBC10928B0085E0D1
S113186080938A0089B7846089BF1092890010929E
S11318708800089580915B0390915C03A0915D03BF
S1131880B0915E032CB53DB5DC0199278827BC01D6
S1131890CD01620F731F811D911D08950E943A0CA2
S11318A023E333E140E050E00E94FB0CCA01B9019C
S11318B008951DBC1CBC10925B0310925C03109233
S11318C05D0310925E03089580915703909158032D
S11318D0A0915903B0915A03209188003091890056
S11318E0DC0199278827BC01CD01620F731F811D7C
S11318F0911D08950E94640C9B01AC01A8EEB3E015
S11319000E941D0D20EC32E140E050E00E94FB0CEF
S1131910CA01B901089510928900109288001092AA
S11319205703109258031092590310925A030895C2
S11319308FEF8ABB8FE084BB8E9A8F9A319A85B7DA
S1131940806885BF10BE80B7806280BF0895CF9342
S1131950DF9300D0CDB7DEB79A838983E981FA811A
S1131960F85E60830F900F90DF91CF910895CF932D
S1131970DF9300D0CDB7DEB79A838983E981FA81FA
S1131980F85E80810F900F90DF91CF910895CF93EF
S1131990DF9300D0CDB7DEB79A838983E981FA81DA
S11319A0F05F60830F900F90DF91CF910895CF93F4
S11319B0DF9300D0CDB7DEB79A838983E981FA81BA
S11319C0F05F80810F900F90DF91CF91089597FB86
S11319D0072E16F4009407D077FD09D00E94280D35
S11319E007FC05D03EF4909581959F4F089570951E
S11319F061957F4F0895A1E21A2EAA1BBB1BFD011E
S1131A000DC0AA1FBB1FEE1FFF1FA217B307E407D9
S1131A10F50720F0A21BB30BE40BF50B661F771F31
S1131A20881F991F1A9469F7609570958095909511
S1131A309B01AC01BD01CF0108950E943C0DA59FFF
S1131A40900DB49F900DA49F800D911D11240895B5
S1131A50AA1BBB1B51E107C0AA1FBB1FA617B707D0
S1131A6010F0A61BB70B881F991F5A95A9F78095EC
S1131A709095BC01CD010895A29FB001B39FC00110
S1131A80A39F700D811D1124911DB29F700D811DA6
S1131A901124911D0895A0E0B0E0E1E5FDE00C946F
S1131AA03210AE014B5F5F4FFA0161917191AF014A
S1131AB080917303909174030E94910DE2E00C9461
S1131AC04E100F931F93CF93DF93E0917303F09124
S1131AD07403238121FF1BC08C01D0E0C0E0F80116
S1131AE081918F016091730370917403DB011896E7
S1131AF0ED91FC911997882331F00995892B79F39D
S1131B00DFEFCFEFECCF8AE00995892B19F08FEF47
S1131B109FEF02C08D2F9C2FDF91CF911F910F91CA
S1131B200895ABE0B0E0E7E9FDE00C9422106C010D
S1131B307B018A01FC0117821682838181FFCCC15B
S1131B40CE0101963C01F6019381F70193FD859145
S1131B5093FF81917F01882309F4BAC1853239F456
S1131B6093FD859193FF81917F01853229F4B6011C
S1131B7090E00E94880FE7CF912C212C312CFFE1BB
S1131B80F315D8F08B3279F038F4803279F083325F
S1131B90A1F4232D20611DC08D3261F0803369F4DE
S1131BA0232D216016C0832D8260382EE32DE4603E
S1131BB03E2E2AC0F32DF8601DC037FC2DC020ED49
S1131BC0280F2A3040F08E32B9F436FC81C1232D1F
S1131BD02064322E19C036FE06C08AE0989E200D7D
S1131BE01124922E11C0EAE02E9E200D1124222EE3
S1131BF0F32DF0623F2E08C08C3621F4832D8068CB
S1131C00382E02C0883641F4F70193FD859193FF85
S1131C1081917F018111B3CF982F9F7D955493308B
S1131C2028F40C5F1F4F9FE399830DC0833631F076
S1131C30833771F0833509F059C021C0F8018081E0
S1131C4089830E5F1F4F88248394912C530113C002
S1131C502801F2E04F0E511CF801A080B18036FE3D
S1131C6003C0692D70E002C06FEF7FEFC5010E94D1
S1131C707D0F4C018201F32DFF773F2E16C0280102
S1131C8022E0420E511CF801A080B18036FE03C050
S1131C90692D70E002C06FEF7FEFC5010E94720FE3
S1131CA04C01F32DF0683F2E820133FC1BC0822DC2
S1131CB090E088169906B0F4B60180E290E00E94A4
S1131CC0880F2A94F4CFF50137FC859137FE819172
S1131CD05F01B60190E00E94880F21102A9421E050
S1131CE0821A91088114910471F7E8C0843611F0C6
S1131CF0893641F5F80137FE07C060817181828120
S1131D0093810C5F1F4F08C060817181072E000C06
S1131D10880B990B0E5F1F4FF32DFF763F2E97FF15
S1131D2009C090958095709561957F4F8F4F9F4F17
S1131D30F0683F2E2AE030E0A3010E94C40F882EF1
S1131D40861845C0853731F4232D2F7EB22E2AE024
S1131D5030E025C0932D997FB92E8F36C1F018F449
S1131D60883579F0B5C0803719F0883721F0B0C0D4
S1131D70E92FE061BE2EB4FE0DC0FB2DF460BF2E32
S1131D8009C034FE0AC0292F2660B22E06C028E0FE
S1131D9030E005C020E130E002C020E132E0F8018B
S1131DA0B7FE07C060817181828193810C5F1F4FF0
S1131DB006C06081718180E090E00E5F1F4FA30137
S1131DC00E94C40F882E8618FB2DFF773F2E36FE07
S1131DD00DC0232D2E7FA22E891458F434FE0BC07F
S1131DE032FC09C0832D8E7EA82E05C0B82CA32CEE
S1131DF003C0B82C01C0B92CA4FE0FC0FE01E80D2D
S1131E00F11D8081803321F49A2D997EA92E09C079
S1131E10A2FE06C0B394B39404C08A2D867809F058
S1131E20B394A3FC11C0A0FE06C0B21488F4280C1D
S1131E30922C9B180EC0B21460F4B60180E290E0BC
S1131E400E94880FB394F7CFB21418F42B1802C071
S1131E50982C212CA4FE10C0B60180E390E00E94CF
S1131E60880FA2FE17C0A1FC03C088E790E002C05F
S1131E7088E590E0B6010CC08A2D867859F0A1FE61
S1131E8002C08BE201C080E2A7FC8DE2B60190E0C3
S1131E900E94880F891438F4B60180E390E00E9410
S1131EA0880F9A94F7CF8A94F301E80DF11D80818D
S1131EB0B60190E00E94880F8110F5CF222009F42A
S1131EC042CEB60180E290E00E94880F2A94F6CFB9
S1131ED0F6018681978102C08FEF9FEF2B96E2E196
S1131EE00C943E10FC010590615070400110D8F72D
S1131EF0809590958E0F9F1F0895FC01615070404E
S1131F0001900110D8F7809590958E0F9F1F08952A
S1131F100F931F93CF93DF93FB01238121FD03C014
S1131F208FEF9FEF2CC022FF16C04681578124817A
S1131F3035814217530744F4A081B1819D012F5F7D
S1131F403F4F318320838C93268137812F5F3F4F0E
S1131F503783268314C08B01EC01FB010084F185D7
S1131F60E02D0995892BE1F6D80116968D919C9167
S1131F701797019617969C938E931697CE01DF912F
S1131F80CF911F910F910895FA01AA27283051F19A
S1131F90203181F1E8946F936E7F6E5F7F4F8F4F96
S1131FA09F4FAF4FB1E03ED0B4E03CD0670F781FF5
S1131FB0891F9A1FA11D680F791F8A1F911DA11DDA
S1131FC06A0F711D811D911DA11D20D009F4689413
S1131FD03F912AE0269F11243019305D3193DEF6BB
S1131FE0CF010895462F4770405D4193B3E00FD071
S1131FF0C9F7F6CF462F4F70405D4A3318F0495D5C
S113200031FD4052419302D0A9F7EACFB4E0A6953E
S11320109795879577956795BA95C9F70097610560
S1132020710508959B01AC010A2E069457954795B6
S113203037952795BA95C9F7620F731F841F951FAB
S1132040A01D08952F923F924F925F926F927F92BC
S11320508F929F92AF92BF92CF92DF92EF92FF92B4
S11320600F931F93CF93DF93CDB7DEB7CA1BDB0B60
S11320700FB6F894DEBF0FBECDBF09942A88398805
S113208048885F846E847D848C849B84AA84B9840C
S1132090C884DF80EE80FD800C811B81AA81B98118
S11320A0CE0FD11D0FB6F894DEBF0FBECDBFED012C
S10920B00895F894FFCF2F
S11320B6000000010000000000002B0400000000E6
S11320C60002000000002204000000004D435032CC
S11320D635313520657220696B6B6A652069206B22
S11320E66F6E666967757261736A6F6E736D6F641E
S11320F675732065747465722072657365742E2019
S113210643414E535441543A202578200D0A004346
S1132116414E535441543A20307825580A004D43D1
S113212650323531352065722069206C6F6F7062CC
S113213661636B2D6D6F6475732E0A0D00466569B8
S11321466C3A204D43503235313520657220696B27
S11321566B652069206C6F6F706261636B2D6D6FA8
S11321666475732E0A0D0043616E206D6573736189
S113217667652073656E745C720043616E206D65DD
S113218673736167652072656369657665640D00BE
S11321964C6F6F706261636B207465737420666143
S11321A6696C656421204944206F72206C656E67F2
S11321B67468206D69736D617463682E5265636516
S11321C6697665642049443A20307825582C2044A1
S11321D66174613A2025582025582025580A0D0097
S11321E64C6F6F706261636B2074657374207375D2
S11321F6636365737366756C2120526563656976DE
S113220665642049443A20307825582C204461746A
S1132216613A2025582025582025580A0D004C6F70
S11322266F706261636B2074657374206661696C98
S11322366564212044617461206D69736D61746302
S1132246682E52656365697665642049443A203090
S11322567825582C20446174613A20255820255845
S11322662025580A0D0053746172746172207370CC
S1132276656C65742E2E2E005669736572206B721A
S1132286656469747461722E2E2E004176736C75C2
S1132296747461722E2E2E005567796C64696720FA
S11322A676616C6700456E64726572206C79646948
S11322B66E6E7374696C6C696E6761722E2E2E0075
S11322C6456E64726572206C7973737479726B658A
S11322D62E2E2E00456E64726572206B6F6E7472BC
S11322E66F6C6C61722E2E2E004974656D20312040
S11322F676616C6774004974656D20322076616C72
S107230667740000F4
S9030000FC
