:100000000C941C050C9439050C9439050C94390595
:100010000C9439050C9439050C9439050C94390568
:100020000C9439050C9439050C9439050C94390558
:100030000C9439050C9439050C9439050C942E0C4C
:100040000C9439050C9439050C9439050C9466050B
:100050000C9439050C9439050C9439050C94390528
:100060000C9439050C9439050C9439050C94390518
:1000700000001E1E00001E1E001E1E0000001E1E90
:10008000001E1E0000001E1E0000000000001E1EBC
:100090003F3F3F3F3F3FFFFF3F3F3F3F3F3FFFFF70
:1000A0001F1F1F1F1F1FFFFF1F1F1F1F1F1FFFFFE0
:1000B000001E1E0000001E1E001E1E0000001E1E50
:1000C0000000000000001E1E001E1E0000001E1E7C
:1000D0000000000000000000000000000000000020
:1000E0000000000000000000000000000000000010
:1000F0000000000000000000000000000000000000
:1001000000000000000000000000000000000000EF
:1004700020205F5F5F5F5F252020255F5F5F5F5FFC
:1004800020202A2A2A2A2A2020202A2A2A2A2A2008
:10049000202A20202020202A202A20202020202A34
:1004A000202A20202A2A20202A20202A2A20202A06
:1004B000202A2020202020202A2020202020202A1E
:1004C00020202A202020202A202A202020202A2004
:1004D0002020202A2A2A2A2020202A2A2A2A2020CC
:1004E000205C5F5F5F5F5F5F5F5F5F5F5F5F5F2F8E
:1004F0002020207961704040402A202020202020A8
:1005000020202023404040232020202A2320202078
:100510002020234040402A20202A404040402320E1
:100520002A20202B23404040404040202040404093
:1005300040402020202B404040402A2020204040A6
:100540004040402525404040404040202B20202A6C
:100550002023404040402A20202A404040232020A1
:10056000202020232320202023404040232020201F
:10057000000000000000000000005F00000000001C
:100580000007000700000000147F147F1400000023
:10059000242A7F2A1200000023130864620000004E
:1005A00036495620500000000008070300000000F4
:1005B000001C2241000000000041221C000000003D
:1005C00014083E081400000008083E080800000057
:1005D0000050300000000000080808080800000073
:1005E000006060000000000020100804020000000D
:1005F0003E5149453E00000000427F40000000009F
:1006000042615149460000002141454B3100000044
:100610001814127F100000002745454539000000DE
:100620003C4A4949300000000171090503000000FF
:100630003649494936000000064949291E00000094
:1006400000363600000000000056360000000000B2
:1006500008142241000000001414141414140000A3
:1006600041221408000000000201510906000000A8
:100670003E415D5D1E0000007E1111117E000000F4
:100680007F494949360000003E41414122000000B7
:100690007F4141221C0000007F4949494100000080
:1006A0007F090909010000003E4149497A00000024
:1006B0007F0808087F00000000417F410000000023
:1006C0002040413F010000007F081422410000004B
:1006D0007F404040400000007F0204027F00000095
:1006E0007F0204087F0000003E4141413E000000BF
:1006F0007F090909060000003E4151215E0000000B
:100700007F09192946000000464949493100000087
:1007100001017F01010000003F4040403F00000018
:100720001F2040201F0000007F2018207F000000B5
:10073000631408146300000003047804030000003D
:100740006151494543000000003E41410000000066
:1007500002040810200000000041413E000000009B
:1007600004020102040000004040404040400000FC
:1007700000000307000000002054545478000000DB
:100780007F484444380000003844444420000000BE
:10079000384444487F000000385454541800000086
:1007A000087E090102000000081454543C000000B7
:1007B0007F0804047800000000447D400000000031
:1007C0002040443D00000000007F1028440000004D
:1007D00000417F40000000007C0418047800000005
:1007E0007C080404780000003844444438000000C9
:1007F0007C14141408000000081414187C00000075
:100800007C080404080000004854545420000000F0
:10081000043F4440200000003C4040207C00000099
:100820001C2040201C0000003C4030403C000000E8
:1008300044281028440000000C5050503C00000098
:100840004464544C4400000000083641000000009D
:1008500000007F000000000000413608000000009A
:10086000080408100800000020536F756E642020F3
:100870002020202020200000204272696768746ECA
:10088000657373202020000020436F6E74726F6CBC
:100890007320202020200000204261636B20202054
:1008A0002020202020200000204974656D20312068
:1008B000204241434B200000204974656D203220C6
:1008C0002020202020200000204974656D20332046
:1008D0002020202020200000204974656D20342035
:1008E0002020202020200000204974656D20352024
:1008F0002020202020200000204974656D20362013
:100900002020202020200000204974656D20372001
:100910002020202020200000204974656D203820F0
:100920002020202020200000204974656D203920DF
:100930002020202020200000204974656D203130C7
:100940002020202020200000204974656D203131B6
:100950002020202020200000204974656D203132A5
:100960002020202020200000204974656D20313394
:100970002020202020200000204974656D20313483
:100980002020202020200000204974656D20313572
:100990002020202020200000204974656D20313661
:1009A0002020202020200000204974656D20313750
:1009B0002020202020200000204974656D2031383F
:1009C0002020202020200000204974656D2031392E
:1009D0002020202020200000204974656D20323026
:1009E00020202020202000002053746172742047B2
:1009F000616D6520202000002053657474696E6766
:100A0000732020202020000020486967682053635D
:100A10006F726573202000002043726564697473EF
:100A200020202020202000002045786974202020EC
:100A3000202020202020000011241FBECFEFD4E072
:100A4000DEBFCDBF11E0A0E0B1E0ECE7FAE102C00B
:100A500005900D92A63FB107D9F722E0A6EFB1E0CD
:100A600001C01D92A531B207E1F70E9473050C94F5
:100A70003C0D0C94000090BD89B9549A539A8EE8AD
:100A800080BD08955D9BFECF8CB908950E944205FC
:100A900080E090E008955F9BFECF8CB10895CF93E6
:100AA0000E944B05C82F0E9442058C2F90E0CF91E9
:100AB0000895EFE0F2E08EE091E09383828380E09E
:100AC00091E0918380830895579A08951F920F9221
:100AD0000FB60F9211248F938CB18F910F900FBE90
:100AE0000F901F901895CF93DF93CDB7DEB72F9758
:100AF0000FB6F894DEBF0FBECDBF8FE190E00E942D
:100B00003B050E9459050E9464050E94720C78946E
:100B10000E94850C0E94F606CE0101960E941208E2
:100B20000E9425090E941E0980E794E00E94BA09EC
:100B30000E9468092FEF8FEF9EE021508040904087
:100B4000E1F700C000000E94260B22E344E66AE0C1
:100B50008AE00E94360B44E150E060E270E080E4FD
:100B600090E00E94990B2EE148E264E184E10E944A
:100B7000090C0E9468092FEF8FEF9EE02150804002
:100B80009040E1F700C0000080E790E00E94250A55
:100B90000E9468092FEF8FEF9EE021508040904027
:100BA000E1F700C0000083E092E00E94250A0E9465
:100BB00068092FEF8FEF9EE0215080409040E1F7D1
:100BC00000C0000066EF71E0CE0101960E94AF0602
:100BD0000E94670C603171058105910598F30E94B0
:100BE0007A0C0E946809EECFCF92DF92EF92FF92CB
:100BF0001F93CF93DF93CDB7DEB7C059D1090FB69E
:100C0000F894DEBF0FBECDBF6C01FE01719680E887
:100C1000DF011D928A95E9F77F0110E0F6018481DA
:100C2000810F95818917B0F460817181F0E18F9F08
:100C3000600D711D11244FE050E0CE0101960E941D
:100C40001E0D188A40E150E0BE016F5F7F4FC70163
:100C50000E942D0D1F5F80E1E80EF11C1830F1F6A7
:100C6000CE0141960E94BA09D60112968C91129734
:100C700014969C914EE360E0891B0E94B50AC05710
:100C8000DF4F0FB6F894DEBF0FBECDBFDF91CF911F
:100C90001F91FF90EF90DF90CF900895CF93C82FD2
:100CA000862F40E260E00E94B50A4EE360E08C2FA0
:100CB0000E94B50ACF910895FB01DC011B968D912E
:100CC0009C911C9783339105FCF06281662309F4A3
:100CD00045C063838FEF860F82839481891730F438
:100CE00091509483CF010E94F40504C0691B891BB5
:100CF0000E944E06BFEF2FEF82E0B15020408040AF
:100D0000E1F700C000C008958E3C9F4F3CF5628122
:100D1000262F30E0858190E0019728173907F4F4F9
:100D2000638381E0860F82839481482F50E0292FCE
:100D300030E0285F3F4F421753071CF09F5F9483BA
:100D400004C0691B891B0E944E06BFEF2FEF82E093
:100D5000B15020408040E1F700C000C008950F93DB
:100D60001F93CF93DF93EC018B010E94A808F80139
:100D700060817181CE010E945C068E81882331F1F1
:100D800080E794E00E94BA090E946809FFEF2FEF04
:100D90008EE0F15020408040E1F700C000000E944A
:100DA000260B0E9468099FEFEFEFFEE09150E040B4
:100DB000F040E1F700C00000F80160817181CE01D0
:100DC0000E942C0781E080931C0104C080911C01CB
:100DD000813039F4F801808191810E94F4051092EC
:100DE0001C01DF91CF911F910F910895E3E0F2E094
:100DF00088EE99E09183808385E085831282138257
:100E00001482A9E0B2E088EA98E011969C938E9350
:100E100084E115968C93159712961C92129713964F
:100E20001C92139714961C92ADEFB1E088E698E0FF
:100E300011969C938E9384E015968C931597129639
:100E40001C92129713961C92139714961C92F0936F
:100E5000F701E093F60108958091F801813009F4DB
:100E6000C0C020F0823009F491C00895FB01828156
:100E70008230A1F128F4882351F08130B9F072C09A
:100E8000833009F443C0843009F458C06BC06DE16D
:100E900071E081E00E943D0AFFEF2FEF8EE0F150FC
:100EA00020408040E1F700C00000089569E271E051
:100EB00081E00E943D0A9FEFEFEFFEE09150E0409D
:100EC000F040E1F700C0000082E08093F8018DEF70
:100ED00091E09093F7018093F601089565E371E046
:100EE00081E00E943D0A2FEF8FEF9EE0215080406D
:100EF0009040E1F700C0000081E08093F80189E0B4
:100F000092E09093F7018093F601089561E471E017
:100F100080E00E943D0AEFEFFFEF2EE0E150F0404D
:100F20002040E1F700C000006DE471E080E00E9425
:100F30003D0A80EF94E00E94BA09089560E671E0EE
:100F400080E00E943D0A8FEF9FEFEEE081509040DD
:100F5000E040E1F700C000006CE671E080E00E9434
:100F60003D0A089569E771E080E00E943D0AFFEFC5
:100F70002FEF8EE0F15020408040E1F700C00000EC
:100F80006BE871E080E00E943D0A0895FB018281D8
:100F9000813061F028F0823079F0833099F01BC005
:100FA00068E971E080E00E943D0A089563EB71E01A
:100FB00080E00E943D0A089567EC71E080E00E94A5
:100FC0003D0A08951092F80183E092E09093F701B2
:100FD0008093F60108956BE871E080E00E943D0A7D
:100FE0000895FB018281882319F0813079F014C0C3
:100FF0006CED71E080E00E943D0A1092F80183E000
:1010000092E09093F7018093F601089569EE71E004
:1010100080E00E943D0A08956BE871E080E00E9444
:101020003D0A0895CF93DF93EC01BC98BB98BA9822
:10103000B998C29A60E880E094E10E94B40CB1993A
:10104000FECF80E094E10E94C40C888780E094E1A8
:101050000E94C40C8F831A821B821C821D821982FB
:1010600018821A8619861C861B861E861D861E827D
:10107000DF91CF910895FC01618572854385548588
:10108000CB0105960B9738F4CA0105960B9718F417
:10109000168615860895872F8095881F8827881FB4
:1010A00090E0880F991F252F2095221F2227221FAD
:1010B000822B81309105B9F01CF4892B29F145C0B0
:1010C0008230910599F1039709F03FC02AE5249FEA
:1010D000C001259F900D1124640F751F0E94D40C30
:1010E00076876587089526EA2603C001279F900D1D
:1010F00011249A01261B370BB9010E94D40C665AA1
:101100007F4F76876587089526EA2403C001259FCF
:10111000900D1124719561957109641B750B0E94E6
:10112000D40C6C547F4F7687658708952AE5269FF7
:10113000C001279F900D1124641B750B0E94D40CD5
:10114000625F7E4F768765870895168615860895B7
:10115000CF93DF93EC0160E080E094E10E94B40C57
:10116000B199FECF80E094E10E94C40C888380E0B6
:1011700094E10E94C40C898380E094E10E94C40C35
:101180008B8380E094E10E94C40C8A8381E0B49B4D
:1011900080E08C8381E0B39B80E08D8381E0B29915
:1011A00080E08E83888190E02885821B91099C874E
:1011B0008B87898190E02F81821B91099A8789878B
:1011C000CE010E943B08DF91CF910895682F80E007
:1011D00090E00E94B40C0895EF92FF920F931F933A
:1011E000CF93DF936115710581F07C018C01E60ED0
:1011F000F71EC0E0D2E0F80161918F01CE010E949C
:10120000B40C21960E151F05B1F7DF91CF911F91F8
:101210000F91FF90EF9008958770806B0E94E60811
:101220000895CF93C82F82958F7080610E94E60841
:101230008C2F8F700E94E608CF91089580E00E9465
:101240000C0980E00E94110908958EEA0E94E608C8
:1012500081EA0E94E6088AED0E94E60882E10E9487
:10126000E60888EC0E94E60888EA0E94E6088FE318
:101270000E94E60885ED0E94E60880E80E94E608E4
:1012800081E80E94E60880E50E94E60889ED0E9458
:10129000E60881E20E94E60880E20E94E60882E019
:1012A0000E94E6088BED0E94E60880E30E94E608B3
:1012B0008DEA0E94E60880E00E94E60884EA0E9427
:1012C000E60886EA0E94E6088FEA0E94E60808958A
:1012D0008F929F92BF92CF92DF92EF92FF920F93E5
:1012E0001F93CF93DF93CDB7DEB7C058D1090FB6A8
:1012F000F894DEBF0FBECDBFCE0101964C01EE24A7
:10130000FF24E81AF90AB12C6E0191E8C90ED11C2C
:101310008B2D0E940C0980E00E9411098401C801F4
:101320008E0D9F1D0E94A40CF80181938F01EC1576
:10133000FD05A9F760E870E0CE0101960E94EC0877
:10134000B394F0E8EF0EF11C88E0B812E1CFC0587A
:10135000DF4F0FB6F894DEBF0FBECDBFDF91CF9148
:101360001F910F91FF90EF90DF90CF90BF909F90D3
:101370008F9008956F927F928F929F92AF92BF92BB
:10138000CF92DF92EF92FF920F931F93CF93DF9351
:101390004C01E12CF12C0F2EF0E76F2EF5E07F2EA3
:1013A000F02D0F2EF8E7AF2EF5E0BF2EF02DF40153
:1013B000049180EE800F8036F0F410E000521109A5
:1013C000000F111F000F111F000F111F6701F8E020
:1013D000CF0ED11CE7010E191F09F801EC0FFD1FFC
:1013E000E059FA4F6491CE010E94940C2196CC16DC
:1013F000DD0699F710C0C0E7D5E087010619170987
:10140000FE016491C8018C0F9D1F0E94940C2196CF
:10141000CA15DB05A9F7FFEF8F1A9F0A88E0E80ECF
:10142000F11CE114E4E0FE0609F0C1CFDF91CF9199
:101430001F910F91FF90EF90DF90CF90BF90AF90F2
:101440009F908F907F906F9008950F931F93CF93ED
:10145000DF938C01C0E0D0E0F801EC0FFD1F649138
:10146000CE010E94940C2196C11584E0D807A1F703
:10147000DF91CF911F910F9108958F929F92BF920C
:10148000CF92DF92EF92FF920F931F93CF93DF9350
:10149000883008F05EC0FB0190E8899F600111244C
:1014A0008081882309F447C076018B01B12C0AC0E2
:1014B0000F5F1F4FA8E0EA0EF11CF801808188231E
:1014C00009F43AC0C0E0D0E0D801EC91F0E0B09768
:1014D000EE0FFF1FEE0FFF1FEE0FFF1FEC0FFD1FA4
:1014E000E059FA4F6491C7018C0F9D1F0E94940C24
:1014F0002196C830D10541F7B394B0E1BB12D8CFE3
:1015000028C0FE016491C8018C0F9D1F0E94940C9D
:101510002196CE15DF05A9F7B394FFE0FB15C8F0BF
:10152000C0E7D5E0860188E0B89E000D111D1124AA
:1015300008191909E6CFB12C0F2EF0E78F2EF5E030
:101540009F2EF02D0F2EF8E7EF2EF5E0FF2EF02D59
:10155000E7CFDF91CF911F910F91FF90EF90DF9038
:10156000CF90BF909F908F900895EF92FF920F932E
:101570001F93CF93DF93883070F5603160F5282F8B
:10158000862F90E030E1239F800D911D1124880F5C
:10159000991F880F991F880F991F042F10E0005280
:1015A0001109000F111F000F111F000F111F7C01E7
:1015B00028E0E20EF11CEC01081B190BF801EC0FFE
:1015C000FD1FE059FA4F6491CE010E94940C2196C0
:1015D000CE15DF0599F7DF91CF911F910F91FF9005
:1015E000EF9008950F931F93CF93DF93803448F5C6
:1015F00066233CF1042F182F869586958695C62F75
:10160000D0E090E8899FC00DD11D1124CE010E9429
:10161000A40C1770002349F061E070E002C0660F6F
:10162000771F1A95E2F7682B09C061E070E002C0ED
:10163000660F771F1A95E2F760956823CE010E9426
:10164000940CDF91CF911F910F910895CF93DF9369
:10165000C0E0D0E060E0CE010E94940C2196C1155C
:1016600084E0D807B9F7DF91CF9108956F927F9208
:101670008F929F92AF92BF92CF92DF92EF92FF92A2
:101680000F931F93CF93DF93C82FD62F942E622EE4
:10169000842F90E08C1B91097C0122F4EE24FF241E
:1016A000E81AF90A862D90E08D1B91095C0122F45D
:1016B000AA24BB24A81AB90AC91518F088248A9448
:1016C00002C088248394D61518F077247A9402C037
:1016D0007724739487010A191B09CC24DD24CA18C6
:1016E000DB0841E06C2F8D2F0E94F20AC91102C065
:1016F000D61581F0C801880F991FC816D9061CF4A9
:101700000A191B09C80D8E159F055CF70E0D1F1DCC
:10171000D70DE7CFDF91CF911F910F91FF90EF9001
:10172000DF90CF90BF90AF909F908F907F906F9001
:1017300008959F92AF92BF92CF92DF92EF92FF9265
:101740000F931F93CF93DF93982EC62EC42FD0E014
:10175000A12CB12C00E010E041E0FC2EF90C6F2D23
:10176000DC2CD00E8D2D0E94F20A41E0E92CEC1AFF
:101770006E2D8D2D0E94F20A41E06F2DFC2CF01A87
:101780008F2D0E94F20A41E06E2D8F2D0E94F20AE9
:1017900041E0F92CF00E6F2DDC2EDC0C8D2D0E941B
:1017A000F20A41E0E92CE01A6E2D8D2D0E94F20A1A
:1017B00041E06F2DFC2CFC1A8F2D0E94F20A41E0B3
:1017C0006E2D8F2D0E94F20A1A141B045CF00F5F1D
:1017D0001F4FC801880F991F0196A80EB91E1A1431
:1017E0001B043CF42197CE01880F991F0196A81A7B
:1017F000B90AC017D1070CF0AFCFDF91CF911F917D
:101800000F91FF90EF90DF90CF90BF90AF909F909F
:1018100008950F931F93CF93DF93082F162FD22F86
:10182000C82FC40F262F4C2F0E94360BD10F2D2FFF
:101830004C2F6D2F802F0E94360B2D2F402F612FA4
:10184000802F0E94360B2D2F4C2F612F8C2F0E9442
:10185000360BDF91CF911F910F9108951F920F9238
:101860000FB60F9211248F939F93AF93BF938091E4
:10187000F9019091FA01A091FB01B091FC01019650
:10188000A11DB11D8093F9019093FA01A093FB0172
:10189000B093FC01BF91AF919F918F910F900FBEBC
:1018A0000F901F9018958091F9019091FA01A091E5
:1018B000FB01B091FC012CB53DB5DC0199278827CF
:1018C000BC01CD01620F731F811D911D08950E94FF
:1018D000530C23E333E140E050E00E94E80CCA01DE
:1018E000B90108951FBC81E08EBD80E889BF1DBC91
:1018F0001CBC08951DBC1CBC1092F9011092FA0189
:101900001092FB011092FC0108958FEF8ABB8FE0CB
:1019100084BB8E9A8F9A319A85B7806885BF10BE36
:1019200080B7806280BF0895CF93DF9300D0CDB79A
:10193000DEB79A838983E981FA81F85E60830F902C
:101940000F90DF91CF910895CF93DF9300D0CDB763
:10195000DEB79A838983E981FA81F85E80810F90EE
:101960000F90DF91CF910895CF93DF9300D0CDB743
:10197000DEB79A838983E981FA81F05F60830F90F3
:101980000F90DF91CF910895CF93DF9300D0CDB723
:10199000DEB79A838983E981FA81F05F80810F90B5
:1019A0000F90DF91CF91089597FB072E16F40094C6
:1019B00007D077FD09D00E940A0D07FC05D03EF440
:1019C000909581959F4F0895709561957F4F0895EB
:1019D000A1E21A2EAA1BBB1BFD010DC0AA1FBB1F33
:1019E000EE1FFF1FA217B307E407F50720F0A21BA5
:1019F000B30BE40BF50B661F771F881F991F1A9412
:101A000069F760957095809590959B01AC01BD013B
:101A1000CF010895AA1BBB1B51E107C0AA1FBB1F22
:101A2000A617B70710F0A61BB70B881F991F5A956A
:101A3000A9F780959095BC01CD010895FB01DC01CB
:101A40004150504048F005900D920020C9F701C068
:101A50001D9241505040E0F70895FB01DC014150D8
:101A6000504048F001900D920020C9F701C01D922E
:0C1A700041505040E0F70895F894FFCF7B
:101A7C00000000010000000000004F050000000005
:101A8C0000020000000046050000000001436165F3
:101A9C00732030206D61696E0043616573203120C5
:101AAC006D61696E00436165732032206D61696EF2
:101ABC0000436165732033206D61696E0056697354
:101ACC006572206B72656469747461722E2E2E00BF
:101ADC00436165732034206D61696E004176736CCF
:101AEC0075747461722E2E2E0043616573207567B8
:101AFC00796C646967206D61696E005567796C64F7
:101B0C0069672076616C6700456E64726572206C43
:101B1C007964696E6E7374696C6C696E6761722E30
:101B2C002E2E00456E64726572206C797373747915
:101B3C00726B652E2E2E00456E64726572206B6F73
:101B4C006E74726F6C6C61722E2E2E004974656D02
:101B5C0020312076616C6774004974656D203220E9
:061B6C0076616C67740055
:00000001FF
