S011000041546D6567613136322E737265634B
S11300000C9434020C9451020C9451020C9451023D
S11300100C9451020C9451020C9451020C94510210
S11300200C9451020C9451020C9451020C94510200
S11300300C9451020C9451020C9451020C946D09CD
S11300400C9451020C9451020C9451020C947E02B3
S11300500C9451020C9451020C9451020C945102D0
S11300600C9451020C9451020C9451020C945102C0
S11300702053746172742047616D65202020202014
S11300802053657474696E6773202020202020201B
S113009020486967682053636F72657320202020AD
S11300A0204372656469747320202020202020205E
S11300B02045786974202020202020202020202022
S11300C0000000000000000000000000000000002C
S11300D0000000000000000000000000000000001C
S11300E0000000000000000000000000000000000C
S11300F02020207961704040402A202020202020A8
S113010020202023404040232020202A2320202078
S11301102020234040402A20202A404040402320E1
S11301202A20202B23404040404040202040404093
S113013040402020202B404040402A2020204040A6
S11301404040402525404040404040202B20202A6C
S11301502023404040402A20202A404040232020A1
S1130160202020232320202023404040232020201F
S1130170000000000000000000005F00000000001C
S11301800007000700000000147F147F1400000023
S1130190242A7F2A1200000023130864620000004E
S11301A036495620500000000008070300000000F4
S11301B0001C2241000000000041221C000000003D
S11301C014083E081400000008083E080800000057
S11301D00050300000000000080808080800000073
S11301E0006060000000000020100804020000000D
S11301F03E5149453E00000000427F40000000009F
S113020042615149460000002141454B3100000044
S11302101814127F100000002745454539000000DE
S11302203C4A4949300000000171090503000000FF
S11302303649494936000000064949291E00000094
S113024000363600000000000056360000000000B2
S113025008142241000000001414141414140000A3
S113026041221408000000000201510906000000A8
S11302703E415D5D1E0000007E1111117E000000F4
S11302807F494949360000003E41414122000000B7
S11302907F4141221C0000007F4949494100000080
S11302A07F090909010000003E4149497A00000024
S11302B07F0808087F00000000417F410000000023
S11302C02040413F010000007F081422410000004B
S11302D07F404040400000007F0204027F00000095
S11302E07F0204087F0000003E4141413E000000BF
S11302F07F090909060000003E4151215E0000000B
S11303007F09192946000000464949493100000087
S113031001017F01010000003F4040403F00000018
S11303201F2040201F0000007F2018207F000000B5
S1130330631408146300000003047804030000003D
S11303406151494543000000003E41410000000066
S113035002040810200000000041413E000000009B
S113036004020102040000004040404040400000FC
S113037000000307000000002054545478000000DB
S11303807F484444380000003844444420000000BE
S1130390384444487F000000385454541800000086
S11303A0087E090102000000081454543C000000B7
S11303B07F0804047800000000447D400000000031
S11303C02040443D00000000007F1028440000004D
S11303D000417F40000000007C0418047800000005
S11303E07C080404780000003844444438000000C9
S11303F07C14141408000000081414187C00000075
S11304007C080404080000004854545420000000F0
S1130410043F4440200000003C4040207C00000099
S11304201C2040201C0000003C4030403C000000E8
S113043044281028440000000C5050503C00000098
S11304404464544C4400000000083641000000009D
S113045000007F000000000000413608000000009A
S1130460080408100800000011241FBECFEFD4E0D8
S1130470DEBFCDBF11E0A0E0B1E0EEEBF4E102C0DD
S113048005900D92AA3BB107D9F721E0AAEBB1E0A0
S113049001C01D92A93DB207E1F70E948B020C94A2
S11304A05D0A0C94000090BD89B9549A539A8EE861
S11304B080BD08955D9BFECF8CB908950E945A02B9
S11304C080E090E008955F9BFECF8CB10895CF93B8
S11304D00E946302C82F0E945A028C2F90E0CF9191
S11304E00895E3EDF1E08EE091E09383828380E070
S11304F091E0918380830895579A08951F920F92F3
S11305000FB60F9211248F938CB18F910F900FBE61
S11305100F901F901895CF93DF93CDB7DEB72F9729
S11305200FB6F894DEBF0FBECDBF8FE190E00E94FE
S113053053020E9471020E947C020E94B1097894C5
S11305400E94C4090E94CF04CE0101960E94700546
S11305500E947C060E94650822E344E66AE08AE081
S11305600E94750844E150E060E270E080E490E0AD
S11305700E94D8082EE148E264E184E10E9448091F
S11305800E94BF062FEF8FE797E0215080409040F4
S1130590E1F700C0000087EC91E09093BB018093E9
S11305A0BA010E9438036091BA017091BB01CE0177
S11305B001960E94AB040E94A60960317105810571
S11305C0910588F30E94B9090E94BF06ECCFCF932E
S11305D0C82F862F40E260E00E94F4074EE360E0FB
S11305E08C2F0E94F407CF910895FB01DC011B9628
S11305F08D919C911C9783339105ACF08281882363
S1130600B1F18383815082839481891710F49150CE
S11306109483BFEF2FE781E0B15020408040E1F7A1
S113062000C000C008958E3C9F4F0CF58281482F76
S113063050E0258130E02150310942175307BCF4C2
S113064083838F5F8283448190E0242F30E0285F8E
S11306503F4F8217930714F04F5F4483BFEF2FE798
S113066081E0B15020408040E1F700C000C008950F
S11306702F923F924F925F926F927F928F929F92AE
S1130680AF92BF92CF92DF92EF92FF920F931F939C
S1130690CF93DF93CDB7DEB72A970FB6F894DEBFBA
S11306A00FBECDBF7C01DC0115968C91813850F0D2
S11306B020E1829FF0011124FC83EB83EF2B09F0EE
S11306C0BBC030C1A82FB0E0B887AF83A295B29564
S11306D0B07FBA27A07FBA27BC83AB83BE83AD8328
S11306E0AB2B09F46CC01A821982412C512C0F2EA9
S11306F0F8E68F2EF2E09F2EF02D33243394212C34
S1130700D701ED91FC91E40DF51DC490320176946E
S11307106794769467947694679476946794D12CCE
S1130720C601880F991F880F991F880F991FE0E64B
S1130730F2E0FA87E98709811A815201FFE0AF22CA
S1130740BB249C01205F31406901832DA114B104B5
S113075009F0822D882391F0D70112968C9190E0B4
S1130760232D8615970509F0222D222339F0E985DA
S1130770FA856491C8010E94D30908C0E985FA8505
S1130780EC0DFD1D6491C8010E94D30929853A85A9
S11307902F5F3F4F3A8729870F5F1F4F82169306BB
S11307A0A1F63FEF431A530A89819A8108969A83E6
S11307B08983AD81BE814A165B0609F0A1CF08E0AA
S11307C010E0EF81F8850E1B1F0B02951295107F28
S11307D01027007F102710161106C4F0A3C060E094
S11307E089819A810E94D30929813A812F5F3F4FE1
S11307F03A8329832E153F0591F7D3948D2D90E0EC
S11308009A8389838017910724F08CC01A821982F5
S1130810D12CA981BA81EB81FC81AE0FBF1FAA0F35
S1130820BB1FAA0FBB1FAA0FBB1FBA83A9837D01DD
S1130830F8E0EF0EF11CD3CF1A821982412C512C0F
S11308400F2EF8E68F2EF2E09F2EF02D33243394F2
S1130850212CD70114968C911497F20120E1829FE8
S1130860E00DF11D1124CF01ED91FC91E80FF91F6A
S1130870C4903201769467947694679476946794DE
S113088076946794D12CC601880F991F880F991FFD
S1130890880F991FA0E6B2E0BE83AD8309811A8157
S11308A05201BFE0AB22BB24FC01E05FF1406F01C9
S11308B0832DA114B10409F0822D882391F0D7016E
S11308C012968C9190E0232D8615970509F0222D20
S11308D0222339F0ED81FE816491C8010E94D3097D
S11308E008C0ED81FE81EC0DFD1D6491C8010E94DC
S11308F0D3092D813E812F5F3F4F3E832D830F5FB0
S11309001F4F82169306A1F63FEF431A530A8981BB
S11309109A8108969A838983AB81BC814A165B06C7
S113092009F097CF2A960FB6F894DEBF0FBECDBF5D
S1130930DF91CF911F910F91FF90EF90DF90CF90B7
S1130940BF90AF909F908F907F906F905F904F90EB
S11309503F902F9008950F931F93CF93DF938C01B3
S1130960EB010E940606BE01C8010E94F502F801CF
S11309708681882341F0BE01C8010E94DB04CE01B8
S11309800E94380307C09C816B81691B8A81891B83
S11309900E94E702DF91CF911F910F910895E7EC38
S11309A0F1E080E790E09183808385E08583128283
S11309B01382148208958091BC01813009F46FC0C0
S11309C020F0823009F440C00895FB018281823016
S11309D0D9F028F4882341F0813061F02FC08330AE
S11309E0E9F0843029F12AC06CE171E080E00E94D2
S11309F07C07089582E08093BC0181EC91E09093A0
S1130A00BB018093BA01089581E08093BC018DEC11
S1130A1091E09093BB018093BA0108956EE271E076
S1130A2080E00E947C0780EF90E00E941107089507
S1130A3061E471E080E00E947C0708956EE471E057
S1130A4080E00E947C070895FB018281813061F07F
S1130A5028F0823079F0833099F01BC06BE571E0A7
S1130A6080E00E947C07089566E771E080E00E94C0
S1130A707C0708956AE871E080E00E947C0708958D
S1130A801092BC0187EC91E09093BB018093BA0172
S1130A9008956EE471E080E00E947C070895FB01F4
S1130AA08281882319F0813079F014C06FE971E0F4
S1130AB080E00E947C071092BC0187EC91E0909347
S1130AC0BB018093BA0108956CEA71E080E00E9452
S1130AD07C0708956EE471E080E00E947C0708952D
S1130AE0CF93DF93EC01BC98BB98BA98B998C29A9B
S1130AF060E880E094E10E94F309B199FECF80E0C0
S1130B0094E10E94030A888780E094E10E94030A2A
S1130B108F831A821B821C821D82198218821A8674
S1130B2019861C861B861E861D861E82DF91CF9128
S1130B300895FC016185728543855485CB01059632
S1130B400B9738F4CA0105960B9718F41686158688
S1130B500895872F8095881F8827881F90E0880F25
S1130B60991F252F2095221F2227221F822B813097
S1130B709105B9F01CF4892B29F145C08230910507
S1130B8099F1039709F03FC02AE5249FC001259FEE
S1130B90900D1124640F751F0E94130A76876587D0
S1130BA0089526EA2603C001279F900D11249A0177
S1130BB0261B370BB9010E94130A665A7F4F7687AA
S1130BC06587089526EA2403C001259F900D11240A
S1130BD0719561957109641B750B0E94130A6C541D
S1130BE07F4F7687658708952AE5269FC001279F52
S1130BF0900D1124641B750B0E94130A625F7E4FD3
S1130C00768765870895168615860895CF93DF93B2
S1130C10EC0160E080E094E10E94F309B199FECF19
S1130C2080E094E10E94030A888380E094E10E94BA
S1130C30030A898380E094E10E94030A8B8380E0A5
S1130C4094E10E94030A8A8381E0B49B80E08C8350
S1130C5081E0B39B80E08D8381E0B29980E08E8354
S1130C60888190E02885821B91099C878B878981E4
S1130C7090E02F81821B91099A878987CE010E9477
S1130C809905DF91CF910895682F80E090E00E944C
S1130C90F3090895EF92FF920F931F93CF93DF937D
S1130CA06115710581F07C018C01E60EF71EC0E030
S1130CB0D2E0F80161918F01CE010E94F3092196DF
S1130CC00E151F05B1F7DF91CF911F910F91FF9082
S1130CD0EF9008958770806B0E9444060895CF9327
S1130CE0C82F82958F7080610E9444068C2F8F706C
S1130CF00E944406CF9108958EEA0E94440681EA38
S1130D000E9444068AED0E94440682E10E94440641
S1130D1088EC0E94440688EA0E9444068FE30E94FD
S1130D20440685ED0E94440680E80E94440681E85A
S1130D300E94440680E50E94440689ED0E94440610
S1130D4081E20E94440680E20E94440682E00E94FE
S1130D5044068BED0E94440680E30E9444068DEA1B
S1130D600E94440680E00E94440684EA0E944406ED
S1130D7086EA0E9444068FEA0E94440608958F92F0
S1130D809F92BF92CF92DF92EF92FF920F931F93A5
S1130D90CF93DF93CDB7DEB7C058D1090FB6F8941F
S1130DA0DEBF0FBECDBFCE0101964C01EE24FF2461
S1130DB0E81AF90AB12C6E0191E8C90ED11C8B2DE9
S1130DC00E946A0680E00E946F068401C8018E0DAD
S1130DD09F1D0E94E309F80181938F01EC15FD0525
S1130DE0A9F760E870E0CE0101960E944A06B39428
S1130DF0F0E8EF0EF11C88E0B812E1CFC058DF4FE5
S1130E000FB6F894DEBF0FBECDBFDF91CF911F9117
S1130E100F91FF90EF90DF90CF90BF909F908F90B5
S1130E2008956F927F928F929F92AF92BF92CF92CA
S1130E30DF92EF92FF920F931F93CF93DF934C01B6
S1130E40E12CF12C0F2EF0E76F2EF1E07F2EF02D28
S1130E500F2EF8E7AF2EF1E0BF2EF02DF401049130
S1130E6080EE800F8036F0F410E000521109000F7C
S1130E70111F000F111F000F111F6701F8E0CF0EA3
S1130E80D11CE7010E191F09F801EC0FFD1FE059F1
S1130E90FE4F6491CE010E94D3092196CC16DD0643
S1130EA099F710C0C0E7D1E0870106191709FE01C0
S1130EB06491C8018C0F9D1F0E94D3092196CA1505
S1130EC0DB05A9F7FFEF8F1A9F0A88E0E80EF11CF3
S1130ED0E114E4E0FE0609F0C1CFDF91CF911F9148
S1130EE00F91FF90EF90DF90CF90BF90AF909F90C5
S1130EF08F907F906F9008958F929F92BF92CF9220
S1130F00DF92EF92FF920F931F93CF93DF9388307A
S1130F1008F05EC0FB0190E8899F60011124808184
S1130F20882309F447C076018B01B12C0AC00F5FF6
S1130F301F4FA8E0EA0EF11CF8018081882309F410
S1130F403AC0C0E0D0E0D801EC91F0E0B097EE0FE9
S1130F50FF1FEE0FFF1FEE0FFF1FEC0FFD1FE059E9
S1130F60FE4F6491C7018C0F9D1F0E94D3092196E7
S1130F70C830D10541F7B394B0E1BB12D8CF28C033
S1130F80FE016491C8018C0F9D1F0E94D309219614
S1130F90CE15DF05A9F7B394FFE0FB15C8F0C0E751
S1130FA0D1E0860188E0B89E000D111D11240819B6
S1130FB01909E6CFB12C0F2EF0E78F2EF1E09F2E0A
S1130FC0F02D0F2EF8E7EF2EF1E0FF2EF02DE7CFF6
S1130FD0DF91CF911F910F91FF90EF90DF90CF9011
S1130FE0BF909F908F900895EF92FF920F931F935D
S1130FF0CF93DF93883070F5603160F5282F862F0A
S113100090E030E1239F800D911D1124880F991FDA
S1131010880F991F880F991F042F10E0005211099F
S1131020000F111F000F111F000F111F7C0128E07A
S1131030E20EF11CEC01081B190BF801EC0FFD1F6B
S1131040E059FE4F6491CE010E94D3092196CE153A
S1131050DF0599F7DF91CF911F910F91FF90EF90EA
S113106008950F931F93CF93DF93803448F566233D
S11310703CF1042F182F869586958695C62FD0E0CF
S113108090E8899FC00DD11D1124CE010E94E3096F
S11310901770002349F061E070E002C0660F771F0B
S11310A01A95E2F7682B09C061E070E002C0660F90
S11310B0771F1A95E2F760956823CE010E94D30941
S11310C0DF91CF911F910F910895CF93DF93C0E0EB
S11310D0D0E060E0CE010E94D3092196C11584E0DE
S11310E0D807B9F7DF91CF9108956F927F928F92CD
S11310F09F92AF92BF92CF92DF92EF92FF920F93A3
S11311001F93CF93DF93C82FD62F942E622E842F54
S113111090E08C1B91097C0122F4EE24FF24E81A50
S1131120F90A862D90E08D1B91095C0122F4AA2412
S1131130BB24A81AB90AC91518F088248A9402C0D5
S113114088248394D61518F077247A9402C07724DF
S1131150739487010A191B09CC24DD24CA18DB08FF
S113116041E06C2F8D2F0E943108C91102C0D615A1
S113117081F0C801880F991FC816D9061CF40A19F2
S11311801B09C80D8E159F055CF70E0D1F1DD70D8D
S1131190E7CFDF91CF911F910F91FF90EF90DF90F8
S11311A0CF90BF90AF909F908F907F906F90089555
S11311B09F92AF92BF92CF92DF92EF92FF920F93E2
S11311C01F93CF93DF93982EC62EC42FD0E0A12C6B
S11311D0B12C00E010E041E0FC2EF90C6F2DDC2C6A
S11311E0D00E8D2D0E94310841E0E92CEC1A6E2DB1
S11311F08D2D0E94310841E06F2DFC2CF01A8F2DAB
S11312000E94310841E06E2D8F2D0E94310841E08B
S1131210F92CF00E6F2DDC2EDC0C8D2D0E94310884
S113122041E0E92CE01A6E2D8D2D0E94310841E039
S11312306F2DFC2CFC1A8F2D0E94310841E06E2D7D
S11312408F2D0E9431081A141B045CF00F5F1F4F8E
S1131250C801880F991F0196A80EB91E1A141B0401
S11312603CF42197CE01880F991F0196A81AB90A58
S1131270C017D1070CF0AFCFDF91CF911F910F9121
S1131280FF90EF90DF90CF90BF90AF909F90089524
S11312900F931F93CF93DF93082F162FD22FC82FAE
S11312A0C40F262F4C2F0E947508D10F2D2F4C2FC1
S11312B06D2F802F0E9475082D2F402F612F802FB6
S11312C00E9475082D2F4C2F612F8C2F0E947508BA
S11312D0DF91CF911F910F9108951F920F920FB636
S11312E00F9211248F939F93AF93BF938091BD016D
S11312F09091BE01A091BF01B091C0010196A11DC2
S1131300B11D8093BD019093BE01A093BF01B09322
S1131310C001BF91AF919F918F910F900FBE0F901D
S11313201F9018958091BD019091BE01A091BF01BD
S1131330B091C0012CB53DB5DC0199278827BC01CB
S1131340CD01620F731F811D911D08950E949209A2
S113135023E333E140E050E00E94270ACA01B901C7
S113136008951FBC81E08EBD80E889BF1DBC1CBCF4
S113137008951DBC1CBC1092BD011092BE011092B8
S1131380BF011092C00108958FEF8ABB8FE084BB28
S11313908E9A8F9A319A85B7806885BF10BE80B7C0
S11313A0806280BF0895CF93DF9300D0CDB7DEB7BE
S11313B09A838983E981FA81F85E60830F900F90A4
S11313C0DF91CF910895CF93DF9300D0CDB7DEB7EF
S11313D09A838983E981FA81F85E80810F900F9066
S11313E0DF91CF910895CF93DF9300D0CDB7DEB7CF
S11313F09A838983E981FA81F05F60830F900F906B
S1131400DF91CF910895CF93DF9300D0CDB7DEB7AE
S11314109A838983E981FA81F05F80810F900F902C
S1131420DF91CF91089597FB072E16F4009407D00F
S113143077FD09D00E94490A07FC05D03EF4909537
S113144081959F4F0895709561957F4F0895A1E20E
S11314501A2EAA1BBB1BFD010DC0AA1FBB1FEE1F2A
S1131460FF1FA217B307E407F50720F0A21BB30B75
S1131470E40BF50B661F771F881F991F1A9469F7F1
S113148060957095809590959B01AC01BD01CF014D
S11314900895AA1BBB1B51E107C0AA1FBB1FA617B7
S11314A0B70710F0A61BB70B881F991F5A95A9F709
S11114B080959095BC01CD010895F894FFCF6E
S11314BE00000001000000000000670200000000B0
S11314CE0002000000005E0200000000537461720E
S11314DE746172207370656C65742E2E2E005669BD
S11314EE736572206B72656469747461722E2E2E2C
S11314FE004176736C75747461722E2E2E005567CE
S113150E796C6469672076616C6700456E647265F8
S113151E72206C7964696E6E7374696C6C696E6733
S113152E61722E2E2E00456E64726572206C797374
S113153E737479726B652E2E2E00456E647265720D
S113154E206B6F6E74726F6C6C61722E2E2E00494E
S113155E74656D20312076616C6774004974656D15
S10D156E20322076616C67740000DF
S9030000FC
