:100000000C9488010C94A5010C94A5010C94A501F5
:100010000C94A5010C94A5010C94A5010C94A501C8
:100020000C94A5010C94A5010C94A5010C94A501B8
:100030000C94A5010C94A5010C94A5010C94A501A8
:100040000C94A5010C94A5010C94A5010C94D2016B
:100050000C94A5010C94A5010C94A5010C94A50188
:100060000C94A5010C94A5010C94A5010C94A50178
:10007000000000000000000000005F000000000021
:100080000007000700000000147F147F1400000028
:10009000242A7F2A12000000231308646200000053
:1000A00036495620500000000008070300000000F9
:1000B000001C2241000000000041221C0000000042
:1000C00014083E081400000008083E08080000005C
:1000D0000050300000000000080808080800000078
:1000E0000060600000000000201008040200000012
:1000F0003E5149453E00000000427F4000000000A4
:1001000042615149460000002141454B3100000049
:100110001814127F100000002745454539000000E3
:100120003C4A494930000000017109050300000004
:100130003649494936000000064949291E00000099
:1001400000363600000000000056360000000000B7
:100150007E1111117E0000007F49494936000000E0
:100160003E414141220000007F4141221C0000002D
:100170007F494949410000007F0909090100000049
:100180003E4149497A0000007F0808087F000000CE
:1001900000417F41000000002040413F010000007D
:1001A0007F081422410000007F40404040000000D2
:1001B0007F0204027F0000007F0204087F0000002D
:1001C0003E4141413E0000007F0909090600000050
:1001D0003E4151215E0000007F09192946000000C0
:1001E000464949493100000001017F01010000003A
:1001F0003F4040403F0000001F2040201F00000003
:100200007F2018207F0000006314081463000000A2
:1002100003047804030000006151494543000000D5
:1002200020545454780000007F48444438000000B3
:100230003844444420000000384444487F00000013
:100240003854545418000000087E090102000000D0
:10025000081454543C0000007F0804047800000097
:1002600000447D40000000002040443D00000000AC
:10027000007F10284400000000417F400000000083
:100280007C041804780000007C0804047800000056
:1002900038444444380000007C1414140800000062
:1002A000081414187C0000007C08040408000000F6
:1002B0004854545420000000043F444020000000F3
:1002C0003C4040207C0000001C2040201C0000001E
:1002D0003C4030403C00000044281028440000000E
:1002E0000C5050503C0000004464544C440000004A
:1002F000000836410000000000007F000000000000
:100300000041360800000000080408100800000042
:1003100011241FBECFEFD4E0DEBFCDBF12E0A0E0BE
:10032000B1E0EEE8F0E102C005900D92A034B10713
:10033000D9F722E0A0E4B2E001C01D92A634B207D2
:10034000E1F70E94DF010C9445080C94000090BD79
:1003500089B9549A539A8EE880BD08955D9BFECF6B
:100360008CB908950E94AE0180E090E008955F9BF3
:10037000FECF8CB10895CF930E94B701C82F0E9481
:10038000AE018C2F90E0CF910895E0E4F2E082E19D
:1003900091E09383828384E091E091838083089548
:1003A000579A08951F920F920FB60F9211248F93B0
:1003B0008CB18F910F900FBE0F901F901895CF9317
:1003C000DF93CDB7DEB72F970FB6F894DEBF0FBE21
:1003D000CDBF8FE190E00E94A7010E94C5010E945D
:1003E000D00178940E942104CE0101960E9430022F
:1003F0000E949E030E942D0360E080E00E9495030E
:1004000081E40E946A0360E081E00E94950382E437
:100410000E946A030F2EF0E2EF2EF1E0FF2EF02D86
:1004200008E311E0CE0101960E94C6028D858F93EC
:100430008C858F938B858F938A858F93FF92EF9214
:100440000E94D4048F858F938E858F931F930F9373
:100450000E94D4040FB6F894DEBF0FBECDBFE2CF2A
:10046000CF93DF93EC01BC98BB98BA98B998C29A25
:1004700060E880E094E10E943004B199FECF80E012
:1004800094E10E944004888780E094E10E94400447
:100490008F831A821B821C821D82198218821A86FF
:1004A00019861C861B861E861D861E82DF91CF91B3
:1004B0000895FC016185728543855485CB010596BD
:1004C0000B9738F4CA0105960B9718F41686158613
:1004D0000895872F8095881F8827881F90E0880FB0
:1004E000991F252F2095221F2227221F822B813022
:1004F0009105B9F01CF4892B29F145C08230910592
:1005000099F1039709F03FC02AE5249FC001259F78
:10051000900D1124640F751F0E9450047687658723
:10052000089526EA2603C001279F900D11249A0101
:10053000261B370BB9010E945004665A7F4F7687FD
:100540006587089526EA2403C001259F900D112494
:10055000719561957109641B750B0E9450046C5470
:100560007F4F7687658708952AE5269FC001279FDC
:10057000900D1124641B750B0E945004625F7E4F26
:10058000768765870895168615860895CF93DF933D
:10059000EC0160E080E094E10E943004B199FECF6C
:1005A00080E094E10E944004888380E094E10E940E
:1005B0004004898380E094E10E9440048B8380E0C2
:1005C00094E10E9440048A8381E0B49B80E08C83A4
:1005D00081E0B39B80E08D8381E0B29980E08E83DF
:1005E000888190E02885821B91099C878B8789816F
:1005F00090E02F81821B91099A878987CE010E9402
:100600005902DF91CF910895C3988BBB0895C39A87
:10061000C7986115710569F0FC01680F791F919108
:1006200095BBC49800C000C00000C49AE617F70745
:10063000B1F7C79A08958770806B0E9404030895EC
:10064000CF93C82F82958F7080610E9404038C2FF6
:100650008F700E940403CF9108958EEA0E940403D4
:1006600081EA0E94040388EC0E94040386EA0E9447
:10067000040384EA0E94040388EA0E9404038FE3CF
:100680000E94040383ED0E94040380E00E9404039F
:1006900085ED0E94040380E80E94040389ED0E9416
:1006A000040382E20E9404038AED0E94040382E1B3
:1006B0000E9404038BED0E94040380E20E94040365
:1006C0008DE80E94040384E10E9404038FEA0E94E3
:1006D00004030895CF93DF93CDB7DEB728970FB605
:1006E000F894DEBF0FBECDBF28E0829FC001112469
:1006F000FC01E059F040DE0111969E01275F3F4F5B
:1007000084918D933196A217B307D1F768E070E01A
:10071000CE0101960E94070328960FB6F894DEBF1B
:100720000FBECDBFDF91CF910895CF93C62F0E940A
:100730001B038C2F0E942003CF910895CF92DF924C
:10074000EF92FF920F931F93CF93DF9387E591E092
:100750000E94EA040E94C4047C010E94C904C12CC6
:10076000D12C00E010E0CDE6D1E00E94C404F601F7
:10077000F85E808320812817A9F099279F938F9393
:100780001F922F93DF92CF92DF93CF930E94D404D6
:100790000F5F1F4F8DB79EB708960FB6F8949EBF98
:1007A0000FBE8DBF9FEFC91AD90AC11488E0D806C1
:1007B000E1F6C7010E94C904C0E0D0E0E12CF12CB1
:1007C0000F2EF7EACF2EF1E0DF2EF02D0E94C404A9
:1007D000FE01F85E20812817B1F099279F938F932F
:1007E0001F922F93DF93CF93DF92CF920E94D40476
:1007F0009FEFE91AF90A8DB79EB708960FB6F894DD
:100800009EBF0FBE8DBF2196C11598E0D907F1F6A6
:10081000FF92EF921F930F9385EE91E09F938F933A
:100820000E94D4040F900F900F900F900F900F9094
:10083000DF91CF911F910F91FF90EF90DF90CF90BC
:1008400008958FEF8ABB8FE084BB8E9A8F9A319A7E
:1008500085B7806885BF10BE80B7806280BF08956D
:10086000CF93DF9300D0CDB7DEB79A838983E98138
:10087000FA81F05F60830F900F90DF91CF91089520
:10088000CF93DF9300D0CDB7DEB79A838983E98118
:10089000FA81F05F80810F900F90DF91CF910895E2
:1008A00097FB072E16F4009407D077FD09D00E941D
:1008B000640407FC05D03EF4909581959F4F089500
:1008C000709561957F4F0895AA1BBB1B51E107C02E
:1008D000AA1FBB1FA617B70710F0A61BB70B881FD0
:1008E000991F5A95A9F780959095BC01CD0108955F
:1008F0008F929F92AF92BF92CF92DF92EF92FF9230
:10090000CF93DF93EC01688179818A819B816115A6
:1009100071058105910521F464E279ED8BE597E09D
:100920002DE133EF41E050E00E94AB0749015A014D
:100930009B01AC01A7EAB1E40E94CA076B017C01EC
:10094000ACEEB4EFA50194010E94D807DC01CB0105
:100950008C0D9D1DAE1DBF1DB7FF03C00197A109E2
:10096000B04888839983AA83BB839F77DF91CF9117
:10097000FF90EF90DF90CF90BF90AF909F908F90BF
:1009800008950E947804089580E091E00E94780420
:100990000895A0E0B0E08093000190930101A0933E
:1009A0000201B09303010895A0E0B0E0EAEDF4E0A5
:1009B0000C94ED07AE014B5F5F4FFA0161917191AD
:1009C000AF0180914202909143020E941A05E2E039
:1009D0000C9409080F931F93CF93DF93E091420289
:1009E000F0914302238121FF1BC08C01D0E0C0E0C5
:1009F000F80181918F016091420270914302DB0105
:100A00001896ED91FC911997882331F00995892B5F
:100A100079F3DFEFCFEFECCF8AE00995892B19F05E
:100A20008FEF9FEF02C08D2F9C2FDF91CF911F91F1
:100A30000F910895ABE0B0E0E0E2F5E00C94DD0743
:100A40006C017B018A01FC0117821682838181FF80
:100A5000CCC1CE0101963C01F6019381F70193FDD3
:100A6000859193FF81917F01882309F4BAC1853272
:100A700039F493FD859193FF81917F01853229F4AB
:100A8000B60190E00E941107E7CF912C212C312C68
:100A9000FFE1F315D8F08B3279F038F4803279F039
:100AA0008332A1F4232D20611DC08D3261F080338B
:100AB00069F4232D216016C0832D8260382EE32D2A
:100AC000E4603E2E2AC0F32DF8601DC037FC2DC017
:100AD00020ED280F2A3040F08E32B9F436FC81C167
:100AE000232D2064322E19C036FE06C08AE0989E5F
:100AF000200D1124922E11C0EAE02E9E200D11240B
:100B0000222EF32DF0623F2E08C08C3621F4832D67
:100B10008068382E02C0883641F4F70193FD859134
:100B200093FF81917F018111B3CF982F9F7D9554C1
:100B3000933028F40C5F1F4F9FE399830DC08336D9
:100B400031F0833771F0833509F059C021C0F801C5
:100B5000808189830E5F1F4F88248394912C5301D9
:100B600013C02801F2E04F0E511CF801A080B180A3
:100B700036FE03C0692D70E002C06FEF7FEFC50144
:100B80000E9406074C018201F32DFF773F2E16C00D
:100B9000280122E0420E511CF801A080B18036FEEF
:100BA00003C0692D70E002C06FEF7FEFC5010E94A6
:100BB000FB064C01F32DF0683F2E820133FC1BC075
:100BC000822D90E088169906B0F4B60180E290E09C
:100BD0000E9411072A94F4CFF50137FC859137FE66
:100BE00081915F01B60190E00E94110721102A94C3
:100BF00021E0821A91088114910471F7E8C08436CB
:100C000011F0893641F5F80137FE07C06081718126
:100C1000828193810C5F1F4F08C060817181072E14
:100C2000000C880B990B0E5F1F4FF32DFF763F2EA4
:100C300097FF09C090958095709561957F4F8F4F74
:100C40009F4FF0683F2E2AE030E0A3010E944D073D
:100C5000882E861845C0853731F4232D2F7EB22E7D
:100C60002AE030E025C0932D997FB92E8F36C1F050
:100C700018F4883579F0B5C0803719F0883721F03D
:100C8000B0C0E92FE061BE2EB4FE0DC0FB2DF460B4
:100C9000BF2E09C034FE0AC0292F2660B22E06C01E
:100CA00028E030E005C020E130E002C020E132E081
:100CB000F801B7FE07C060817181828193810C5F6A
:100CC0001F4F06C06081718180E090E00E5F1F4F72
:100CD000A3010E944D07882E8618FB2DFF773F2E1B
:100CE00036FE0DC0232D2E7FA22E891458F434FE1B
:100CF0000BC032FC09C0832D8E7EA82E05C0B82CF7
:100D0000A32C03C0B82C01C0B92CA4FE0FC0FE0157
:100D1000E80DF11D8081803321F49A2D997EA92E52
:100D200009C0A2FE06C0B394B39404C08A2D86788D
:100D300009F0B394A3FC11C0A0FE06C0B21488F45D
:100D4000280C922C9B180EC0B21460F4B60180E2FD
:100D500090E00E941107B394F7CFB21418F42B1847
:100D600002C0982C212CA4FE10C0B60180E390E0B4
:100D70000E941107A2FE17C0A1FC03C088E790E003
:100D800002C088E590E0B6010CC08A2D867859F043
:100D9000A1FE02C08BE201C080E2A7FC8DE2B60199
:100DA00090E00E941107891438F4B60180E390E0C6
:100DB0000E9411079A94F7CF8A94F301E80DF11D70
:100DC0008081B60190E00E9411078110F5CF2220AA
:100DD00009F442CEB60180E290E00E9411072A9405
:100DE000F6CFF6018681978102C08FEF9FEF2B9699
:100DF000E2E10C94F907FC0105906150704001108C
:100E0000D8F7809590958E0F9F1F0895FC01615033
:100E1000704001900110D8F7809590958E0F9F1F1C
:100E200008950F931F93CF93DF93FB01238121FD3F
:100E300003C08FEF9FEF2CC022FF16C04681578161
:100E4000248135814217530744F4A081B1819D016B
:100E50002F5F3F4F318320838C93268137812F5F13
:100E60003F4F3783268314C08B01EC01FB010084C4
:100E7000F185E02D0995892BE1F6D80116968D9123
:100E80009C911797019617969C938E931697CE0177
:100E9000DF91CF911F910F910895FA01AA27283071
:100EA00051F1203181F1E8946F936E7F6E5F7F4F37
:100EB0008F4F9F4FAF4FB1E03ED0B4E03CD0670FB3
:100EC000781F891F9A1FA11D680F791F8A1F911D06
:100ED000A11D6A0F711D811D911DA11D20D009F456
:100EE00068943F912AE0269F11243019305D319398
:100EF000DEF6CF010895462F4770405D4193B3E081
:100F00000FD0C9F7F6CF462F4F70405D4A3318F027
:100F1000495D31FD4052419302D0A9F7EACFB4E0D8
:100F2000A6959795879577956795BA95C9F7009790
:100F30006105710508959B01AC010A2E0694579531
:100F4000479537952795BA95C9F7620F731F841F88
:100F5000951FA01D0895052E97FB1EF400940E9476
:100F6000C20757FD07D00E94140807FC03D04EF4B7
:100F70000C94C20750954095309521953F4F4F4FA7
:100F80005F4F089590958095709561957F4F8F4F35
:100F90009F4F08950E943608A59F900DB49F900D15
:100FA000A49F800D911D11240895B7FF0C94CA07CA
:100FB0000E94CA07821B930B08952F923F924F9273
:100FC0005F926F927F928F929F92AF92BF92CF92D9
:100FD000DF92EF92FF920F931F93CF93DF93CDB7E2
:100FE000DEB7CA1BDB0B0FB6F894DEBF0FBECDBF5A
:100FF00009942A88398848885F846E847D848C842B
:101000009B84AA84B984C884DF80EE80FD800C8133
:101010001B81AA81B981CE0FD11D0FB6F894DEBF16
:101020000FBECDBFED010895A1E21A2EAA1BBB1B76
:10103000FD010DC0AA1FBB1FEE1FFF1FA217B307A4
:10104000E407F50720F0A21BB30BE40BF50B661FBA
:10105000771F881F991F1A9469F76095709580957E
:1010600090959B01AC01BD01CF010895A29FB001F5
:10107000B39FC001A39F700D811D1124911DB29FCC
:0E108000700D811D1124911D0895F894FFCF6D
:10108E000100000000000001000000000000BB0194
:10109E0000000000000200000000B201000000008D
:1010AE004A6F79737469636B20583A2025642C203B
:1010BE00593A2025640A0D0043616C63756C6174A6
:1010CE00656420616E676C653A20256420646567EF
:1010DE00726565730A0D005374617274696E6720D0
:1010EE005352414D20746573742E2E2E0057726923
:1010FE007465207068617365206572726F723A2034
:10110E006578745F72616D5B2534645D203D2025CA
:10111E00303258202873686F756C64206265202504
:10112E00303258290A0D0052657472696576616C09
:10113E00207068617365206572726F723A206578EF
:10114E00745F72616D5B2534645D203D2025303205
:10115E0058202873686F756C6420626520253032C4
:10116E0058290A0D005352414D2074657374206343
:10117E006F6D706C657465642077697468200A0DF4
:10118E00253464206572726F727320696E207772D7
:10119E0069746520706861736520616E64200A0D44
:1011AE00253464206572726F727320696E207265C9
:1011BE007472696576616C2070686173650A0D00E2
:00000001FF
