:100000000C941C030C9439030C9439030C9439039D
:100010000C9439030C9439030C9439030C94390370
:100020000C9439030C9439030C9439030C94390360
:100030000C9439030C9439030C9439030C94820901
:100040000C9439030C9439030C9439030C94660313
:100050000C9439030C9439030C9439030C94390330
:100060000C9439030C9439030C9439030C94390320
:1000700020205F5F5F5F5F252020255F5F5F5F5F00
:1000800020202A2A2A2A2A2020202A2A2A2A2A200C
:10009000202A20202020202A202A20202020202A38
:1000A000202A20202A2A20202A20202A2A20202A0A
:1000B000202A2020202020202A2020202020202A22
:1000C00020202A202020202A202A202020202A2008
:1000D0002020202A2A2A2A2020202A2A2A2A2020D0
:1000E000205C5F5F5F5F5F5F5F5F5F5F5F5F5F2F92
:1000F0002020207961704040402A202020202020AC
:1001000020202023404040232020202A232020207C
:100110002020234040402A20202A404040402320E5
:100120002A20202B23404040404040202040404097
:1001300040402020202B404040402A2020204040AA
:100140004040402525404040404040202B20202A70
:100150002023404040402A20202A404040232020A5
:100160002020202323202020234040402320202023
:10017000000000000000000000005F000000000020
:100180000007000700000000147F147F1400000027
:10019000242A7F2A12000000231308646200000052
:1001A00036495620500000000008070300000000F8
:1001B000001C2241000000000041221C0000000041
:1001C00014083E081400000008083E08080000005B
:1001D0000050300000000000080808080800000077
:1001E0000060600000000000201008040200000011
:1001F0003E5149453E00000000427F4000000000A3
:1002000042615149460000002141454B3100000048
:100210001814127F100000002745454539000000E2
:100220003C4A494930000000017109050300000003
:100230003649494936000000064949291E00000098
:1002400000363600000000000056360000000000B6
:1002500008142241000000001414141414140000A7
:1002600041221408000000000201510906000000AC
:100270003E415D5D1E0000007E1111117E000000F8
:100280007F494949360000003E41414122000000BB
:100290007F4141221C0000007F4949494100000084
:1002A0007F090909010000003E4149497A00000028
:1002B0007F0808087F00000000417F410000000027
:1002C0002040413F010000007F081422410000004F
:1002D0007F404040400000007F0204027F00000099
:1002E0007F0204087F0000003E4141413E000000C3
:1002F0007F090909060000003E4151215E0000000F
:100300007F0919294600000046494949310000008B
:1003100001017F01010000003F4040403F0000001C
:100320001F2040201F0000007F2018207F000000B9
:100330006314081463000000030478040300000041
:100340006151494543000000003E4141000000006A
:1003500002040810200000000041413E000000009F
:100360000402010204000000404040404040000000
:1003700000000307000000002054545478000000DF
:100380007F484444380000003844444420000000C2
:10039000384444487F00000038545454180000008A
:1003A000087E090102000000081454543C000000BB
:1003B0007F0804047800000000447D400000000035
:1003C0002040443D00000000007F10284400000051
:1003D00000417F40000000007C0418047800000009
:1003E0007C080404780000003844444438000000CD
:1003F0007C14141408000000081414187C00000079
:100400007C080404080000004854545420000000F4
:10041000043F4440200000003C4040207C0000009D
:100420001C2040201C0000003C4030403C000000EC
:1004300044281028440000000C5050503C0000009C
:100440004464544C440000000008364100000000A1
:1004500000007F000000000000413608000000009E
:10046000080408100800000020536F756E642020F7
:100470002020202020200000204272696768746ECE
:10048000657373202020000020436F6E74726F6CC0
:100490007320202020200000204261636B20202058
:1004A0002020202020200000204974656D2031206C
:1004B000204241434B200000204974656D203220CA
:1004C0002020202020200000204974656D2033204A
:1004D0002020202020200000204974656D20342039
:1004E0002020202020200000204974656D20352028
:1004F0002020202020200000204974656D20362017
:100500002020202020200000204974656D20372005
:100510002020202020200000204974656D203820F4
:100520002020202020200000204974656D203920E3
:100530002020202020200000204974656D203130CB
:100540002020202020200000204974656D203131BA
:100550002020202020200000204974656D203132A9
:100560002020202020200000204974656D20313398
:100570002020202020200000204974656D20313487
:100580002020202020200000204974656D20313576
:100590002020202020200000204974656D20313665
:1005A0002020202020200000204974656D20313754
:1005B0002020202020200000204974656D20313843
:1005C0002020202020200000204974656D20313932
:1005D0002020202020200000204974656D2032302A
:1005E00020202020202000002053746172742047B6
:1005F000616D6520202000002053657474696E676A
:100600007320202020200000204869676820536361
:100610006F726573202000002043726564697473F3
:1006200020202020202000002045786974202020F0
:10063000202020202020000011241FBECFEFD4E076
:10064000DEBFCDBF11E0A0E0B1E0E4E2F5E102C021
:1006500005900D92AA3BB107D9F721E0AAEBB1E0D2
:1006600001C01D92A93DB207E1F70E9473030C94EB
:10067000900A0C94000090BD89B9549A539A8EE860
:1006800080BD08955D9BFECF8CB908950E94420302
:1006900080E090E008955F9BFECF8CB10895CF93EA
:1006A0000E944B03C82F0E9442038C2F90E0CF91F1
:1006B0000895E3EDF1E08EE091E09383828380E0A2
:1006C00091E0918380830895579A08951F920F9225
:1006D0000FB60F9211248F938CB18F910F900FBE94
:1006E0000F901F901895CF93DF93CDB7DEB72F975C
:1006F0000FB6F894DEBF0FBECDBF8FE190E00E9431
:100700003B030E9459030E9464030E94C609789427
:100710000E94D9090E94C004CE0101960E9477056B
:100720000E948A0687EC91E09093BB018093BA0106
:100730000E94830680E790E00E941F070E94CD067A
:100740002FEF8FEF9EE0215080409040E1F700C0F6
:1007500000000E946C0822E344E66AE08AE00E94FE
:100760008A0844E150E060E270E080E490E00E949A
:10077000ED082EE148E264E184E10E945D090E94F7
:10078000CD062FEF8FEF95E9215080409040E1F7A3
:1007900000C000006AEB71E0CE0101960E94960451
:1007A0000E94BB09603171058105910598F30E9493
:1007B000CE090E94CD06EECFCF92DF92EF92FF924C
:1007C0001F93CF93DF93CDB7DEB7C059D1090FB6D2
:1007D000F894DEBF0FBECDBF6C01FE01719680E8BC
:1007E000DF011D928A95E9F77F0110E0F60184810F
:1007F000810F95818917A8F460817181F0E18F9F45
:10080000600D711D112440E150E0CE0101960E945F
:10081000720A40E150E0BE016F5F7F4FC7010E9446
:10082000810A1F5F80E1E80EF11C1830F9F6CE0155
:1008300041960E941F07D60112968C91129714962A
:100840009C914EE360E0891B0E94FB07C057DF4F7D
:100850000FB6F894DEBF0FBECDBFDF91CF911F91D1
:10086000FF90EF90DF90CF900895CF93C82F862F01
:1008700040E260E00E94FB074EE360E08C2F0E94A4
:10088000FB07CF910895FB01DC011B968D919C9194
:100890001C9783339105FCF06281662309F445C0FF
:1008A00063838FEF860F82839481891730F4915090
:1008B0009483CF010E94DC0304C0691B891B0E9442
:1008C0003504BFEF2FEF82E0B15020408040E1F7C8
:1008D00000C000C008958E3C9F4F3CF56281262FDA
:1008E00030E0858190E0019728173907F4F463839D
:1008F00081E0860F82839481482F50E0292F30E0D9
:10090000285F3F4F421753071CF09F5F948304C03A
:10091000691B891B0E943504BFEF2FEF82E0B150A5
:1009200020408040E1F700C000C008950F931F935E
:10093000CF93DF93EC018B010E940D06F8016081DB
:100940007181CE010E94430480911C01882339F0FB
:10095000F801808191810E94DC0310921C018E813C
:10096000882349F00E946C08B801CE010E94E2047D
:1009700081E080931C01DF91CF911F910F91089529
:10098000E7ECF1E088EE95E09183808385E0858354
:10099000128213821482EDECF1E088EA94E09183F4
:1009A000808384E18583128213821482E1ECF1E07A
:1009B00088E694E09183808384E0858312821382A9
:1009C000148208958091BC01813009F46FC020F039
:1009D000823009F440C00895FB0182818230D9F051
:1009E00028F4882341F0813061F02FC08330E9F092
:1009F000843029F12AC06DE171E080E00E94830714
:100A0000089582E08093BC0181EC91E09093BB015A
:100A10008093BA01089581E08093BC018DEC91E050
:100A20009093BB018093BA0108956FE271E080E07A
:100A30000E94830780EF90E00E941F07089562E400
:100A400071E080E00E94830708956FE471E080E028
:100A50000E9483070895FB018281813061F028F0B4
:100A6000823079F0833099F01BC06CE571E080E052
:100A70000E948307089567E771E080E00E94830782
:100A800008956BE871E080E00E948307089510925A
:100A9000BC0187EC91E09093BB018093BA0108956B
:100AA0006FE471E080E00E9483070895FB0182817A
:100AB000882319F0813079F014C060EA71E080E099
:100AC0000E9483071092BC0187EC91E09093BB01D8
:100AD0008093BA0108956DEA71E080E00E94830777
:100AE00008956FE471E080E00E9483070895CF933A
:100AF000DF93EC01BC98BB98BA98B998C29A60E8A9
:100B000080E094E10E94080AB199FECF80E094E170
:100B10000E94180A888780E094E10E94180A8F8357
:100B20001A821B821C821D82198218821A861986DB
:100B30001C861B861E861D861E82DF91CF9108951E
:100B4000FC016185728543855485CB0105960B9721
:100B500038F4CA0105960B9718F416861586089581
:100B6000872F8095881F8827881F90E0880F991FFE
:100B7000252F2095221F2227221F822B81309105AD
:100B8000B9F01CF4892B29F145C08230910599F107
:100B9000039709F03FC02AE5249FC001259F900DCF
:100BA0001124640F751F0E94280A768765870895AF
:100BB00026EA2603C001279F900D11249A01261BC7
:100BC000370BB9010E94280A665A7F4F76876587DE
:100BD000089526EA2403C001259F900D11247195E4
:100BE00061957109641B750B0E94280A6C547F4F34
:100BF0007687658708952AE5269FC001279F900D77
:100C00001124641B750B0E94280A625F7E4F768751
:100C100065870895168615860895CF93DF93EC01B6
:100C200060E080E094E10E94080AB199FECF80E084
:100C300094E10E94180A888380E094E10E94180AD7
:100C4000898380E094E10E94180A8B8380E094E11C
:100C50000E94180A8A8381E0B49B80E08C8381E043
:100C6000B39B80E08D8381E0B29980E08E838881A0
:100C700090E02885821B91099C878B87898190E071
:100C80002F81821B91099A878987CE010E94A00536
:100C9000DF91CF910895682F80E090E00E94080ACC
:100CA0000895EF92FF920F931F93CF93DF936115F7
:100CB000710581F07C018C01E60EF71EC0E0D2E0E8
:100CC000F80161918F01CE010E94080A21960E154C
:100CD0001F05B1F7DF91CF911F910F91FF90EF901A
:100CE00008958770806B0E944B060895CF93C82F9C
:100CF00082958F7080610E944B068C2F8F700E94AE
:100D00004B06CF91089580E00E94710680E00E941A
:100D1000760608958EEA0E944B0681EA0E944B06F1
:100D20008AED0E944B0682E10E944B0688EC0E94ED
:100D30004B0688EA0E944B068FE30E944B0685ED26
:100D40000E944B0680E80E944B0681E80E944B06F9
:100D500080E50E944B0689ED0E944B0681E20E94CD
:100D60004B0680E20E944B0682E00E944B068BED10
:100D70000E944B0680E30E944B068DEA0E944B06C0
:100D800080E00E944B0684EA0E944B0686EA0E949D
:100D90004B068FEA0E944B0608958F929F92BF9256
:100DA000CF92DF92EF92FF920F931F93CF93DF9337
:100DB000CDB7DEB7C058D1090FB6F894DEBF0FBE6D
:100DC000CDBFCE0101964C01EE24FF24E81AF90AAA
:100DD000B12C6E0191E8C90ED11C8B2D0E947106B9
:100DE00080E00E9476068401C8018E0D9F1D0E943E
:100DF000F809F80181938F01EC15FD05A9F760E86A
:100E000070E0CE0101960E945106B394F0E8EF0E17
:100E1000F11C88E0B812E1CFC058DF4F0FB6F8944C
:100E2000DEBF0FBECDBFDF91CF911F910F91FF901D
:100E3000EF90DF90CF90BF909F908F9008958F920A
:100E40009F92AF92BF92CF92DF92EF92FF920F9359
:100E50001F93CF93DF935C0100E010E00F2EF0E7CB
:100E60008F2EF1E09F2EF02D0F2EF8E7CF2EF1E020
:100E7000DF2EF02DD5018D915D0180528036F8F482
:100E8000C0E0D0E07D01B1E0EB1AF108D701EC91B0
:100E9000F0E0B097EE0FFF1FEE0FFF1FEE0FFF1FEA
:100EA000EC0FFD1FE059FE4F6491CE01800F911FA2
:100EB0000E94E8092196C830D10541F710C0C0E76B
:100EC000D1E07801E818F908FE016491C7018C0FA0
:100ED0009D1F0E94E8092196CC16DD06A9F7085F40
:100EE0001F4F0115F4E01F0709F0C4CFDF91CF9128
:100EF0001F910F91FF90EF90DF90CF90BF90AF9038
:100F00009F908F9008958F929F92BF92CF92DF9281
:100F1000EF92FF920F931F93CF93DF93883008F0E7
:100F20005EC0FB0190E8899F6001112480818823C5
:100F300009F447C076018B01B12C0AC00F5F1F4F27
:100F4000A8E0EA0EF11CF8018081882309F43AC078
:100F5000C0E0D0E0D801EC91F0E0B097EE0FFF1FB9
:100F6000EE0FFF1FEE0FFF1FEC0FFD1FE059FE4FAE
:100F70006491C7018C0F9D1F0E94E8092196C8301B
:100F8000D10541F7B394B0E1BB12D8CF28C0FE0120
:100F90006491C8018C0F9D1F0E94E8092196CE150F
:100FA000DF05A9F7B394FFE0FB15C8F0C0E7D1E077
:100FB000860188E0B89E000D111D11240819190939
:100FC000E6CFB12C0F2EF0E78F2EF1E09F2EF02D03
:100FD0000F2EF8E7EF2EF1E0FF2EF02DE7CFDF9197
:100FE000CF911F910F91FF90EF90DF90CF90BF9026
:100FF0009F908F900895EF92FF920F931F93CF933E
:10100000DF93883070F5603160F5282F862F90E0EF
:1010100030E1239F800D911D1124880F991F880FA7
:10102000991F880F991F042F10E000521109000F1B
:10103000111F000F111F000F111F7C0128E0E20E8D
:10104000F11CEC01081B190BF801EC0FFD1FE05916
:10105000FE4F6491CE010E94E8092196CE15DF056E
:1010600099F7DF91CF911F910F91FF90EF90089525
:101070000F931F93CF93DF93803448F566233CF1A1
:10108000042F182F869586958695C62FD0E090E878
:10109000899FC00DD11D1124CE010E94F80917703F
:1010A000002349F061E070E002C0660F771F1A95D7
:1010B000E2F7682B09C061E070E002C0660F771F9D
:1010C0001A95E2F760956823CE010E94E809DF9146
:1010D000CF911F910F910895CF93DF93CDB7DEB7D6
:1010E000C058D1090FB6F894DEBF0FBECDBFCE01F8
:1010F000019620E8FC0111922A95E9F70E941F074A
:10110000C058DF4F0FB6F894DEBF0FBECDBFDF91E2
:10111000CF9108956F927F928F929F92AF92BF92DC
:10112000CF92DF92EF92FF920F931F93CF93DF93B3
:10113000C82FD62F942E622E842F90E08C1B9109FD
:101140007C0122F4EE24FF24E81AF90A862D90E0AF
:101150008D1B91095C0122F4AA24BB24A81AB90AA8
:10116000C91518F088248A9402C088248394D6155F
:1011700018F077247A9402C07724739487010A19AF
:101180001B09CC24DD24CA18DB0841E06C2F8D2F0D
:101190000E943808C91102C0D61581F0C801880F15
:1011A000991FC816D9061CF40A191B09C80D8E15FB
:1011B0009F055CF70E0D1F1DD70DE7CFDF91CF9177
:1011C0001F910F91FF90EF90DF90CF90BF90AF9065
:1011D0009F908F907F906F9008959F92AF92BF9253
:1011E000CF92DF92EF92FF920F931F93CF93DF93F3
:1011F000982EC62EC42FD0E0A12CB12C00E010E018
:1012000041E0FC2EF90C6F2DDC2CD00E8D2D0E94B0
:10121000380841E0E92CEC1A6E2D8D2D0E9438081B
:1012200041E06F2DFC2CF01A8F2D0E94380841E010
:101230006E2D8F2D0E94380841E0F92CF00E6F2D95
:10124000DC2EDC0C8D2D0E94380841E0E92CE01AE0
:101250006E2D8D2D0E94380841E06F2DFC2CFC1A5C
:101260008F2D0E94380841E06E2D8F2D0E94380886
:101270001A141B045CF00F5F1F4FC801880F991FE1
:101280000196A80EB91E1A141B043CF42197CE0136
:10129000880F991F0196A81AB90AC017D1070CF038
:1012A000AFCFDF91CF911F910F91FF90EF90DF9023
:1012B000CF90BF90AF909F9008950F931F93CF93BF
:1012C000DF93082F162FD22FC82FC40F262F4C2F95
:1012D0000E948A08D10F2D2F4C2F6D2F802F0E9436
:1012E0008A082D2F402F612F802F0E948A082D2FD2
:1012F0004C2F612F8C2F0E948A08DF91CF911F9174
:101300000F9108951F920F920FB60F9211248F9391
:101310009F93AF93BF938091BD019091BE01A09127
:10132000BF01B091C0010196A11DB11D8093BD0107
:101330009093BE01A093BF01B093C001BF91AF9144
:101340009F918F910F900FBE0F901F9018958091D5
:10135000BD019091BE01A091BF01B091C0012CB51B
:101360003DB5DC0199278827BC01CD01620F731FB1
:10137000811D911D08950E94A70923E333E140E0F8
:1013800050E00E943C0ACA01B90108951FBC81E0E7
:101390008EBD80E889BF1DBC1CBC08951DBC1CBC53
:1013A0001092BD011092BE011092BF011092C001B7
:1013B00008958FEF8ABB8FE084BB8E9A8F9A319A03
:1013C00085B7806885BF10BE80B7806280BF0895F2
:1013D000CF93DF9300D0CDB7DEB79A838983E981BD
:1013E000FA81F85E60830F900F90DF91CF9108959E
:1013F000CF93DF9300D0CDB7DEB79A838983E9819D
:10140000FA81F85E80810F900F90DF91CF9108955F
:10141000CF93DF9300D0CDB7DEB79A838983E9817C
:10142000FA81F05F60830F900F90DF91CF91089564
:10143000CF93DF9300D0CDB7DEB79A838983E9815C
:10144000FA81F05F80810F900F90DF91CF91089526
:1014500097FB072E16F4009407D077FD09D00E9461
:101460005E0A07FC05D03EF4909581959F4F089544
:10147000709561957F4F0895A1E21A2EAA1BBB1BA0
:10148000FD010DC0AA1FBB1FEE1FFF1FA217B30750
:10149000E407F50720F0A21BB30BE40BF50B661F66
:1014A000771F881F991F1A9469F76095709580952A
:1014B00090959B01AC01BD01CF010895AA1BBB1BF8
:1014C00051E107C0AA1FBB1FA617B70710F0A61B44
:1014D000B70B881F991F5A95A9F780959095BC0165
:1014E000CD010895FB01DC014150504048F00590CA
:1014F0000D920020C9F701C01D9241505040E0F705
:101500000895FB01DC014150504048F001900D92DC
:101510000020C9F701C01D9241505040E0F70895E6
:04152000F894FFCF6D
:10152400000000010000000000004F030000000064
:101534000002000000004603000000000153746133
:1015440072746172207370656C65742E2E2E005651
:1015540069736572206B72656469747461722E2E8E
:101564002E004176736C75747461722E2E2E0055A4
:1015740067796C6469672076616C6700456E647294
:101584006572206C7964696E6E7374696C6C696ED3
:101594006761722E2E2E00456E64726572206C791E
:1015A40073737479726B652E2E2E00456E647265AA
:1015B40072206B6F6E74726F6C6C61722E2E2E00C3
:1015C4004974656D20312076616C677400497465D7
:0A15D4006D20322076616C67740010
:00000001FF
