S0130000526F7361456C6566616E742E73726563BD
S214080000D8080020650108006101080061010800A1
S2140800106101080061010800610108000000000095
S2140800200000000000000000000000006101080059
S214080030610108000000000061010800C50808000A
S21408004061010800610108006101080061010800FB
S21408005061010800610108006101080061010800EB
S2140800604106080061010800000000006101080060
S2140800706101080061010800610108000000000035
S2140800800000000061010800610108006101080025
S21408009061010800610108006101080061010800AB
S2140800A06101080000000000610108006101080005
S2140800B0610108006101080061010800610108008B
S2140800C0610108006101080061010800610108007B
S2140800D0610108006101080061010800610108006B
S2140800E0610108006101080061010800F9020800C2
S2140800F06101080010B5054C237833B9044B13B1D9
S2140801000448AFF300800123237010BD3804002094
S21408011000000000D01408000C4B43B10C4810B582
S2140801200C49AFF300800C48036823B910BD0A4891
S214080130036833B97047094B002BF7D0BDE8104069
S2140801401847064B002BF5D0184700BF00000000E4
S214080150D01408003C040020D0140800000000005A
S214080160FEE7000008B5114B114A9A4209D00F4B1A
S2140801700F4A03E011681960043304320D498B42B4
S214080180F8D30D4B02E000221A6004330B4A934260
S214080190F9D30B4B23F0604323F07F03094A93609F
S2140801A0094B9847094B9847FEE700BF0000002018
S2140801B0D01408003404002038040020D40400209A
S2140801C00000080000ED00E0AD1208000107080076
S2140801D04FF48063204A136002F5007213601F4BC9
S2140801E01B6A13F0807F07D11D4A1C4B1A621B4BF3
S2140801F09B6E13F0010FFAD01A4A184B1A62174B67
S2140802009B6E13F4803FFAD0144A136B23F0030353
S21408021043F001031363114B9B6E13F0080FFAD0DB
S214080220114A0E4B9A620D4B9B6E13F0020FFAD0D2
S21408023011220A4B1A63094B9B6E13F0080FFAD06B
S2140802401222064B1A63054B9B6E13F0080FFAD062
S214080250064A074B1A607047000A0E4000060E4012
S2140802600908370009083701013F0D2000BD0105C0
S214080270000000204B0103F1402303F53023D3F898
S214080280103213F4000F33D070B44B0103F140233F
S21408029003F53023D3F81442D3F81822D3F80852BB
S2140802A0C5F38A450580D3F81052C5F30345857013
S2140802B0002303E0C618F270120A0133AB4205DACF
S2140802C0032BF7DCC618F470240AF6E7094B01F18D
S2140802D0100252014FF08070985003EB4111D1F88C
S2140802E01C3243F40003C1F81C32002070BC70476F
S2140802F00120704700400B4010B584B0154B1C69B0
S21408030014F0060F19D014F0020F08D114F0040FD9
S2140803100AD0022101A8104B9847002309E00121C2
S21408032001A80D4B9847F8E70C480D4B9847F4E79B
S21408033001339DF806209342FADB14F0010F02D031
S2140803400122044B9A604FF40062064BC3F88421DE
S21408035004B010BD00400B40750208001C140800CD
S214080360F905080000E100E008B5C8B2014B984757
S21408037008BD00BF1D0608002DE9F04107460E46D9
S214080380151E02DD0A46002104E04FF020080EE0A4
S2140803900131013210780028FAD1A94201DA6D1A23
S2140803A000E0002513F0020F06D14FF0200813F0E6
S2140803B001040AD0002410E04FF03008F7E7414661
S2140803C038460D4B98470134013D002DF7DC04E014
S2140803D03846094B98470134013631780029F7D159
S2140803E005E041463846044B98470134013D002D48
S2140803F0F7DC2046BDE8F08169030800F0B585B053
S21408040007460C9851B11E460C4613B10A2A12D05C
S214080410002604AD002305F8013D18E030238DF8CA
S214080420043000238DF805300B9B0A9A01A938463C
S2140804301B4CA04729E0002901DB0026E9E74C42CF
S2140804400126E6E7303305F8013DB4FBF2F44CB17B
S214080450B4FBF2F302FB1343092BF3DDA0F13A01D8
S2140804600B44EFE756B10A9B1BB10B9B13F0020F28
S2140804700DD12D2305F8013C013D00260B9B0A9A59
S21408048029463846064CA047304405B0F0BD2D2115
S2140804903846044B98470A9B013B0A93EEE700BF91
S2140804A07903080069030800F0B589B006460C46CB
S2140804B00592002581E0A21C01238BE0013443F05D
S2140804C002032278302AF9D0002206E002EB8202E4
S2140804D05000A1F13002024401342178A1F1300025
S2140804E0C0B20928F2D9732918D0642922D07829ED
S2140804F02FD058293CD0752949D063295CD1059955
S214080500081D059009788DF81C1000218DF81D101F
S21408051007A93046344FB84705444DE00599081DED
S2140805200590096821B130462F4FB847054443E087
S2140805302E49F8E70599081D05900968612002907C
S2140805400193009201230A223046294FB8470544F2
S21408055032E00599081D059009686120029001930C
S2140805600092002310223046214FB847054423E066
S2140805700599081D0590096841200290019300928C
S2140805800023102230461A4FB847054414E0059950
S214080590081D0590096861200290019300920023C7
S2140805A00A223046124FB847054405E0144621781B
S2140805B03046104B984701350134237863B1252B14
S2140805C0F5D1621C63783BB1252BEFD02D2B3FF479
S2140805D072AF0023144674E716B1336800221A7007
S2140805E0284609B0F0BD00BF790308004814080083
S2140805F0FD030800690308000FB400B583B004AA19
S21408060052F8041B01920020034B984703B05DF88C
S21408061004EB04B0704700BFA9040800074B5B69E9
S21408062013F0020F08D0054BD861044B5B6913F42E
S214080630007FFAD0002070470120704700080E405F
S21408064008B5154B5B6913F0E00F03D04FF4A8719B
S214080650114A116013F0010F12D010484278531C4B
S214080660594203F03F0301F03F0158BF4B4201785F
S2140806708B4206D00849886908490A4490704B702E
S21408068008BD0748074B9847044B5978024A9269B1
S2140806900B449A7008BD00BF00080E406004002096
S2140806A050140800F9050800114B1A6F42F400525E
S2140806B01A675A6842F400525A60A3F520630D4A36
S2140806C0C3F80C21D3F8002142F01002C3F8002129
S2140806D0094B5A6842F002025A6054221A600B22EA
S2140806E0C3F8202244F62062C3F82C22704700BFC5
S2140806F000100E40240000100040094000000000D2
S21408070070B52B4B98474FF416512A482A4B9847F2
S2140807102A4B98473BE020462946294B9847142001
S2140807200021284B9847284B98471BA3D3E900235A
S21408073020462946254CA04704460D4618A3D3E96B
S214080740002320462946224EB0470028E3D114A5A8
S214080750D5E9004512E020462946194B984714204B
S2140807600021184B9847184B98470BA3D3E900234A
S21408077020462946174CA04704460D460AA3D3E947
S214080780002320462946144EB0470028E3D106A584
S214080790D5E90045D2E700BF7B14AE47E17A843F2F
S2140807A0CDCCCCCCCCCC0040CDCCCCCCCCCCEC3F3F
S2140807B0D101080000BD010571090800DD07080021
S2140807C0E90708002109080055090800D5090800A6
S2140807D031120800D10908004512080008B5014B77
S2140807E0984708BDA90608002DE9F84304460D46B3
S2140807F019A3D3E900231C4EB04758B918A3D3E968
S214080800002320462946194EB04730B114A5D5E92D
S214080810004502E010A5D5E900450022144B204605
S2140808202946144EB04780468946134ED6F82C0201
S214080830124B984742464B46114FB847114B9847BC
S214080840D6F82C12091AC6F8281222462B460E4845
S2140808500E4CA047BDE8F883CDCCCCCCCCCCEC3F36
S214080860CDCCCCCCCCCC00401D12080059120800C8
S214080870000034408D0F0800004009404D0C080069
S214080880390D08006D12080070140800F9050800F4
S214080890094AD368DB00002108480360416023F05A
S2140808A07F43013B536091602021054B83F823105A
S2140808B007231360704700BF10E000E0A80400207C
S2140808C000ED00E030B40649D1E900230548D0E938
S2140808D0004512196B41C1E9002330BC704700BFC0
S2140808E058040020A80400204DF804BD094BD3E99D
S2140808F000230949D1E9000112184B4107498868C5
S214080900B2EB000B63F1000C584661465DF804BB79
S214080910704700BF58040020A804002010E000E03C
S214080920054A1368526800FB02F201FB0322A3FB88
S21408093000011144704700BFA804002038B50446DB
S2140809400D46034B9847A94208BFA042F9D338BDC5
S214080950E908080038B504460D46034B98470019C1
S2140809606941024B984738BDE90808003D09080068
S214080970124A136943F480731361114B5A6842F4A0
S21408098040725A601A6F22F440721A67A3F5C06361
S2140809901A6842F050021A605A6842F400625A60B6
S2140809A00009B0FBF1F119624FF0FF32DA60E1227C
S2140809B09A604FF48072034B1A60704700060E4028
S2140809C0000E0E4000E100E081F0004102E000BFAA
S2140809D083F0004330B54FEA41044FEA430594EAF2
S2140809E0050F08BF90EA020F1FBF54EA000C55EA2D
S2140809F0020C7FEA645C7FEA655C00F0E2804FEAFE
S214080A005454D4EB5555B8BF6D420CDD2C4480EADF
S214080A10020281EA030382EA000083EA010180EA0F
S214080A20020281EA0303362D88BF30BD11F0004F5D
S214080A304FEA01314FF4801C4CEA113102D0404293
S214080A4061EB410113F0004F4FEA03334CEA1333CE
S214080A5002D0524263EB430394EA050F00F0A780E6
S214080A60A4F10104D5F1200E0DDB02FA0EFC22FAE1
S214080A7005F2801841F1000103FA0EF2801843FAD5
S214080A8005F359410EE0A5F120050EF1200E012AC6
S214080A9003FA0EFC28BF4CF0020C43FA05F3C01804
S214080AA051EBE37101F0004507D54FF0000EDCF17D
S214080AB0000C7EEB00006EEB0101B1F5801F1BD326
S214080AC0B1F5001F0CD349085FEA30004FEA3C0C2A
S214080AD004F101044FEA445212F5800F80F09A8020
S214080AE0BCF1004F08BF5FEA500C50F1000041EB24
S214080AF0045141EA050130BD5FEA4C0C404141EB28
S214080B00010111F4801FA4F10104E9D191F0000F4E
S214080B1004BF01460020B1FA81F308BF2033A3F1D1
S214080B200B03B3F120020CDA0C3208DD02F1140CC8
S214080B30C2F10C0201FA0CF021FA02F10CE002F103
S214080B401402D8BFC2F1200C01FA02F120FA0CFCFC
S214080B50DCBF41EA0C019040E41AA2BF01EB045145
S214080B60294330BD6FEA04041F3C1CDA0C340EDC43
S214080B7004F11404C4F1200220FA04F001FA02F386
S214080B8040EA030021FA04F345EA030130BDC4F144
S214080B900C04C4F1200220FA02F001FA04F340EA39
S214080BA00300294630BD21FA04F0294630BD94F0EA
S214080BB0000F83F4801306BF81F480110134013DD1
S214080BC04EE77FEA645C18BF7FEA655C29D094EA42
S214080BD0050F08BF90EA020F05D054EA000C04BFC0
S214080BE01946104630BD91EA030F1EBF00210020AB
S214080BF030BD5FEA545C05D14000494128BF41F04A
S214080C00004130BD14F580043CBF01F5801130BDAD
S214080C1001F0004545F0FE4141F470014FF0000038
S214080C2030BD7FEA645C1ABF194610467FEA655CE9
S214080C301CBF0B46024650EA013406BF52EA03358B
S214080C4091EA030F41F4002130BD00BF90F0000F79
S214080C5004BF0021704730B54FF4806404F13204B5
S214080C604FF000054FF0000150E700BF90F0000F6E
S214080C7004BF0021704730B54FF4806404F1320495
S214080C8010F0004548BF40424FF000013EE700BF65
S214080C9042004FEAE2014FEA31014FEA02701FBFF5
S214080CA012F07F4393F07F4F81F06051704792F0C7
S214080CB0000F14BF93F07F4F704730B54FF4607441
S214080CC001F0004521F0004120E700BF50EA01028C
S214080CD008BF704730B54FF000050AE050EA010239
S214080CE008BF704730B511F0004502D5404261EBA9
S214080CF041014FF4806404F132045FEA915C3FF4EA
S214080D00DCAE4FF003025FEADC0C18BF03325FEA82
S214080D10DC0C18BF033202EBDC02C2F1200300FA37
S214080D2003FC20FA02F001FA03FE40EA0E0021FA5C
S214080D3002F11444C1E600BF70B54FF0FF0C4CF446
S214080D40E06C1CEA11541DBF1CEA135594EA0C0FFC
S214080D5095EA0C0F00F0DEF82C4481EA030621EA37
S214080D604C5123EA4C5350EA013518BF52EA033572
S214080D7041F4801143F4801338D0A0FB02CE4FF024
S214080D800005E1FB02E506F00042E0FB03E54FF054
S214080D900006E1FB03569CF0000F18BF4EF0010E4C
S214080DA0A4F1FF04B6F5007F64F5407404D25FEA48
S214080DB04E0E6D4146EB060642EAC62141EA5551FB
S214080DC04FEAC52040EA5E504FEACE2EB4F1FD0C3D
S214080DD088BFBCF5E06F1ED8BEF1004F08BF5FEABB
S214080DE0500E50F1000041EB045170BD06F000466D
S214080DF046EA010140EA020081EA0301B4EB5C041A
S214080E00C2BFD4EB0C0541EA045170BD41F4801111
S214080E104FF0000E013C00F3AB8014F1360FDEBF36
S214080E20002001F0004170BDC4F10004203C35DA12
S214080E300C341BDC04F11404C4F1200500FA05F395
S214080E4020FA04F001FA05F240EA020001F0004236
S214080E5021F0004110EBD37021FA04F642EB0601AC
S214080E605EEA430E08BF20EAD37070BDC4F10C04D6
S214080E70C4F1200500FA04F320FA05F001FA04F29A
S214080E8040EA020001F0004110EBD37041F1000186
S214080E905EEA430E08BF20EAD37070BDC4F1200591
S214080EA000FA05F24EEA020E20FA04F301FA05F2F9
S214080EB043EA020321FA04F001F0004121FA04F2A1
S214080EC020EA020000EBD3705EEA430E08BF20EA71
S214080ED0D37070BD94F0000F0FD101F000464000AB
S214080EE041EB010111F4801F08BF013CF7D041EA2D
S214080EF0060195F0000F18BF704703F00046520031
S214080F0043EB030313F4801F08BF013DF7D043EA01
S214080F100603704794EA0C0F0CEA135518BF95EAB7
S214080F200C0F0CD050EA410618BF52EA4306D1D13E
S214080F3081EA030101F000414FF0000070BD50EA5D
S214080F40410606BF1046194652EA430619D094EAE7
S214080F500C0F02D150EA013613D195EA0C0F05D1D1
S214080F6052EA03361CBF104619460AD181EA030125
S214080F7001F0004141F0FE4141F470014FF00000DD
S214080F8070BD41F0FE4141F4780170BD70B54FF078
S214080F90FF0C4CF4E06C1CEA11541DBF1CEA1355F8
S214080FA094EA0C0F95EA0C0F00F0A7F8A4EB0504DA
S214080FB081EA030E52EA03354FEA013100F08880D1
S214080FC04FEA03334FF0805545EA131343EA12639A
S214080FD04FEA022245EA111545EA10654FEA00264F
S214080FE00EF000419D4208BF964244F1FD0404F508
S214080FF0407402D25B084FEA3202B61A65EB030564
S2140810005B084FEA32024FF480104FF4002CB6EB20
S214081010020E75EB030E22BFB61A754640EA0C00A0
S2140810205B084FEA3202B6EB020E75EB030E22BFE0
S214081030B61A754640EA5C005B084FEA3202B6EB21
S214081040020E75EB030E22BFB61A754640EA9C00E0
S2140810505B084FEA3202B6EB020E75EB030E22BFB0
S214081060B61A754640EADC0055EA060E18D04FEA6E
S214081070051545EA16754FEA06164FEAC30343EA0E
S21408108052734FEAC2025FEA1C1CC0D111F4801FDB
S2140810900BD141EA00014FF000004FF0004CB6E7D4
S2140810A011F4801F04BF01430020B4F1FD0C88BF73
S2140810B0BCF5E06F3FF6AFAEB5EB030C04BFB6EB7E
S2140810C0020C5FEA500C50F1000041EB045170BD71
S2140810D00EF0004E4EEA113114EB5C04C2BFD4EB9E
S2140810E00C0541EA045170BD41F480114FF0000E22
S2140810F0013C90E645EA060E8DE60CEA135594EA9E
S2140811000C0F08BF95EA0C0F3FF43BAF94EA0C0FA0
S2140811100AD150EA01347FF434AF95EA0C0F7FF415
S21408112025AF104619462CE795EA0C0F06D152EA69
S21408113003353FF4FDAE1046194622E750EA41064D
S21408114018BF52EA43067FF4C5AE50EA41047FF45E
S2140811500DAF52EA43057FF4EBAE12E74FF0FF3CC3
S21408116006E000BF4FF0010C02E000BF4FF0010C94
S2140811704DF804CD4FEA410C7FEA6C5C4FEA430C0D
S21408118018BF7FEA6C5C1BD001B050EA410C0CBF5C
S21408119052EA430C91EA030F02BF90EA020F0020BE
S2140811A0704710F1000F91EA030F58BF994208BF25
S2140811B090422CBFD8176FEAE37040F001007047E2
S2140811C04FEA410C7FEA6C5C02D150EA013C07D139
S2140811D04FEA430C7FEA6C5CD6D152EA033CD3D084
S2140811E05DF8040B704700BF8446104662468C467E
S2140811F01946634600E000BF01B5FFF7B7FF0028B1
S21408120048BF10F1000F01BD4DF808EDFFF7F4FFD9
S2140812100CBF012000205DF808FB00BF4DF808ED64
S214081220FFF7EAFF34BF012000205DF808FB00BF87
S2140812304DF808EDFFF7E0FF94BF012000205DF8A9
S21408124008FB00BF4DF808EDFFF7CEFF94BF01205E
S21408125000205DF808FB00BF4DF808EDFFF7C4FF57
S21408126034BF012000205DF808FB00BF4A0011D2F9
S21408127012F5001211D20DD56FF47873B3EB6252E3
S2140812800ED44FEAC12343F0004343EA505323FAEF
S21408129002F070474FF00000704750EA013002D164
S2140812A04FF0FF3070474FF00000704770B50F4E94
S2140812B00F4D761BB61018BF002405D0013455F81C
S2140812C0043B9847A642F9D10A4E0B4D00F0ECF8BD
S2140812D0761BB61018BF002406D0013455F8043B18
S2140812E09847A642F9D170BD70BD00BFB414080077
S2140812F0B4140800C0140800B4140800024B13B154
S214081300024800F005B87047000000001D130800EA
S214081310002301461A46184600F01EB838B50A4C8F
S2140813200A4D641BA4100AD004F18043013B05EB68
S2140813308305013C55F804399847002CF9D1BDE8D7
S214081340384000F0BDB800BFD0140800CC14080020
S214081350704700BF704700BF2DE9F8432C4D06467E
S214081360286898460F469146FFF7F2FF294B1C68F7
S214081370D4F84831002B3ED05A681F2A1CDC02F1EC
S214081380010E76B1012103EB8204C4F88890D3F8E5
S214081390880191400843022EC3F88801C4F80881E2
S2140813A023D00232C3F804E0286843F82270FFF717
S2140813B0D1FF0020BDE8F883174B0BB34FF4C87075
S2140813C0AFF300800346D8B10020D4F848114FF098
S2140813D0010E586019600246C4F84831C3F88801FF
S2140813E0C3F88C01002EDCD0CCE7D3F88C0101437F
S2140813F0C3F88C11D5E704F5A673C4F84831BBE7E3
S2140814002868FFF7A7FF4FF0FF30BDE8F88300BF56
S21408141030040020A41408000000000043414E30A9
S214081420206D65737361676520617272697665649D
S21408143020696E206E6F6E2D75736564206D616908
S2140814406C626F780A0D0000286E756C6C290000B7
S2140814504552523A205541525420525820627566D9
S2140814606665722069732066756C6C0A0D0000004C
S2140814704E792050574D2064757479206379636CD3
S2140814806520736574742074696C3A202575207419
S21408149069636B732028666F72202566206D732932
S2140814A00A0D000008000020F8B500BFF8BC08BC0C
S2140814B09E467047FD1208001901080091080800AA
S2140814C0F8B500BFF8BC08BC9E467047F500080093
S2140814D000093D000000000000000000F4020020A3
S2140814E05C030020C4030020000000000000000089
S2140814F000000000000000000000000000000000DF
S21408150000000000000000000000000000000000CE
S21408151000000000000000000000000000000000BE
S21408152000000000000000000000000000000000AE
S214081530000000000000000000000000000000009E
S214081540000000000000000000000000000000008E
S214081550000000000000000000000000000000007E
S214081560000000000000000000000000000000006E
S214081570000000000000000000000000000000005E
S21408158001000000000000000E33CDAB34126DE6FB
S214081590ECDE05000B000000000000000000000064
S2140815A0000000000000000000000000000000002E
S2140815B0000000000000000000000000000000001E
S2140815C0000000000000000000000000000000000E
S2140815D000000000000000000000000000000000FE
S208081900B004002002
S804080000F3
