:0200000280007C
:10000000D8080020650108006101080061010800AE
:1000100061010800610108006101080000000000A2
:100020000000000000000000000000006101080066
:10003000610108000000000061010800E9070800F4
:100040006101080061010800610108006101080008
:1000500061010800610108006101080061010800F8
:10006000E9060800610108000000000061010800C5
:100070006101080061010800610108000000000042
:100080000000000061010800610108006101080032
:1000900061010800610108006101080061010800B8
:1000A0006101080000000000610108006101080012
:1000B0006101080061010800610108006101080098
:1000C0006101080061010800610108006101080088
:1000D0006101080061010800610108006101080078
:1000E000610108006101080061010800290408009D
:1000F0006101080010B5054C237833B9044B13B1E6
:100100000448AFF300800123237010BD38040020A1
:10011000000000007C0A08000C4B43B10C4810B5ED
:100120000C49AFF300800C48036823B910BD0A489E
:10013000036833B97047094B002BF7D0BDE8104076
:100140001847064B002BF5D0184700BF00000000F1
:100150007C0A08003C0400207C0A08000000000023
:10016000FEE7000008B5104A104B9A4210D100215A
:100170000F4B104A934214D30F4B104A23F06043A5
:1001800023F07F0393600E4B98470E4B9847FEE792
:100190000D49043A8B42EAD252F8040F43F8040B9B
:1001A000F8E743F8041BE5E77C0A0800000000209C
:1001B00038040020D40400200000080000ED00E016
:1001C0006908080039070800340400204FF48063F0
:1001D000174A1360C2F80032164B1A6AD20120D5B2
:1001E000154A1A629A6ED103FCD51A6B22F00302EB
:1001F00042F001021A639A6E1207FCD50F4A9A6206
:100200009A6E9007FCD511221A639A6E1107FCD5DD
:1002100012221A639A6E1207FCD5094A094B1A601A
:100220007047094A1A629A6ED007FCD5D8E700BF1A
:10023000000A0E4000060E4009083701013F0D205C
:1002400000BD01050000002009083700082898BFFC
:1002500008292DE9F04101EB000568D8082DD4BF2D
:1002600000230123002B62D14FF44071314F1E4611
:100270003A684FF0005E22F001023A603A692E4A75
:100280004FF0807C5164116FA2F5006221F00301F0
:10029000C2F870180321C2F80418C2F8641827497C
:1002A0004FF00108C2F80C11D2F8001141F40061BE
:1002B000C2F800110146224A7A61A94216DD0021E6
:1002C0004FF000554FF040761A4A814225DB4FF43B
:1002D000006153601B4B00205960102183F82B13E1
:1002E000136843F001031360BDE8F0814A0102F195
:1002F000402404F530243A44C4F80462C2F808E209
:10030000C4F800C2D2F81C4244F40004C2F81C42F3
:1003100008FA01F213430131CFE702EB4114C4F8AC
:10032000085201F11004640116510131CDE701209A
:10033000BDE8F08100400B40000E0E402B10001075
:100340002301420000E100E002210120004B184798
:100350004D020800490101F1402202F53022D2F895
:10036000103210B51B0220D50488114B01F1402139
:1003700003EA844343F00053C2F80832837801F55E
:100380003021072B84BF07238370D0F80330C1F8D6
:100390001432D0F80730C1F81832837800201B04DB
:1003A00043F40003C1F81C3210BD012010BD00BF92
:1003B0000000FC1FF0B54F0107F1402303F5302387
:1003C000D3F8102212022BD50024D3F81452D3F8FC
:1003D0001862D3F808220330C2F38A4220F8032CB3
:1003E000D3F81022C2F3034200F8012C94420EDB32
:1003F0004FF080720B4B103149015A503B44D3F8F7
:100400001C22002042F40002C3F81C22F0BD032C81
:10041000D5BF057006702D0A360A01340130E5E7B4
:100420000120F0BD00400B401FB50F4B1C6914F0BC
:10043000060F05D0A1070FD5012101A80B4B984746
:10044000E30742BF0122084B9A604FF40062084B59
:10045000C3F8842104B010BD620701D50221ECE786
:10046000044B05489847EBE700400B40B5030800F4
:1004700000E100E0AD060800D80908002DE9F843C6
:100480000C1E05462FDD0346581B13F8011B0029DF
:10049000FAD18442CCBF241A0C4612F0020F0CBFD2
:1004A00020263026D30724D42746DFF858905FFA59
:1004B00086F8002F19DC24EAE473E41ADFF844908C
:1004C0005F1B07EB050815F8010BA0B925460D4F7A
:1004D000F6B2002D11DC002CACBF08EB040008F1D3
:1004E0000000BDE8F8832026DCE74046C847013F0E
:1004F000DFE70023E2E7C847E3E73046B847013DBE
:10050000E7E700BFCD0608002DE9FF41DDF82880B0
:1005100015461F46044660B930238DF805008DF856
:1005200004304246394601A81A4B984704B0BDE84A
:10053000F0812AB10A291AD1002818DA012544428B
:10054000002304AE06F8013D0B9B3A3B8CB93DB14C
:10055000DFB118F0020F18D02D200F4B9847013F44
:100560004246394630460B4B98472844DEE7002583
:10057000E6E7B4FBF1F201FB1244092CC8BFE41812
:10058000303406F8014D1446E0E72D23013E337068
:100590000025E5E77D040800CD0608002DE9F04FB1
:1005A00080460E4614460025DFF8F8A0DFF8F890E4
:1005B0003A4F85B0337823B1252B65D17378701C01
:1005C00033B9B8F1000F63D1284605B0BDE8F08F0C
:1005D000252B58D02D2B0ABF01220022B01C0378F6
:1005E000411C302B18D000234FF00A0B017806462F
:1005F000A1F1300E5FFA8EFCBCF1090F00F1010091
:100600000ED973290FD120681946254B04340028D0
:1006100008BF1846C84711E042F002020846DEE76C
:100620000BFB03E3E2E764290BD161210092204632
:10063000012201910A2100680434B84705440136BB
:10064000B8E7782906D12046612101910092102156
:100650000022F0E7582902D120464121F5E775290B
:1006600005D161210092204601910022E2E7632931
:10067000E5D1216803A88DF80C10002104348DF811
:100680000D101946C6E706463078D0470135D6E743
:100690000022D8F800301A7096E700BF090508005C
:1006A000030A0800CD0608007D0408000FB407B552
:1006B00004AA52F8041B044B01920020984703B08F
:1006C0005DF804EB04B070479D050800054B5A69BE
:1006D000910705D5D8615A699205FCD5002070476D
:1006E0000120704700080E4038B50F4D6B6913F0BC
:1006F000E00F1CBF4FF4A8722A60DB0713D50B4C28
:1007000062782178531C03F03F038B4207D1084BDA
:10071000084898476278AB691444A37038BDA9694A
:1007200022449170637038BD00080E4060040020C0
:10073000AD0608000A0A0800F0B5134B85B09847CB
:100740004FF400420024114B4FF416515A601048E8
:10075000104B9847104B9847104A114B114F5A6154
:10076000114A01AB10685168104E03C39068104DD8
:100770001860002101A8B8470028FAD1E1B230463C
:10078000A8470134F5E700BFCD010800501A0E401C
:1007900000BD0105090808004903080034121100D2
:1007A00000400B4055030800280A0800340A0800DE
:1007B000AD0608000021094A0948D3684160DB0002
:1007C000036023F07F43013B536091602021054B80
:1007D00083F8231007231360704700BF10E000E088
:1007E000A804002000ED00E030B505490548D1E936
:1007F0000023D0E9004512196B41C1E9002330BD47
:1008000058040020A8040020144A00091369B0FB12
:10081000F1F143F480731361114B5A68A3F5C0637F
:1008200042F44072C3F80426D3F8702622F44072D2
:10083000C3F870261A6842F050021A605A6842F4EF
:1008400000625A604FF0FF321962DA60E1229A606A
:100850004FF48072034B1A60704700BF00060E40D1
:10086000000E0E4000E100E070B50F4E0F4D761BFC
:10087000B61018BF002405D0013455F8043B984742
:10088000A642F9D10A4E0B4D00F0E4F8761BB610E3
:1008900018BF002406D0013455F8043B9847A642FF
:1008A000F9D170BD70BD00BF600A0800600A080081
:1008B0006C0A0800600A0800024B13B1024800F0FD
:1008C00005B8704700000000D90808000023014661
:1008D0001A46184600F01EB838B50A4C0A4D641B7B
:1008E000A4100AD004F18043013B05EB8305013CD1
:1008F00055F804399847002CF9D1BDE8384000F08C
:10090000B5B800BF7C0A0800780A0800704700BF2D
:10091000704700BF2DE9F8432C4D064628689846DD
:100920000F469146FFF7F2FF294B1C68D4F8483177
:10093000002B3ED05A681F2A1CDC02F1010E76B152
:10094000012103EB8204C4F88890D3F88801914018
:100950000843022EC3F88801C4F8088123D002326C
:10096000C3F804E0286843F82270FFF7D1FF0020A5
:10097000BDE8F883174B0BB34FF4C870AFF300809A
:100980000346D8B10020D4F848114FF0010E58604A
:1009900019600246C4F84831C3F88801C3F88C01D5
:1009A000002EDCD0CCE7D3F88C010143C3F88C11C6
:1009B000D5E704F5A673C4F84831BBE72868FFF70C
:1009C000A7FF4FF0FF30BDE8F88300BF30040020E0
:1009D000500A08000000000043414E30206D65734E
:1009E00073616765206172726976656420696E2043
:1009F0006E6F6E2D75736564206D61696C626F78C2
:100A00000A0D00286E756C6C29004552523A20552B
:100A1000415254205258206275666665722069738F
:100A20002066756C6C0A0D0045000854727572449E
:100A30006574460053656E647465206D656C646909
:100A40006E67206E72202564206E6F210A0A0D00E9
:100A500008000020F8B500BFF8BC08BC9E467047EF
:100A6000B908080019010800B5070800F8B500BF6B
:0C0A7000F8BC08BC9E467047F50008006A
:100A7C0000093D000000000000000000F40200200E
:100A8C005C030020C40300200000000000000000F4
:100A9C00000000000000000000000000000000004A
:100AAC00000000000000000000000000000000003A
:100ABC00000000000000000000000000000000002A
:100ACC00000000000000000000000000000000001A
:100ADC00000000000000000000000000000000000A
:100AEC0000000000000000000000000000000000FA
:100AFC0000000000000000000000000000000000EA
:100B0C0000000000000000000000000000000000D9
:100B1C0000000000000000000000000000000000C9
:100B2C0001000000000000000E33CDAB34126DE666
:100B3C00ECDE05000B0000000000000000000000CF
:100B4C000000000000000000000000000000000099
:100B5C000000000000000000000000000000000089
:100B6C000000000000000000000000000000000079
:100B7C000000000000000000000000000000000069
:040EAC00B00400206E
:040000038000000079
:00000001FF
