:0200000280007C
:100000002009002065010800610108006101080065
:1000100061010800610108006101080000000000A2
:100020000000000000000000000000006101080066
:10003000610108000000000061010800991108003A
:100040006101080061010800610108006101080008
:1000500061010800610108006101080061010800F8
:1000600009070800610108000000000061010800A4
:100070006101080061010800610108000000000042
:100080000000000061010800610108006101080032
:1000900061010800610108006101080061010800B8
:1000A0006101080000000000610108006101080012
:1000B0006101080061010800610108006101080098
:1000C0006101080061010800610108006101080088
:1000D0006101080061010800610108006101080078
:1000E000610108006101080061010800290408009D
:1000F0006101080010B5054C237833B9044B13B1E6
:100100000448AFF300800123237010BD38040020A1
:1001100000000000B41E08000C4B43B10C4810B5A1
:100120000C49AFF300800C48036823B910BD0A489E
:10013000036833B97047094B002BF7D0BDE8104076
:100140001847064B002BF5D0184700BF00000000F1
:10015000B41E08003C040020B41E0800000000008B
:10016000FEE7000008B5104A104B9A4210D100215A
:100170000F4B104A934214D30F4B104A23F06043A5
:1001800023F07F0393600E4B98470E4B9847FEE792
:100190000D49043A8B42EAD252F8040F43F8040B9B
:1001A000F8E743F8041BE5E7B41E08000000002050
:1001B000380400201C0500200000080000ED00E0CD
:1001C000051B0800F90F0800340400204FF4806379
:1001D000174A1360C2F80032164B1A6AD20120D5B2
:1001E000154A1A629A6ED103FCD51A6B22F00302EB
:1001F00042F001021A639A6E1207FCD50F4A9A6206
:100200009A6E9007FCD511221A639A6E1107FCD5DD
:1002100012221A639A6E1207FCD5094A094B1A601A
:100220007047094A1A629A6ED007FCD5D8E700BF1A
:10023000000A0E4000060E4009083701013F0D205C
:1002400000BD01050000002009083700082898BFFC
:1002500008292DE9F04101EB000568D8082DD4BF2D
:1002600000230123002B62D14FF44071314F1E4611
:100270003A684FF0005E22F001023A603A692E4A75
:100280004FF0807C5164116FA2F5006221F00301F0
:10029000C2F870180321C2F80418C2F8641827497C
:1002A0004FF00108C2F80C11D2F8001141F40061BE
:1002B000C2F800110146224A7A61A94216DD0021E6
:1002C0004FF000554FF040761A4A814225DB4FF43B
:1002D000006153601B4B00205960102183F82B13E1
:1002E000136843F001031360BDE8F0814A0102F195
:1002F000402404F530243A44C4F80462C2F808E209
:10030000C4F800C2D2F81C4244F40004C2F81C42F3
:1003100008FA01F213430131CFE702EB4114C4F8AC
:10032000085201F11004640116510131CDE701209A
:10033000BDE8F08100400B40000E0E402B10001075
:100340006501290000E100E002210120004B18476F
:100350004D020800490101F1402202F53022D2F895
:10036000103210B51B0220D50488114B01F1402139
:1003700003EA844343F00053C2F80832837801F55E
:100380003021072B84BF07238370D0F80330C1F8D6
:100390001432D0F80730C1F81832837800201B04DB
:1003A00043F40003C1F81C3210BD012010BD00BF92
:1003B0000000FC1FF0B54F0107F1402303F5302387
:1003C000D3F8102212022BD50024D3F81452D3F8FC
:1003D0001862D3F808220330C2F38A4220F8032CB3
:1003E000D3F81022C2F3034200F8012C94420EDB32
:1003F0004FF080720B4B103149015A503B44D3F8F7
:100400001C22002042F40002C3F81C22F0BD032C81
:10041000D5BF057006702D0A360A01340130E5E7B4
:100420000120F0BD00400B401FB5134B1C6914F0B8
:10043000060F0DD0A10717D5012101A80F4B984732
:1004400001A90F480F4B984701A90F480F4B984738
:10045000E30742BF0122084B9A604FF400620C4B45
:10046000C3F8842104B010BD620701D50221E4E77E
:10047000084B09489847E3E700400B40B5030800E4
:1004800060040020E10E080070040020C508080088
:1004900000E100E0CD060800741C08002DE9F843D7
:1004A0000C1E05462FDD0346581B13F8011B0029BF
:1004B000FAD18442CCBF241A0C4612F0020F0CBFB2
:1004C00020263026D30724D42746DFF858905FFA39
:1004D00086F8002F19DC24EAE473E41ADFF844906C
:1004E0005F1B07EB050815F8010BA0B925460D4F5A
:1004F000F6B2002D11DC002CACBF08EB040008F1B3
:100500000000BDE8F8832026DCE74046C847013FED
:10051000DFE70023E2E7C847E3E73046B847013D9D
:10052000E7E700BFED0608002DE9FF41DDF8288070
:1005300015461F46044660B930238DF805008DF836
:1005400004304246394601A81A4B984704B0BDE82A
:10055000F0812AB10A291AD1002818DA012544426B
:10056000002304AE06F8013D0B9B3A3B8CB93DB12C
:10057000DFB118F0020F18D02D200F4B9847013F24
:100580004246394630460B4B98472844DEE7002563
:10059000E6E7B4FBF1F201FB1244092CC8BFE418F2
:1005A000303406F8014D1446E0E72D23013E337048
:1005B0000025E5E79D040800ED0608002DE9F04F51
:1005C00080460E4614460025DFF8F8A0DFF8F890C4
:1005D0003A4F85B0337823B1252B65D17378701CE1
:1005E00033B9B8F1000F63D1284605B0BDE8F08FEC
:1005F000252B58D02D2B0ABF01220022B01C0378D6
:10060000411C302B18D000234FF00A0B017806460E
:10061000A1F1300E5FFA8EFCBCF1090F00F1010070
:100620000ED973290FD120681946254B04340028B0
:1006300008BF1846C84711E042F002020846DEE74C
:100640000BFB03E3E2E764290BD161210092204612
:10065000012201910A2100680434B847054401369B
:10066000B8E7782906D12046612101910092102136
:100670000022F0E7582902D120464121F5E77529EB
:1006800005D161210092204601910022E2E7632911
:10069000E5D1216803A88DF80C10002104348DF8F1
:1006A0000D101946C6E706463078D0470135D6E723
:1006B0000022D8F800301A7096E700BF290508001C
:1006C0009F1C0800ED0608009D0408000FB407B544
:1006D00004AA52F8041B044B01920020984703B06F
:1006E0005DF804EB04B07047BD050800054B5A697E
:1006F000910705D5D8615A699205FCD5002070474D
:100700000120704700080E4038B50F4D6B6913F09B
:10071000E00F1CBF4FF4A8722A60DB0713D50B4C07
:1007200062782178531C03F03F038B4207D1084BBA
:10073000084898476278AB691444A37038BDA9692A
:1007400022449170637038BD00080E40760400208A
:10075000CD060800A61C0800114B1249D3F8E4206E
:1007600022F00102C3F8E420D1F8002142F0200277
:10077000C1F80021D1F8042842F00402C1F804288D
:100780004FF680725A6001221A6102221A604FF4F9
:10079000FA725A6400221A644FF080625A627047FB
:1007A00000000C4000060E400B4B82B01A6B0B4B46
:1007B00012F0806208D01A784AB909498A88013251
:1007C0008A8001221A7002E019780129FAD0024BBE
:1007D0001B6B019302B0704700000C4054040020D2
:1007E00070040020074AD2F8003143F00203C2F837
:1007F0000031054B054AC3F8C42001225A60052286
:100800001A60704700060E40008008400013200068
:10081000014B1869704700BF0080084000000000CD
:10082000012813D002D302281ED070470020184997
:10083000184BC3E9000100201749184BC3E9000118
:1008400000201749174BC3E900017047114B0EA157
:10085000D1E90001C3E90001002011490F4BC3E9B0
:10086000000100201049EDE700201049094BC3E9C1
:10087000000100200C49094BC3E9000100200C498C
:10088000E0E700BFAFF300800000000000C062405E
:1008900000005940C804002000001440B8040020A3
:1008A00000002440C004002000002E4000006940E9
:1008B000000034400223437005230370002383802B
:1008C000837070470A8803460A3A032A1DD8DFE876
:1008D00002F002080F178A78012A16D1CA781A7016
:1008E00070478A78012A10D1C8785870074B18478A
:1008F0008A78022A01BF0879CA7842EA00229A80DF
:100900008A78012A04BFCA789A70704721080800C3
:1009100010B5044B9847044B9847BDE81040034B73
:10092000184700BFA907080049100800810C0800FB
:100930007FB5224C224E22783AB9224B70789847E4
:100940003378B2806370012323701F4BDB78012B57
:1009500006D11E4B98470023B380237004B070BDAE
:100960003378B18862785B1A9A421BD00922002141
:10097000ADF804200122DBB263708DF8073001A8C6
:10098000134B8DF806208DF808108DF809108DF89E
:100990000A108DF80B108DF80C108DF80D108DF8D5
:1009A0000E10984765781DB9084B9847B58025709B
:1009B0002378012BD2D1074B9847CFE7550400206D
:1009C000700400202108080060040020290E08009F
:1009D00055030800110908002DE9F341464C47482A
:1009E000474D484EA047484F484B494A49494A4815
:1009F000A0474A48A047DFF8B8813B4632784849CB
:100A00002846A0473B46727846492846A0474346B9
:100A1000B27845492846A0474346F27843492846DC
:100A2000A0474346327942492846A0473B4672795F
:100A300040492846A0473B463F4FB2793F492846A8
:100A4000A0473B46B6F908203D492846A0473B460B
:100A5000B6F90A203B492846A047B6F90C203A4B84
:100A60003A492846A047F289394E3A4B3A49284636
:100A7000A0473278394B3A492846A047B288394BCB
:100A8000394E3A492846A047394D3A4B0096D3E9AA
:100A9000002339492846A047384B0096D3E9002364
:100AA00037492846A047374B0096D3E900233649FB
:100AB0002846A047354B0096D3E900233449284601
:100AC000A047344B0096D3E9002333492846A0477A
:100AD000324B0096D3E9002331492846A047314BD9
:100AE0000096D3E9002330492846A04723462F48E3
:100AF00002B0BDE8F0411847CD060800C41C08004C
:100B0000461D080060040020381D0800071D08006D
:100B10000D1D0800131D08001C1D0800C51C080041
:100B2000401D0800621D08006E1D0800731D0800AE
:100B3000781D08007F1D0800931D0800891D08000E
:100B4000A01D0800AB1D0800B61D0800BE1D080052
:100B500070040020C71D0800D11D0800E01D08001A
:100B6000E61D0800EC1D08001A1E0800F31D080011
:100B7000FC1D0800C8040020F91D0800B80400206E
:100B8000231E0800C0040020261E0800D8040020F0
:100B90002E1E0800E0040020291E0800E8040020A2
:100BA000341E0800D00400203D1E0800451E080029
:100BB000681D080010B50F4B98474FF400420E4BCC
:100BC0004FF416515A600D480D4B98470D480E4B87
:100BD00098470E480E4B98470E4B98470E4B984738
:100BE0000E4B98470E4B98470E4B9847BDE8104068
:100BF0000D4B1847CD010800501A0E4000BD0105ED
:100C0000B911080060040020C90E0800700400201B
:100C1000B508080049030800211008002D0C080041
:100C200059070800E5070800D9090800044B1A69AC
:100C300042F400021A611A6842F400021A60704716
:100C400000120E40F8B506460F46084C084BD4F883
:100C5000AC02984732463B46064EB047064B984793
:100C6000D4F8AC52281AC4F8A802F8BD00400940D4
:100C70009D14080089150800BD1A08000000000036
:100C80002DE9F04F504B85B0984741F216639842DA
:100C900028BF18464D4FB84747A3D3E900234C4E11
:100CA000B0474C4B04461B780D46002B69D14A4B8C
:100CB0005878B84742A3D3E90023B047474E2246AD
:100CC0002B46B04782468B46454D464B464CC3E9C2
:100CD00000ABD5E90023A04780468946C5E90089D5
:100CE000424D5046D5E900235946B0470A46CDE962
:100CF000000101463E4B5046C3E900123D4E002222
:100D000000235946B04700283ED04FF400023A4B2A
:100D10001A633A4B3A4ED3E9002350465946B0473E
:100D2000384BCDE90201D3E9002340464946B0479C
:100D300002460B46DDE90201A047334B8046D3E96A
:100D400000238946DDE90001B04702460B464046D4
:100D50004946A0472D4BC5E900AB98472C4B984717
:100D6000244E00222B4B04460D46B047C8B9002242
:100D7000002320462946284EB047A0B10024002574
:100D800011E00020254999E70022002350465946EA
:100D9000214EB0470028BCD04FF40002164B5A63D6
:100DA000B7E700241B4D204629461D4B05B0BDE882
:100DB000F04F1847AFF30080000000000016B64067
:100DC0000000000000E06F40110808009D140800BA
:100DD000DD170800570400206004002021120800DD
:100DE000E8040020D804002025120800E0040020B8
:100DF000D0040020A91A080000120E40C8040020E8
:100E000089150800B8040020C0040020FD1A08005D
:100E1000BD1408000000F03F6D1A08000000E03F1C
:100E2000450C0800000000002DE9F84F0FF268099A
:100E3000D9E90089002300221B491C4DC1E9002388
:100E40001B49C5E90023C1E900231A4940F2E93AE8
:100E5000C1E900230123184CDFF868B02370D5E9FD
:100E600000670FA3D3E9002330463946D84730B98D
:100E7000304642464B463946104EB04710B1BAF1A3
:100E8000010A03D100232370BDE8F88F0C4B98476B
:100E9000E5E700BFAFF300807B14AE47E17A84BF83
:100EA0007B14AE47E17A843FE0040020D8040020A0
:100EB000E8040020D0040020570400206D1A080028
:100EC000810C0800A91A0800002303704370837086
:100ED000C3700381438183810371C3817047000024
:100EE0000B88013B072B44D8DFE803F0040D1623E1
:100EF000292F353B8B78022B3BD10A79CB7843EAFB
:100F00000223438170478B78022B32D10A79CB7848
:100F100043EA0223038170478B78012B29D14FF4D8
:100F20000032CB780371012B124B0CBF5A631A634A
:100F300070478B78012B1CD1CB78037070478B786E
:100F4000012B16D1CB78437070478B78012B10D1D1
:100F5000CB78837070478B78012B0AD1CB78C37024
:100F600070478B78022B01BF0A79CB7843EA0223C2
:100F70008381704700120E401C4B0B211A6FA3F5A2
:100F8000206342F40052C3F8702AD3F8042A42F4D2
:100F90000052C3F8042AD3F8702C42F40022C3F89C
:100FA000702CD3F8042C42F40022C3F8042C104A0D
:100FB000C3F80C21D3F8002142F01002C3F800213D
:100FC0000C4B5A6842F002025A605A6842F0200202
:100FD0005A6054221A6044F62062C3F82012C3F803
:100FE0002C22C3F8A012C3F8AC22704700100E40A8
:100FF000240000100040094008B5054B9847054DF6
:10100000054E064CAB78012B00D1B047A047F9E75D
:10101000B50B0800700400203109080029040800FD
:1010200008B5064B9847064B1A6942F400321A611C
:101030001A6842F400321A6008BD00BF790F080038
:1010400000120E4000000000394B2DE9F047B3F9C3
:101050000800DFF808A1431C022BDFF804814BD9FC
:1010600005283DDD334B98470022334BD04726A35C
:10107000D3E90023C047314C0022314BA04704463E
:101080000D4623A3D3E90023204629462D4EB04721
:10109000002834D120A3D3E90023204629462A4E34
:1010A000B04710B11CA5D5E900450022274B2046CA
:1010B0002946D047264E0446D6F82C92254B484662
:1010C0000D46984702460B4620462946C047224B0C
:1010D0009847D6F82C72381AC6F82802BDE8F0876F
:1010E000431DCEDA134B98470DA3D3E90023D04715
:1010F0000DA3D3E90023BDE70024114DD5E704A5D6
:10110000D5E90045D1E700BF343333333333E33F10
:10111000CDCCCCCCCCCCEC3FCDCCCCCCCCCC0040D2
:1011200000000000002064C0333333333333E3BFA7
:1011300060040020BD14080000405740251208003C
:101140000000F83F6D1A0800A91A0800000034409A
:10115000004009409D140800BD1A0800DD17080072
:10116000891508000021094A0948D3684160DB005D
:10117000036023F07F43013B536091602021054BC6
:1011800083F8231007231360704700BF10E000E0CE
:10119000F004002000ED00E030B505490548D1E934
:1011A0000023D0E9004512196B41C1E9002330BD8D
:1011B00058040020F0040020144A00091369B0FB11
:1011C000F1F143F480731361114B5A68A3F5C063C6
:1011D00042F44072C3F80426D3F8702622F4407219
:1011E000C3F870261A6842F050021A605A6842F436
:1011F00000625A604FF0FF321962DA60E1229A60B1
:101200004FF48072034B1A60704700BF00060E4017
:10121000000E0E4000E100E081F0004102E000BF5E
:1012200083F0004330B54FEA41044FEA430594EAA6
:10123000050F08BF90EA020F1FBF54EA000C55EAE1
:10124000020C7FEA645C7FEA655C00F0E2804FEAB2
:101250005454D4EB5555B8BF6D420CDD2C4480EA94
:10126000020281EA030382EA000083EA010180EAC4
:10127000020281EA0303362D88BF30BD11F0004F12
:101280004FEA01314FF4801C4CEA113102D0404248
:1012900061EB410113F0004F4FEA03334CEA133383
:1012A00002D0524263EB430394EA050F00F0A7809B
:1012B000A4F10104D5F1200E0DDB02FA0EFC22FA96
:1012C00005F2801841F1000103FA0EF2801843FA8A
:1012D00005F359410EE0A5F120050EF1200E012A7B
:1012E00003FA0EFC28BF4CF0020C43FA05F3C018B9
:1012F00051EBE37101F0004507D54FF0000EDCF132
:10130000000C7EEB00006EEB0101B1F5801F1BD3DA
:10131000B1F5001F0CD349085FEA30004FEA3C0CDE
:1013200004F101044FEA445212F5800F80F09A80D4
:10133000BCF1004F08BF5FEA500C50F1000041EBD8
:10134000045141EA050130BD5FEA4C0C404141EBDC
:10135000010111F4801FA4F10104E9D191F0000F03
:1013600004BF01460020B1FA81F308BF2033A3F186
:101370000B03B3F120020CDA0C3208DD02F1140C7D
:10138000C2F10C0201FA0CF021FA02F10CE002F1B8
:101390001402D8BFC2F1200C01FA02F120FA0CFCB1
:1013A000DCBF41EA0C019040E41AA2BF01EB0451FA
:1013B000294330BD6FEA04041F3C1CDA0C340EDCF8
:1013C00004F11404C4F1200220FA04F001FA02F33B
:1013D00040EA030021FA04F345EA030130BDC4F1F9
:1013E0000C04C4F1200220FA02F001FA04F340EAEE
:1013F0000300294630BD21FA04F0294630BD94F09F
:10140000000F83F4801306BF81F480110134013D85
:101410004EE77FEA645C18BF7FEA655C29D094EAF6
:10142000050F08BF90EA020F05D054EA000C04BF74
:101430001946104630BD91EA030F1EBF002100205F
:1014400030BD5FEA545C05D14000494128BF41F0FE
:10145000004130BD14F580043CBF01F5801130BD62
:1014600001F0004545F0FE4141F470014FF00000ED
:1014700030BD7FEA645C1ABF194610467FEA655C9E
:101480001CBF0B46024650EA013406BF52EA033540
:1014900091EA030F41F4002130BD00BF90F0000F2E
:1014A00004BF0021704730B54FF4806404F132046A
:1014B0004FF000054FF0000150E700BF90F0000F23
:1014C00004BF0021704730B54FF4806404F132044A
:1014D00010F0004548BF40424FF000013EE700BF1A
:1014E00042004FEAE2014FEA31014FEA02701FBFAA
:1014F00012F07F4393F07F4F81F06051704792F07C
:10150000000F14BF93F07F4F704730B54FF46074F5
:1015100001F0004521F0004120E700BF50EA010240
:1015200008BF704730B54FF000050AE050EA0102ED
:1015300008BF704730B511F0004502D5404261EB5D
:1015400041014FF4806404F132045FEA915C3FF49E
:10155000DCAE4FF003025FEADC0C18BF03325FEA37
:10156000DC0C18BF033202EBDC02C2F1200300FAEC
:1015700003FC20FA02F001FA03FE40EA0E0021FA11
:1015800002F11444C1E600BF70B54FF0FF0C4CF4FB
:10159000E06C1CEA11541DBF1CEA135594EA0C0FB1
:1015A00095EA0C0F00F0DEF82C4481EA030621EAEC
:1015B0004C5123EA4C5350EA013518BF52EA033527
:1015C00041F4801143F4801338D0A0FB02CE4FF0D9
:1015D0000005E1FB02E506F00042E0FB03E54FF009
:1015E0000006E1FB03569CF0000F18BF4EF0010E01
:1015F000A4F1FF04B6F5007F64F5407404D25FEAFD
:101600004E0E6D4146EB060642EAC62141EA5551AF
:101610004FEAC52040EA5E504FEACE2EB4F1FD0CF1
:1016200088BFBCF5E06F1ED8BEF1004F08BF5FEA6F
:10163000500E50F1000041EB045170BD06F0004621
:1016400046EA010140EA020081EA0301B4EB5C04CE
:10165000C2BFD4EB0C0541EA045170BD41F48011C6
:101660004FF0000E013C00F3AB8014F1360FDEBFEB
:10167000002001F0004170BDC4F10004203C35DAC7
:101680000C341BDC04F11404C4F1200500FA05F34A
:1016900020FA04F001FA05F240EA020001F00042EB
:1016A00021F0004110EBD37021FA04F642EB060161
:1016B0005EEA430E08BF20EAD37070BDC4F10C048B
:1016C000C4F1200500FA04F320FA05F001FA04F24F
:1016D00040EA020001F0004110EBD37041F100013B
:1016E0005EEA430E08BF20EAD37070BDC4F1200546
:1016F00000FA05F24EEA020E20FA04F301FA05F2AE
:1017000043EA020321FA04F001F0004121FA04F255
:1017100020EA020000EBD3705EEA430E08BF20EA25
:10172000D37070BD94F0000F0FD101F0004640005F
:1017300041EB010111F4801F08BF013CF7D041EAE1
:10174000060195F0000F18BF704703F000465200E5
:1017500043EB030313F4801F08BF013DF7D043EAB6
:101760000603704794EA0C0F0CEA135518BF95EA6C
:101770000C0F0CD050EA410618BF52EA4306D1D1F3
:1017800081EA030101F000414FF0000070BD50EA12
:10179000410606BF1046194652EA430619D094EA9C
:1017A0000C0F02D150EA013613D195EA0C0F05D186
:1017B00052EA03361CBF104619460AD181EA0301DA
:1017C00001F0004141F0FE4141F470014FF0000092
:1017D00070BD41F0FE4141F4780170BD70B54FF02D
:1017E000FF0C4CF4E06C1CEA11541DBF1CEA1355AD
:1017F00094EA0C0F95EA0C0F00F0A7F8A4EB05048F
:1018000081EA030E52EA03354FEA013100F0888085
:101810004FEA03334FF0805545EA131343EA12634E
:101820004FEA022245EA111545EA10654FEA002603
:101830000EF000419D4208BF964244F1FD0404F5BC
:10184000407402D25B084FEA3202B61A65EB030518
:101850005B084FEA32024FF480104FF4002CB6EBD5
:10186000020E75EB030E22BFB61A754640EA0C0055
:101870005B084FEA3202B6EB020E75EB030E22BF95
:10188000B61A754640EA5C005B084FEA3202B6EBD6
:10189000020E75EB030E22BFB61A754640EA9C0095
:1018A0005B084FEA3202B6EB020E75EB030E22BF65
:1018B000B61A754640EADC0055EA060E18D04FEA23
:1018C000051545EA16754FEA06164FEAC30343EAC3
:1018D00052734FEAC2025FEA1C1CC0D111F4801F90
:1018E0000BD141EA00014FF000004FF0004CB6E789
:1018F00011F4801F04BF01430020B4F1FD0C88BF28
:10190000BCF5E06F3FF6AFAEB5EB030C04BFB6EB32
:10191000020C5FEA500C50F1000041EB045170BD25
:101920000EF0004E4EEA113114EB5C04C2BFD4EB52
:101930000C0541EA045170BD41F480114FF0000ED6
:10194000013C90E645EA060E8DE60CEA135594EA52
:101950000C0F08BF95EA0C0F3FF43BAF94EA0C0F55
:101960000AD150EA01347FF434AF95EA0C0F7FF4CA
:1019700025AF104619462CE795EA0C0F06D152EA1E
:1019800003353FF4FDAE1046194622E750EA410602
:1019900018BF52EA43067FF4C5AE50EA41047FF413
:1019A0000DAF52EA43057FF4EBAE12E74FF0FF3C78
:1019B00006E000BF4FF0010C02E000BF4FF0010C49
:1019C0004DF804CD4FEA410C7FEA6C5C4FEA430CC2
:1019D00018BF7FEA6C5C1BD001B050EA410C0CBF11
:1019E00052EA430C91EA030F02BF90EA020F002073
:1019F000704710F1000F91EA030F58BF994208BFDA
:101A000090422CBFD8176FEAE37040F00100704796
:101A10004FEA410C7FEA6C5C02D150EA013C07D1ED
:101A20004FEA430C7FEA6C5CD6D152EA033CD3D038
:101A30005DF8040B704700BF8446104662468C4632
:101A40001946634600E000BF01B5FFF7B7FF002865
:101A500048BF10F1000F01BD4DF808EDFFF7F4FF8E
:101A60000CBF012000205DF808FB00BF4DF808ED19
:101A7000FFF7EAFF34BF012000205DF808FB00BF3C
:101A80004DF808EDFFF7E0FF94BF012000205DF85E
:101A900008FB00BF4DF808EDFFF7CEFF94BF012013
:101AA00000205DF808FB00BF4DF808EDFFF7C4FF0C
:101AB00034BF012000205DF808FB00BF4A0011D2AE
:101AC00012F5001211D20DD56FF47873B3EB625298
:101AD0000ED44FEAC12343F0004343EA505323FAA4
:101AE00002F070474FF00000704750EA013002D119
:101AF0004FF0FF3070474FF0000070470028B8BF2C
:101B00004042704770B50F4E0F4D761BB61018BF90
:101B1000002405D0013455F8043B9847A642F9D17A
:101B20000A4E0B4D00F0B2F9761BB61018BF002418
:101B300006D0013455F8043B9847A642F9D170BD50
:101B400070BD00BF981E0800981E0800A41E080063
:101B5000981E0800024B13B1024800F005B8704708
:101B600000000000751B0800002301461A461846B5
:101B700000F01EB838B50A4C0A4D641BA4100AD0F8
:101B800004F18043013B05EB8305013C55F8043922
:101B90009847002CF9D1BDE8384000F083B900BF68
:101BA000B41E0800B01E0800704700BF704700BF99
:101BB0002DE9F8432C4D0646286898460F46914675
:101BC000FFF7F2FF294B1C68D4F84831002B3ED0B8
:101BD0005A681F2A1CDC02F1010E76B1012103EBC9
:101BE0008204C4F88890D3F8880191400843022EFB
:101BF000C3F88801C4F8088123D00232C3F804E096
:101C0000286843F82270FFF7D1FF0020BDE8F88371
:101C1000174B0BB34FF4C870AFF300800346D8B135
:101C20000020D4F848114FF0010E586019600246A8
:101C3000C4F84831C3F88801C3F88C01002EDCD009
:101C4000CCE7D3F88C010143C3F88C11D5E704F538
:101C5000A673C4F84831BBE72868FFF7A7FF4FF029
:101C6000FF30BDE8F88300BF30040020881E080064
:101C70000000000043414E30206D6573736167655D
:101C8000206172726976656420696E206E6F6E2DB8
:101C900075736564206D61696C626F780A0D002848
:101CA0006E756C6C29004552523A205541525420B1
:101CB0005258206275666665722069732066756C7D
:101CC0006C0A0D000A3D3D3D3D3D3D3D3D3D3D3DE8
:101CD0003D3D3D3D3D3D3D3D3D3D3D3D3D3D3D3D34
:101CE0003D3D3D3D3D3D3D3D3D3D3D3D3D3D3D3D24
:101CF0003D3D3D3D3D3D3D3D3D3D3D3D3D3D3D3D14
:101D00003D3D3D3D0A0D00456E68657400566572A7
:101D1000646900566172696162656C007C20252DE2
:101D2000313573207C20252D313073207C20252DEA
:101D3000313573207C0A0D0028302D3235352900CD
:101D40004C53706F73007C20252D313573207C201F
:101D5000252D313064207C20252D313573207C0ADF
:101D60000D005253706F730028302F3129004C4200
:101D7000746E005242746E004A6F7942746E004A6B
:101D80006F79584F7269676F004A6F79594F72695E
:101D9000676F00282D31363120746F2039342900C7
:101DA0004A6F7958706F7343616C004A6F7959704C
:101DB0006F7343616C0044656772656573004A6FB9
:101DC00079416E676C650054696D657374616D70FF
:101DD000004A6F79594C617374416374696F6E0086
:101DE000436F756E74004C6976657300506F696E51
:101DF00074730053636F7265004B70007C20252D57
:101E0000313573207C20252D31302E3266207C2008
:101E1000252D313573207C0A0D00556E69746C6573
:101E20007373004B69004B640050726576204572F5
:101E3000726F7200496E74656772616C00446572FE
:101E400069766174003D3D3D3D3D3D3D3D3D3D3D3F
:101E50003D3D3D3D3D3D3D3D3D3D3D3D3D3D3D3DB2
:101E60003D3D3D3D3D3D3D3D3D3D3D3D3D3D3D3DA2
:101E70003D3D3D3D3D3D3D3D3D3D3D3D3D3D3D3D92
:101E80003D3D3D3D0A0A0D0008000020F8B500BFA9
:101E9000F8BC08BC9E467047551B08001901080095
:101EA00065110800F8B500BFF8BC08BC9E46704735
:041EB000F500080031
:101EB40000093D000000000000000000F4020020C2
:101EC4005C030020C40300200000000000000000A8
:101ED40000000000000000000000000000000000FE
:101EE40000000000000000000000000000000000EE
:101EF40000000000000000000000000000000000DE
:101F040000000000000000000000000000000000CD
:101F140000000000000000000000000000000000BD
:101F240000000000000000000000000000000000AD
:101F3400000000000000000000000000000000009D
:101F4400000000000000000000000000000000008D
:101F5400000000000000000000000000000000007D
:101F640001000000000000000E33CDAB34126DE61A
:101F7400ECDE05000B000000000000000000000083
:101F8400000000000000000000000000000000004D
:101F9400000000000000000000000000000000003D
:101FA400000000000000000000000000000000002D
:101FB400000000000000000000000000000000001D
:0422E400F8040020DA
:040000038000000079
:00000001FF
