S0130000526F7361456C6566616E742E73726563BD
S214080000A8090020650108006101080061010800D0
S2140800106101080061010800610108000000000095
S2140800200000000000000000000000006101080059
S214080030610108000000000061010800451508007D
S21408004061010800610108006101080061010800FB
S21408005061010800610108006101080061010800EB
S214080060210708006101080000000000610108007F
S2140800706101080061010800610108000000000035
S2140800800000000061010800610108006101080025
S21408009061010800610108006101080061010800AB
S2140800A06101080000000000610108006101080005
S2140800B0610108006101080061010800610108008B
S2140800C0610108006101080061010800610108007B
S2140800D0610108006101080061010800610108006B
S2140800E06101080061010800610108002904080090
S2140800F06101080010B5054C237833B9044B13B1D9
S2140801000448AFF300800123237010BD500400207C
S214080110000000006C2808000C4B43B10C4810B5D2
S2140801200C49AFF300800C48036823B910BD0A4891
S214080130036833B97047094B002BF7D0BDE8104069
S2140801401847064B002BF5D0184700BF00000000E4
S2140801506C280800540400206C28080000000000E2
S214080160FEE7000008B5104A104B9A4210D100214D
S2140801700F4B104A934214D30F4B104A23F0604398
S21408018023F07F0393600E4B98470E4B9847FEE785
S2140801900D49043A8B42EAD252F8040F43F8040B8E
S2140801A0F8E743F8041BE5E76C2808000000002081
S2140801B050040020A40500200000080000ED00E020
S2140801C0F9220800A91308004C0400204FF48063A5
S2140801D0174A1360C2F80032164B1A6AD20120D5A5
S2140801E0154A1A629A6ED103FCD51A6B22F00302DE
S2140801F042F001021A639A6E1207FCD50F4A9A62F9
S2140802009A6E9007FCD511221A639A6E1107FCD5D0
S21408021012221A639A6E1207FCD5094A094B1A600D
S2140802207047094A1A629A6ED007FCD5D8E700BF0D
S214080230000A0E4000060E4009083701013F0D204F
S21408024000BD01050000002009083700082898BFEF
S21408025008292DE9F04101EB000568D8082DD4BF20
S21408026000230123002B62D14FF44071314F1E4604
S2140802703A684FF0005E22F001023A603A692E4A68
S2140802804FF0807C5164116FA2F5006221F00301E3
S214080290C2F870180321C2F80418C2F8641827496F
S2140802A04FF00108C2F80C11D2F8001141F40061B1
S2140802B0C2F800110146224A7A61A94216DD0021D9
S2140802C04FF000554FF040761A4A814225DB4FF42E
S2140802D0006153601B4B00205960102183F82B13D4
S2140802E0136843F001031360BDE8F0814A0102F188
S2140802F0402404F530243A44C4F80462C2F808E2FC
S214080300C4F800C2D2F81C4244F40004C2F81C42E6
S21408031008FA01F213430131CFE702EB4114C4F89F
S214080320085201F11004640116510131CDE701208D
S214080330BDE8F08100400B40000E0E402B10001068
S2140803406501290000E100E002210120004B184762
S2140803504D020800490101F1402202F53022D2F888
S214080360103210B51B0220D50488114B01F140212C
S21408037003EA844343F00053C2F80832837801F551
S2140803803021072B84BF07238370D0F80330C1F8C9
S2140803901432D0F80730C1F81832837800201B04CE
S2140803A043F40003C1F81C3210BD012010BD00BF85
S2140803B00000FC1FF0B54F0107F1402303F530237A
S2140803C0D3F8102212022BD50024D3F81452D3F8EF
S2140803D01862D3F808220330C2F38A4220F8032CA6
S2140803E0D3F81022C2F3034200F8012C94420EDB25
S2140803F04FF080720B4B103149015A503B44D3F8EA
S2140804001C22002042F40002C3F81C22F0BD032C74
S214080410D5BF057006702D0A360A01340130E5E7A7
S2140804200120F0BD00400B401FB5194B1C6914F0A5
S214080430060F19D0A10723D5012101A8154B984707
S214080440BDF80430013B9BB2072B03D801A912481C
S214080450124B9847BDF80430093B9BB2052B03D8CE
S21408046001A90F480F4B9847E30742BF0122084BE4
S2140804709A604FF400620C4BC3F8842104B010BD98
S214080480620701D50221D8E7084B09489847D7E7FD
S21408049000400B40B5030800C8040020911208006D
S2140804A0D80400205D09080000E100E0E506080021
S2140804B0682408002DE9F8430C1E05462FDD034680
S2140804C0581B13F8011B0029FAD18442CCBF241A02
S2140804D00C4612F0020F0CBF20263026D30724D471
S2140804E02746DFF858905FFA86F8002F19DC24EACA
S2140804F0E473E41ADFF844905F1B07EB050815F869
S214080500010BA0B925460D4FF6B2002D11DC002CC4
S214080510ACBF08EB040008F10000BDE8F88320260D
S214080520DCE74046C847013FDFE70023E2E7C84765
S214080530E3E73046B847013DE7E700BF0507080090
S2140805402DE9FF41DDF8288015461F46044660B9A8
S21408055030238DF805008DF804304246394601A848
S2140805601A4B984704B0BDE8F0812AB10A291AD177
S214080570002818DA01254442002304AE06F8013D97
S2140805800B9B3A3B8CB93DB1DFB118F0020F18D07F
S2140805902D200F4B9847013F4246394630460B4BB5
S2140805A098472844DEE70025E6E7B4FBF1F201FBAE
S2140805B01244092CC8BFE418303406F8014D144616
S2140805C0E0E72D23013E33700025E5E7B504080073
S2140805D0050708002DE9F04F80460E46144600250C
S2140805E0DFF8F8A0DFF8F8903A4F85B0337823B1F3
S2140805F0252B65D17378701C33B9B8F1000F63D119
S214080600284605B0BDE8F08F252B58D02D2B0ABFFD
S21408061001220022B01C0378411C302B18D000237E
S2140806204FF00A0B01780646A1F1300E5FFA8EFCF1
S214080630BCF1090F00F101000ED973290FD120680B
S2140806401946254B0434002808BF1846C84711E049
S21408065042F002020846DEE70BFB03E3E2E7642902
S2140806600BD1612100922046012201910A210068DF
S2140806700434B84705440136B8E7782906D1204639
S21408068061210191009210210022F0E7582902D139
S21408069020464121F5E7752905D1612100922046BB
S2140806A001910022E2E76329E5D1216803A88DF8C5
S2140806B00C10002104348DF80D101946C6E70646BE
S2140806C03078D0470135D6E70022D8F800301A70BF
S2140806D096E700BF410508009324080005070800B0
S2140806E0B50408000FB407B504AA52F8041B044B57
S2140806F001920020984703B05DF804EB04B07047F9
S214080700D5050800054B5A69910705D5D8615A6979
S2140807109205FCD5002070470120704700080E405F
S21408072038B50F4D6B6913F0E00F1CBF4FF4A87275
S2140807302A60DB0713D50B4C62782178531C03F02C
S2140807403F038B4207D1084B084898476278AB6945
S2140807501444A37038BDA96922449170637038BDEB
S21408076000080E40E0040020E50608009A24080069
S214080770114B1249D3F8E42022F00102C3F8E42012
S214080780D1F8002142F02002C1F80021D1F804284F
S21408079042F00402C1F804284FF680725A6001221B
S2140807A01A6102221A60C8225A6400221A644FF09C
S2140807B080625A62704700BF00000C4000060E4078
S2140807C0204B37B51968204C69B940F6B8305A68D6
S2140807D044F8210001311429FAD102F56A42603240
S2140807E05A6001221A60194A5868116D9A6889B2C7
S2140807F054F8225044F82210401B014414200132B9
S21408080092FBF0F400FB142259609A6091FBF0F119
S21408081040F2DB5399420E4C0FDC0E4B0E489847BD
S21408082023782BB90D4AD3880133D380012323704C
S214080830064B1B6B019303B030BD2378012BF7D111
S2140808400023F4E76C0400202805002000000C4074
S21408085004000020E5060800B8240800D804002094
S214080860074AD2F8003143F00203C2F80031054BBC
S214080870054AC3F8C42001225A6005221A60704748
S21408088000060E400080084000132000014B18693F
S214080890704700BF0080084004200021084B002253
S2140808A0C3E9000103200021064BC3E9000101202B
S2140808B00021054BC3E90001044B1A60704700BFCE
S2140808C00800002010000020180000207C040020EB
S2140808D0012830B407D003D3022816D030BC70479E
S2140808E0134B30BC184704240025124BC3E90045B7
S2140808F003240025104BC3E90045012400250F4BAF
S214080900C3E900450E4B1860E8E70F200021094BA5
S2140809100022C3E9000101200021074BC3E90001BA
S21408092005200021054BC3E90001054B1A60D5E7F1
S2140809309908080008000020100000201800002071
S2140809407C04002000230522C370C38003718370D3
S21408095002704270004B18479908080070B50C469C
S2140809600646098819481A4DA84723880A3B032BC8
S2140809702AD8DFE803F002091620A378012B23D132
S214080980E1783170134808E0A378012B1CD1E07891
S214080990114BF0709847F17810482B46BDE8704028
S2140809A01847A378022B06D12379E1780C4841EA48
S2140809B00321F180A847A378012B05D10022E1780E
S2140809C0084B31719A70DDE770BD00BFCC24080073
S2140809D0E5060800DB240800D1080800E72408001C
S2140809E0FF240800D804002010B5044B9847044B91
S2140809F09847BDE81040034B184700BFC1070800DA
S214080A00E9130800F90F08001FB501238DF8063012
S214080A100023ADF8041009398DF807308DF8083032
S214080A208DF809308DF80A308DF80B308DF80C30BB
S214080A308DF80D308DF80E30062908D8DFE801F05D
S214080A4010040E070710100003788DF807300021F1
S214080A5001A8044B984705B05DF804FBC378F4E793
S214080A608378F2E75503080010B5064B984700232D
S214080A7005480E21027803714270C380BDE8104015
S214080A80024B184779110800D8040020090A080004
S214080A901FB50923ADF80430012300210E4C8DF84C
S214080AA00630637801A88DF807300C4B8DF80810CF
S214080AB08DF809108DF80A108DF80B108DF80C10AB
S214080AC08DF80D108DF80E10984718B961780448FF
S214080AD0044B984704B010BDD804002055030800FE
S214080AE00B250800E50608002DE9F047184C90F895
S214080AF0039090F800804778C68805791548A0477F
S214080B00154A16491648A0471648A047164B174ACE
S214080B101749B9F1000F18BF1A461148A0474246B0
S214080B2014491548A0473A4614491348A047324680
S214080B3013491148A047134B134A1449002D08BF00
S214080B401A460748A0472346BDE8F0471048184706
S214080B50E5060800412508007A25080080250800D3
S214080B608A2508009E250800352508003025080037
S214080B70C1250800CC250800D2250800E62508006F
S214080B80F12508003E2508003A250800F725080044
S214080B90382608002DE9F041234C2579012D3AD155
S214080BA0A678224FCEB9E078214B9847214B984734
S214080BB04FF400322378E68063701F4B20461A6392
S214080BC01E4B98471E4B98470F2120461D4BA57075
S214080BD098471D481D4B9847FE70FB78012B05D19A
S214080BE01B4B98470023A370BDE8F0812378E18863
S214080BF062785B1A9A4202D06370114B9847657800
S214080C0015B9134B9847A570A378012B09D1BDE8F1
S214080C10F041104B18472946BDE8F0410E480B4BEB
S214080C201847BDE8F08100BFD8040020C80400209B
S214080C30D1080800C911080000120E40E90A080089
S214080C40910A0800090A080002260800E5060800B6
S214080C50690A0800E90908000E2608002DE9F0418F
S214080C604448454C454D464EA047464F464B474A96
S214080C7047494848A0474848A047DFF8B4813B465C
S214080C80327846492846A0473B4672784449284663
S214080C90A0474346B27843492846A0474346F278D9
S214080CA041492846A0474346327940492846A04746
S214080CB03B4672793E492846A0473B463D4FB279A7
S214080CC03D492846A0473B46B6F908203B492846F2
S214080CD0A0473B46B6F90A2039492846A047B6F940
S214080CE00C20384B38492846A047F289374E384BEF
S214080CF038492846A0473278374B38492846A0470F
S214080D00F288374B37492846A0473279364B374959
S214080D102846374EA047374A33461268364928468B
S214080D20A047364A3346126835492846A047354A0A
S214080D303346126834492846A047344A3346126870
S214080D4033492846A047334A33461268324928466C
S214080D50A047324A3346126831492846A047314AE6
S214080D603346284612683049A0472346BDE8F04176
S214080D702E4818472D260800E5060800AF26080066
S214080D80C8040020A1260800702608007626080059
S214080D907C260800852608002E260800A9260800B6
S214080DA0CB260800D7260800DC260800E12608001F
S214080DB0E8260800FC260800F2260800092708008E
S214080DC0142708001F27080027270800D804002033
S214080DD0302708003A27080049270800CC250800CD
S214080DE04F270800F1250800562708005C2708004A
S214080DF062270800080000206B2708001000002063
S214080E006E2708001800002071270800A00400209C
S214080E1079270800B004002074270800A8040020DA
S214080E207F270800B80400208827080090270800B5
S214080E30D126080010B50F4B98474FF400420E4BCA
S214080E404FF416515A600D480D4B98470D480E4BF7
S214080E5098470E480E4B98470E4B98470E4B9847A8
S214080E600E4B98470E4B98470E4B9847BDE81040D8
S214080E700D4B1847CD010800501A0E4000BD01055D
S214080E80E5150800C804002079120800D8040020D8
S214080E904509080049030800C5130800AD0E0800F8
S214080EA071070800610808005D0C0800044B1A6901
S214080EB042F400021A611A6842F400021A60704787
S214080EC000120E40000000002DE9F0411A4B804643
S214080ED0984741F216639842A8BF1846174D20EA6D
S214080EE0E070A84710A3D3E90023154CA047154C7B
S214080EF00022154BA0470EA3D3E90023A0470646B9
S214080F0040460F46A84700220023A0470F4C02463B
S214080F100B4630463946A0470D4B98470A2390FBA8
S214080F20F3F0BDE8F08100BF000000000016B640F0
S214080F300000000084D797418D080800E9180800CB
S214080F40091C0800B51908000000244051160800BE
S214080F50E91E08000000000010B5114B114C587827
S214080F60114B98470AA3D3E90023A0470F4C002249
S214080F700F4BA04708A3D3E90023A047002200236D
S214080F800C4CA0470C4B98470A2390FBF3F010BD77
S214080F900000000000E06F400000000084D7974182
S214080FA0C8040020091C0800C9180800B51908005C
S214080FB00000244051160800E91E0800F8B5064649
S214080FC00F46084C084BD4F8AC02984732463B46C6
S214080FD0064EB047064B9847D4F8AC52281AC4F8C1
S214080FE0A802F8BD00400940C9180800B51908004D
S214080FF0391F0800000000002DE9F14F504C514BF6
S21408100020689847504D20EAE076AE42A8BF2E46A4
S214081010237AF717002B77D14C4B20691A684C4B6C
S214081020002A6FD098474B4B9847DFF844810B4609
S21408103002463FA1D1E90001C047474B984720EA3E
S214081040E070A842A8BF2846C117C4E90601D4E93B
S2140810500601C4E90067361A67EB0107C4E904010C
S214081060D4E90A0180194FF000037941DFF80481BA
S214081070C4E908673222C047D4E90C89374B98423E
S214081080B8BF1846A842A8BF2846B6EB080867EBBC
S2140810900909012E4FEAE07177F10003C4E90A0155
S2140810A0C4E90E8936DB86EAE673A3EBE673642B9F
S2140810B003DD4FF400022A4B1A632A4AC4E90C6778
S2140810C0D2F808E0D2F800A0AEFB0001AAFB06ABF7
S2140810D010EB0A00D2F810A01E4BAAFB088910EBEA
S2140810E008000028B8BF4042A842A8BF284698472C
S2140810F00FA3D3E900231C4CA0471C4B01B0BDE846
S214081100F04F184798479AE70BA3D3E90023C4E99A
S21408111006239CE756EA0703CFD086EAE673A3EBD6
S214081120E673642BC2BF4FF400020D4B5A63C4E744
S2140811300000000084D7974180F0FA020000000003
S21408114080040020C90E080000E1F5057C04002094
S214081150590F0800E9180800E91E0800001F0AFAD7
S21408116000120E4008000020091C0800BD0F0800E9
S2140811704D160800791F080000200021012270B5CE
S21408118040F2E9350E4C0F4EC4E90801C4E90C01DB
S214081190C4E90A01C4E90E01C4E906012272D4E9C9
S2140811A00823013243F10003002B08BF032A01D3AA
S2140811B0013D02D10023237270BDB047EFE700BFA0
S2140811C080040020F90F08002DE9F84F204EB0479C
S2140811D04FF400031F4FDFF89CA004467B631E48AD
S2140811E01E4DA8474FF00008D34617A1D1E90001C5
S2140811F04FF400023A63D047B0478146A9EB04048F
S214081200014602341648A847042C88BF4FF0000849
S214081210144C4FF064004FF0000198BF08F1010825
S214081220A047114CA047B8F10E0F4C46DDDD002153
S2140812300020D8470D4B98470D48A8470020BDE822
S214081240F88F00BFAFF300809A9999999999D93F7A
S2140812508D08080000120E40D3270800E50608008F
S214081260FA27080095150800C51508006108080043
S21408127009280800BD0F0800002303704370837018
S214081280C3700381438183810371C3817047000063
S2140812900B88013B072B44D8DFE803F0040D162320
S2140812A0292F353B8B78022B3BD10A79CB7843EA3A
S2140812B00223438170478B78022B32D10A79CB7888
S2140812C043EA0223038170478B78012B29D14FF418
S2140812D00032CB780371012B124B0CBF5A631A638A
S2140812E070478B78012B1CD1CB78037070478B78AE
S2140812F0012B16D1CB78437070478B78012B10D111
S214081300CB78837070478B78012B0AD1CB78C37063
S21408131070478B78022B01BF0A79CB7843EA022301
S2140813208381704700120E401C4B0B211A6FA3F5E1
S214081330206342F40052C3F8702AD3F8042A42F411
S2140813400052C3F8042AD3F8702C42F40022C3F8DB
S214081350702CD3F8042C42F40022C3F8042C104A4C
S214081360C3F80C21D3F8002142F01002C3F800217C
S2140813700C4B5A6842F002025A605A6842F0200241
S2140813805A6054221A6044F62062C3F82012C3F842
S2140813902C22C3F8A012C3F8AC22704700100E40E7
S2140813A0240000100040094008B5034B9847034D39
S2140813B0034CA847A047FCE7350E0800950B080025
S2140813C02904080008B5064B9847064B1A6942F4E4
S2140813D000321A611A6842F400321A6008BD00BF6B
S2140813E02913080000120E403B4B2DE9F0471B68F6
S2140813F0DFF814A1012B394BDFF81081B3F9080088
S21408140008BF4042431C022B4BD905283DDD344B10
S21408141098470022334BD04725A3D3E90023C0477B
S214081420314C0022314BA04704460D4622A3D3E98F
S2140814300023204629462E4EB047002834D120A344
S214081440D3E90023204629462A4EB04710B11CA5EA
S214081450D5E900450022284B20462946D047274E86
S2140814600446D6F82C92264B48460D469847024620
S2140814700B4620462946C047224B9847D6F82C727A
S214081480381AC6F82802BDE8F087431DCEDA144B92
S21408149098470DA3D3E90023D0470DA3D3E900232B
S2140814A0BDE70024114DD5E703A5D5E90045D1E7EA
S2140814B0343333333333E33FCDCCCCCCCCCCEC3FD6
S2140814C0CDCCCCCCCCCC004000000000002064C0C2
S2140814D0333333333333E3BF7C040020C80400209F
S2140814E0E918080000405740511608000000F83F69
S2140814F0991E0800D51E0800000034400040094028
S214081500C9180800391F0800091C0800B519080082
S2140815100021094A0948D3684160DB00036023F0CC
S2140815207F43013B536091602021054B83F82310CD
S21408153007231360704700BF10E000E0780500201E
S21408154000ED00E030B505490548D1E90023D0E9AB
S214081550004512196B41C1E9002330BDC0040020C4
S21408156078050020084B30B598680849084BD1E93B
S2140815700045D3E9002312196B41141A63F10005DC
S2140815802046294630BD00BF10E000E07805002060
S214081590C0040020044A13685268424301FB032231
S2140815A0A3FB0001114470477805002070B5044677
S2140815B00D46034EB047A94208BFA042FAD370BDF5
S2140815C06515080070B5054B04460D469847001982
S2140815D06941034BBDE87040184700BF6515080011
S2140815E0AD150800144A00091369B0FBF1F143F47D
S2140815F080731361114B5A68A3F5C06342F44072B6
S214081600C3F80426D3F8702622F44072C3F870266E
S2140816101A6842F050021A605A6842F400625A6029
S2140816204FF0FF321962DA60E1229A604FF4807256
S214081630034B1A60704700BF00060E40000E0E40AF
S21408164000E100E081F0004102E000BF83F00043C3
S21408165030B54FEA41044FEA430594EA050F08BF40
S21408166090EA020F1FBF54EA000C55EA020C7FEA04
S214081670645C7FEA655C00F0E2804FEA5454D4EB81
S2140816805555B8BF6D420CDD2C4480EA020281EA4B
S214081690030382EA000083EA010180EA020281EA83
S2140816A00303362D88BF30BD11F0004F4FEA0131D5
S2140816B04FF4801C4CEA113102D0404261EB4101E4
S2140816C013F0004F4FEA03334CEA133302D052426A
S2140816D063EB430394EA050F00F0A780A4F1010426
S2140816E0D5F1200E0DDB02FA0EFC22FA05F2801860
S2140816F041F1000103FA0EF2801843FA05F3594146
S2140817000EE0A5F120050EF1200E012A03FA0EFCC4
S21408171028BF4CF0020C43FA05F3C01851EBE371EE
S21408172001F0004507D54FF0000EDCF1000C7EEB0B
S21408173000006EEB0101B1F5801F1BD3B1F5001F49
S2140817400CD349085FEA30004FEA3C0C04F1010468
S2140817504FEA445212F5800F80F09A80BCF1004F91
S21408176008BF5FEA500C50F1000041EB045141EA13
S214081770050130BD5FEA4C0C404141EB010111F414
S214081780801FA4F10104E9D191F0000F04BF0146BF
S2140817900020B1FA81F308BF2033A3F10B03B3F19D
S2140817A020020CDA0C3208DD02F1140CC2F10C022D
S2140817B001FA0CF021FA02F10CE002F11402D8BF8B
S2140817C0C2F1200C01FA02F120FA0CFCDCBF41EA57
S2140817D00C019040E41AA2BF01EB0451294330BD26
S2140817E06FEA04041F3C1CDA0C340EDC04F1140403
S2140817F0C4F1200220FA04F001FA02F340EA0300DA
S21408180021FA04F345EA030130BDC4F10C04C4F11F
S214081810200220FA02F001FA04F340EA03002946FF
S21408182030BD21FA04F0294630BD94F0000F83F449
S214081830801306BF81F480110134013D4EE77FEA2C
S214081840645C18BF7FEA655C29D094EA050F08BF78
S21408185090EA020F05D054EA000C04BF1946104659
S21408186030BD91EA030F1EBF0021002030BD5FEA9D
S214081870545C05D14000494128BF41F0004130BDC5
S21408188014F580043CBF01F5801130BD01F0004519
S21408189045F0FE4141F470014FF0000030BD7FEA8C
S2140818A0645C1ABF194610467FEA655C1CBF0B4687
S2140818B0024650EA013406BF52EA033591EA030F9E
S2140818C041F4002130BD00BF90F0000F04BF002196
S2140818D0704730B54FF4806404F132044FF00005C9
S2140818E04FF0000150E700BF90F0000F04BF002142
S2140818F0704730B54FF4806404F1320410F00045A8
S21408190048BF40424FF000013EE700BF42004FEAA2
S214081910E2014FEA31014FEA02701FBF12F07F431F
S21408192093F07F4F81F06051704792F0000F14BF1C
S21408193093F07F4F704730B54FF4607401F0004560
S21408194021F0004120E700BF50EA010208BF7047B7
S21408195030B54FF000050AE050EA010208BF7047AC
S21408196030B511F0004502D5404261EB41014FF415
S214081970806404F132045FEA915C3FF4DCAE4FF019
S21408198003025FEADC0C18BF03325FEADC0C18BF00
S214081990033202EBDC02C2F1200300FA03FC20FA51
S2140819A002F001FA03FE40EA0E0021FA02F114449E
S2140819B0C1E600BF70B54FF0FF0C4CF4E06C1CEAB3
S2140819C011541DBF1CEA135594EA0C0F95EA0C0F28
S2140819D000F0DEF82C4481EA030621EA4C5123EA9B
S2140819E04C5350EA013518BF52EA033541F48011CA
S2140819F043F4801338D0A0FB02CE4FF00005E1FB7D
S214081A0002E506F00042E0FB03E54FF00006E1FBC6
S214081A1003569CF0000F18BF4EF0010EA4F1FF0409
S214081A20B6F5007F64F5407404D25FEA4E0E6D4149
S214081A3046EB060642EAC62141EA55514FEAC5205A
S214081A4040EA5E504FEACE2EB4F1FD0C88BFBCF5D6
S214081A50E06F1ED8BEF1004F08BF5FEA500E50F187
S214081A60000041EB045170BD06F0004646EA01014D
S214081A7040EA020081EA0301B4EB5C04C2BFD4EB7F
S214081A800C0541EA045170BD41F480114FF0000E78
S214081A90013C00F3AB8014F1360FDEBF002001F0E6
S214081AA0004170BDC4F10004203C35DA0C341BDC60
S214081AB004F11404C4F1200500FA05F320FA04F032
S214081AC001FA05F240EA020001F0004221F0004166
S214081AD010EBD37021FA04F642EB06015EEA430ED9
S214081AE008BF20EAD37070BDC4F10C04C4F1200509
S214081AF000FA04F320FA05F001FA04F240EA0200BC
S214081B0001F0004110EBD37041F100015EEA430E8C
S214081B1008BF20EAD37070BDC4F1200500FA05F2AC
S214081B204EEA020E20FA04F301FA05F243EA02032B
S214081B3021FA04F001F0004121FA04F220EA02003A
S214081B4000EBD3705EEA430E08BF20EAD37070BD80
S214081B5094F0000F0FD101F00046400041EB010160
S214081B6011F4801F08BF013CF7D041EA060195F042
S214081B70000F18BF704703F00046520043EB0303FC
S214081B8013F4801F08BF013DF7D043EA06037047E9
S214081B9094EA0C0F0CEA135518BF95EA0C0F0CD0F4
S214081BA050EA410618BF52EA4306D1D181EA03013A
S214081BB001F000414FF0000070BD50EA410606BF34
S214081BC01046194652EA430619D094EA0C0F02D179
S214081BD050EA013613D195EA0C0F05D152EA0336BE
S214081BE01CBF104619460AD181EA030101F00041DC
S214081BF041F0FE4141F470014FF0000070BD41F025
S214081C00FE4141F4780170BD70B54FF0FF0C4CF4FE
S214081C10E06C1CEA11541DBF1CEA135594EA0C0F1D
S214081C2095EA0C0F00F0A7F8A4EB050481EA030E6A
S214081C3052EA03354FEA013100F088804FEA033351
S214081C404FF0805545EA131343EA12634FEA02221F
S214081C5045EA111545EA10654FEA00260EF00041E0
S214081C609D4208BF964244F1FD0404F5407402D232
S214081C705B084FEA3202B61A65EB03055B084FEAC3
S214081C8032024FF480104FF4002CB6EB020E75EBC0
S214081C90030E22BFB61A754640EA0C005B084FEAE8
S214081CA03202B6EB020E75EB030E22BFB61A754665
S214081CB040EA5C005B084FEA3202B6EB020E75EBB0
S214081CC0030E22BFB61A754640EA9C005B084FEA28
S214081CD03202B6EB020E75EB030E22BFB61A754635
S214081CE040EADC0055EA060E18D04FEA051545EA24
S214081CF016754FEA06164FEAC30343EA52734FEACD
S214081D00C2025FEA1C1CC0D111F4801F0BD141EA45
S214081D1000014FF000004FF0004CB6E711F4801FAA
S214081D2004BF01430020B4F1FD0C88BFBCF5E06F8A
S214081D303FF6AFAEB5EB030C04BFB6EB020C5FEA9A
S214081D40500C50F1000041EB045170BD0EF0004EEF
S214081D504EEA113114EB5C04C2BFD4EB0C0541EA21
S214081D60045170BD41F480114FF0000E013C90E61E
S214081D7045EA060E8DE60CEA135594EA0C0F08BFE2
S214081D8095EA0C0F3FF43BAF94EA0C0F0AD150EAE1
S214081D9001347FF434AF95EA0C0F7FF425AF104674
S214081DA019462CE795EA0C0F06D152EA03353FF49C
S214081DB0FDAE1046194622E750EA410618BF52EA19
S214081DC043067FF4C5AE50EA41047FF40DAF52EAED
S214081DD043057FF4EBAE12E74FF0FF3C06E000BF8A
S214081DE04FF0010C02E000BF4FF0010C4DF804CD97
S214081DF04FEA410C7FEA6C5C4FEA430C18BF7FEA57
S214081E006C5C1BD001B050EA410C0CBF52EA430C84
S214081E1091EA030F02BF90EA020F0020704710F104
S214081E20000F91EA030F58BF994208BF90422CBF93
S214081E30D8176FEAE37040F0010070474FEA410C8C
S214081E407FEA6C5C02D150EA013C07D14FEA430CAA
S214081E507FEA6C5CD6D152EA033CD3D05DF8040B1B
S214081E60704700BF8446104662468C46194663464D
S214081E7000E000BF01B5FFF7B7FF002848BF10F124
S214081E80000F01BD4DF808EDFFF7F4FF0CBF012069
S214081E9000205DF808FB00BF4DF808EDFFF7EAFFE5
S214081EA034BF012000205DF808FB00BF4DF808EDA0
S214081EB0FFF7E0FF94BF012000205DF808FB00BF95
S214081EC04DF808EDFFF7CEFF94BF012000205DF81F
S214081ED008FB00BF4DF808EDFFF7C4FF34BF01202C
S214081EE000205DF808FB00BF4FEA410212F5001219
S214081EF015D211D56FF47873B3EB625212D94FEA44
S214081F00C12343F0004343EA505311F0004F23FA2D
S214081F1002F018BF404270474FF00000704750EA82
S214081F20013005D111F0004008BF6FF0004070473F
S214081F304FF00000704700BF4A0011D212F5001299
S214081F4011D20DD56FF47873B3EB62520ED44FEA04
S214081F50C12343F0004343EA505323FA02F0704784
S214081F604FF00000704750EA013002D14FF0FF30C2
S214081F7070474FF0000070477BB972B90029BEBFA2
S214081F8000204FF0004106E008BF00281CBF6FF095
S214081F9000414FF0FF3000F0ADB9ADF1080C6DE927
S214081FA004CE002909DB002B1ADB00F035F8DDF833
S214081FB004E0DDE9022304B07047404261EB4101CA
S214081FC0002B1BDB00F028F8DDF804E0DDE902232F
S214081FD004B0404261EB4101524263EB4303704751
S214081FE0524263EB430300F017F8DDF804E0DDE93E
S214081FF0022304B0404261EB41017047524263EB52
S214082000430300F009F8DDF804E0DDE9022304B034
S214082010524263EB430370472DE9F0478C460E4661
S2140820200446089D002B50D18A4217466CD9B2FA4E
S21408203082FEBEF1000F0BD0CEF1200C01FA0EF690
S21408204020FA0CFC02FA0EF74CEA060C00FA0EF41C
S2140820503A0CBCFBF2F9BBB202FB19CC09FB03FA3B
S2140820604FEA144848EA0C46B2450AD9F61909F167
S214082070FF3180F02581B24540F22281A9F102099C
S2140820803E44A6EB0A06B6FBF2F002FB106600FB1F
S21408209003F3A4B244EA0644A34209D9E41900F1BA
S2140820A0FF3280F00B81A34240F2088102383C449C
S2140820B00021E41A40EA0940002D62D0002324FAE1
S2140820C00EF42C606B60BDE8F0878B4207D9002DB4
S2140820D055D0002185E841000846BDE8F087B3FAE8
S2140820E083F1002940F08F80B34202D3824200F287
S2140820F0FC80841A66EB03060120B446002D40D007
S21408210085E81010BDE8F08712B90127B7FBF2F78B
S214082110B7FA87FEBEF1000F35D10121F61B4FEA4C
S214082120174C1FFA87F8B6FBFCF20CFB126608FB86
S21408213002F0230C43EA0646B04207D9F61902F124
S214082140FF3302D2B04200F2D2801A46361AB6FBE5
S214082150FCF00CFB106608FB00F8A3B243EA064442
S214082160A04507D9E41900F1FF3302D2A04500F2D2
S214082170B9801846A4EB080440EA02409CE72946C2
S2140821802846BDE8F08707FA0EF7CEF1200326FAB0
S21408219003F24FEA174CB2FBFCF11FFA87F80CFB68
S2140821A0112206FA0EF620FA03F301FB08F9334368
S2140821B01E0C46EA0246B14500FA0EF409D9F6198D
S2140821C001F1FF3280F08C80B14540F289800239F7
S2140821D03E44A6EB0906B6FBFCF00CFB106200FBBF
S2140821E008F99EB246EA0246B14507D9F61900F143
S2140821F0FF3371D2B1456FD902383E44A6EB0906C3
S21408220040EA01418FE7C1F1200722FA07F88B4020
S21408221048EA030326FA07F44FEA134EB4FBFEF91E
S2140822201FFA83FC0EFB19448E4020FA07F809FBB8
S2140822300CFA48EA06084FEA184646EA0444A24555
S21408224002FA01F200FA01F608D9E41809F1FF309B
S21408225044D2A24542D9A9F102091C44A4EB0A04B7
S214082260B4FBFEF00EFB104400FB0CFC1FFA88F8CB
S21408227048EA0444A44507D9E41800F1FF3E29D2E9
S214082280A44527D902381C4440EA0940A0FB028925
S214082290A4EB0C0CCC45C246CE4615D312D055B18D
S2140822A0B6EB0A036CEB0E0606FA07F7CB401F439D
S2140822B0CE402F606E600021BDE8F0871046F7E636
S2140822C08946DEE64645EAD2B8EB020A69EB030E13
S2140822D00138E4E77046D7E718468FE78146BDE73A
S2140822E0114676E702383C4444E7084606E7023AD1
S2140822F03E442BE7704700BF70B50F4E0F4D761B58
S214082300B61018BF002405D0013455F8043B98478A
S214082310A642F9D10A4E0B4D00F090FA761BB6107D
S21408232018BF002406D0013455F8043B9847A64247
S214082330F9D170BD70BD00BF4828080048280800BD
S2140823405428080048280800024B13B1024800F039
S21408235005B87047000000006923080000230146FE
S2140823601A46184600F01EB838B50A4C0A4D641BC3
S214082370A4100AD004F18043013B05EB8305013C19
S21408238055F804399847002CF9D1BDE8384000F0D4
S21408239061BA00BF6428080060280800704700BFBC
S2140823A0704700BF2DE9F8432C4D06462868984626
S2140823B00F469146FFF7F2FF294B1C68D4F84831C0
S2140823C0002B3ED05A681F2A1CDC02F1010E76B19B
S2140823D0012103EB8204C4F88890D3F88801914061
S2140823E00843022EC3F88801C4F8088123D00232B5
S2140823F0C3F804E0286843F82270FFF7D1FF0020EE
S214082400BDE8F883174B0BB34FF4C870AFF30080E2
S2140824100346D8B10020D4F848114FF0010E586092
S21408242019600246C4F84831C3F88801C3F88C011D
S214082430002EDCD0CCE7D3F88C010143C3F88C110E
S214082440D5E704F5A673C4F84831BBE72868FFF754
S214082450A7FF4FF0FF30BDE8F88300BF4804002010
S214082460382808000000000043414E30206D657390
S21408247073616765206172726976656420696E208B
S2140824806E6F6E2D75736564206D61696C626F780A
S2140824900A0D00286E756C6C29004552523A205574
S2140824A041525420525820627566666572206973D8
S2140824B02066756C6C0A0D00747269676765722011
S2140824C06661656E3A202564200A0D0043414E5F1A
S2140824D02049443A202564200A0D004C6976657325
S2140824E03A2025640A0D00446966666963756C744B
S2140824F0792073657420746F3A2025640A0D00539A
S214082500636F72653A2025640A0D0053656E642071
S2140825106D656C64696E67206F6D2072657374658F
S21408252072616E6465206C69763A2025640A0D002F
S21408253045617379004861726400596573004E6F8F
S214082540000A3D3D3D3D3D3D3D3D3D3D3D3D3D3D1E
S2140825503D3D3D3D3D3D2047616D652053746174AA
S2140825607573203D3D3D3D3D3D3D3D3D3D3D3D3D3D
S2140825703D3D3D3D3D3D3D0A0D0056616C7565008F
S214082580417474726962757465007C20252D313536
S21408259073207C20252D313073207C0A0D007C2D7D
S2140825A02D2D2D2D2D2D2D2D2D2D2D2D2D2D2D2D4E
S2140825B07C2D2D2D2D2D2D2D2D2D2D2D2D7C0A0DE3
S2140825C000446966666963756C7479004C6976655B
S2140825D073007C20252D313573207C20252D313045
S2140825E064207C0A0D004C69766573206C656674F9
S2140825F00053636F72650053746172742047616D8F
S2140826006500494E495449414C495A454400766943
S214082610206572206920656C73653A20737472743D
S2140826202067616D653A202564200A0D000A3D3D45
S2140826303D3D3D3D3D3D3D3D3D3D3D3D3D3D3D3DBD
S2140826403D3D3D3D3D3D3D3D3D3D3D3D3D3D3D3DAD
S2140826503D3D3D3D3D3D3D3D3D3D3D3D3D3D3D3D9D
S2140826603D3D3D3D3D3D3D3D3D3D3D3D3D0A0D002D
S214082670456E6865740056657264690056617269CD
S2140826806162656C007C20252D313573207C202501
S2140826902D313073207C20252D313573207C0A0D92
S2140826A00028302D32353529004C53706F73007C66
S2140826B020252D313573207C20252D313064207C53
S2140826C020252D313573207C0A0D005253706F7308
S2140826D00028302F3129004C42746E005242746E26
S2140826E0004A6F7942746E004A6F79584F7269676C
S2140826F06F004A6F79594F7269676F00282D313617
S2140827003120746F20393429004A6F7958706F73F6
S21408271043616C004A6F7959706F7343616C00446B
S214082720656772656573004A6F79416E676C650008
S21408273054696D657374616D70004A6F79594C61A0
S2140827407374416374696F6E00436F756E740050DE
S2140827506F696E7473005374617274007374617277
S2140827607400556E69746C657373004B70004B6922
S214082770004B640050726576204572726F7200498D
S2140827806E74656772616C00446572697661740080
S2140827903D3D3D3D3D3D3D3D3D3D3D3D3D3D3D3D5C
S2140827A03D3D3D3D3D3D3D3D3D3D3D3D3D3D3D3D4C
S2140827B03D3D3D3D3D3D3D3D3D3D3D3D3D3D3D3D3C
S2140827C03D3D3D3D3D3D3D3D3D3D3D3D3D3D3D0A5F
S2140827D00A0D005374617274696E672063616C69D0
S2140827E062726174696F6E20746F776172647320A9
S2140827F077616C6C2E2E2E0A0D00506F7369746903
S2140828006F6E3A2025640A0D0043616C6962726136
S21408281074696F6E20636F6D706C6574652E2052D8
S21408282065666572656E63652073657420746F20CF
S214082830302E0A0D0000000020000020F8B500BF6A
S214082840F8BC08BC9E4670474923080019010800D2
S21408285011150800F8B500BFF8BC08BC9E467047BE
S208082860F50008006A
S20C082864B4F7FF7F0100000035
S21408286C00093D0001000000C70000000000000041
S21408287C0A00000000000000140000000000000021
S21408288C000000000C03002074030020DC0300206A
S21408289C000000000000000000000000000000001F
S2140828AC000000000000000000000000000000000F
S2140828BC00000000000000000000000000000000FF
S2140828CC00000000000000000000000000000000EF
S2140828DC00000000000000000000000000000000DF
S2140828EC00000000000000000000000000000000CF
S2140828FC00000000000000000000000000000000BF
S21408290C00000000000000000000000000000000AE
S21408291C000000000000000000000000000000009E
S21408292C000000000000000001000000000000008D
S21408293C0E33CDAB34126DE6ECDE05000B00000052
S21408294C000000000000000000000000000000006E
S21408295C000000000000000000000000000000005E
S21408296C000000000000000000000000000000004E
S21408297C000000000000000000000000000000003E
S210082CAC0000000000000000800500206A
S804080000F3
