:100000000C9446030C94BA070C9463030C9463039A
:100010000C9463030C9463030C9463030C946303C8
:100020000C9463030C94BE120C9463030C9463034E
:100030000C9463030C9463030C9463030C94040802
:100040000C9463030C9463030C9463030C940605F3
:100050000C9463030C9463030C9463030C94630388
:100060000C9463030C9463030C9463030C94630378
:10007000850A570A5A0A5D0A600A630A660A690A0B
:100080006C0A6F0A53636F72653A2020202020208B
:10009000202020204C697665733A202020202020E3
:1000A0002020202020202020202020202020202050
:1000B0002020202020202020202020202020202040
:1000C0002020202020202020202020202020202030
:1000D0002020202020202020202020202020202020
:1000E0002020202020202020202020202020202010
:1000F0002020202020202020202020202020202000
:100100002020202020526573657420736574746903
:100110006E677320204C6976657320202020202094
:10012000202020202053656E736974697669747984
:100130002020202020446966666963756C747920EC
:1001400020202020204261636B20202020202020BE
:1001500020202020204241434B202020202020200E
:1001600020202020204E722E20313A2020202020D6
:1001700020202020204E722E20323A2020202020C5
:1001800020202020204E722E20333A2020202020B4
:1001900020202020204E722E20343A2020202020A3
:1001A00020202020204E722E20353A202020202092
:1001B00020202020204E722E20363A202020202081
:1001C00020202020204E722E20373A202020202070
:1001D00020202020204E722E20383A20202020205F
:1001E00020202020204E722E20393A20202020204E
:1001F00020202020204E722E2031303A2020202036
:1002000020202020204E722E2031313A2020202024
:1002100020202020204E722E2031323A2020202013
:1002200020202020204E722E2031333A2020202002
:1002300020202020204E722E2031343A20202020F1
:1002400020202020204E722E2031353A20202020E0
:1002500020202020204E722E2031363A20202020CF
:1002600020202020204E722E2031373A20202020BE
:1002700020202020204E722E2031383A20202020AD
:1002800020202020204E722E2031393A202020209C
:10029000202020202053746172742047616D6520F6
:1002A000202020202053657474696E6773202020FD
:1002B0002020202020486967682053636F7265738F
:1002C000202020202052657365742053636F72656F
:1002D00073202020204578697420202020202020B1
:1002E000202020200000000000000000000000008E
:1002F00000000000000000000000000000000000FE
:1003000000000000000000000000000000000000ED
:10031000000000002020207961704040402A202009
:100320002020202020202023404040232020202A5D
:10033000232020202020234040402A20202A404003
:10034000404023202A20202B234040404040402092
:100350002040404040402020202B404040402A2068
:100360002020404040404025254040404040402023
:100370002B20202A2023404040402A20202A404091
:1003800040232020202020232320202023404040E1
:1003900023202020000000000000000000005F007B
:1003A000000000000007000700000000147F147F19
:1003B00014000000242A7F2A12000000231308647E
:1003C0006200000036495620500000000008070374
:1003D00000000000001C2241000000000041221C1F
:1003E0000000000014083E081400000008083E0841
:1003F0000800000000503000000000000808080855
:1004000008000000006060000000000020100804E8
:10041000020000003E5149453E00000000427F407E
:100420000000000042615149460000002141454B57
:10043000310000001814127F1000000027454545C8
:10044000390000003C4A49493000000001710905AB
:100450000300000036494949360000000649492991
:100460001E00000000363600000000000056360076
:1004700000000000081422410000000014141414AD
:100480001414000041221408000000000201510968
:10049000060000003E415D5D1E0000007E1111114E
:1004A0007E0000007F494949360000003E4141413D
:1004B000220000007F4141221C0000007F49494981
:1004C000410000007F090909010000003E4149493F
:1004D0007A0000007F0808087F00000000417F418B
:1004E000000000002040413F010000007F0814226E
:1004F000410000007F404040400000007F020402B5
:100500007F0000007F0204087F0000003E4141415F
:100510003E0000007F090909060000003E4151210C
:100520005E0000007F09192946000000464949493C
:100530003100000001017F01010000003F40404008
:100540003F0000001F2040201F0000007F201820D7
:100550007F000000631408146300000003047804A3
:10056000030000006151494543000000003E414145
:100570000000000002040810200000000041413E7D
:10058000000000000402010204000000404040405E
:1005900040400000000003070000000020545454B5
:1005A000780000007F484444380000003844444448
:1005B00020000000384444487F0000003854545460
:1005C00018000000087E09010200000008145454BD
:1005D0003C0000007F0804047800000000447D40D7
:1005E000000000002040443D00000000007F102873
:1005F0004400000000417F40000000007C0418041B
:10060000780000007C08040478000000384444446A
:10061000380000007C14141408000000081414189A
:100620007C0000007C080404080000004854545476
:1006300020000000043F4440200000003C404020D7
:100640007C0000001C2040201C0000003C4030408A
:100650003C00000044281028440000000C5050507A
:100660003C0000004464544C440000000008364143
:100670000000000000007F0000000000004136087C
:1006800000000000080408100800000011241FBE2C
:10069000CFEFD4E0DEBFCDBF13E0A0E0B1E0EAECE5
:1006A000FDE202C005900D92AE36B107D9F723E006
:1006B000AEE6B3E001C01D92AC3BB207E1F70E9489
:1006C00098070C94E3160C940000CF93C82F0E9457
:1006D00098048C2F0E94C10460E680E60E943604D4
:1006E00060E680E70E9436044FEF63E08BE20E94F1
:1006F0006E048A98F8948BB780648BBF85B782604C
:1007000085BF85B78E7F85BFCF9108950F931F93C7
:10071000CF93DF938C010E94600482FDFCCFF8012F
:10072000C081D181D770BE0183E0769567958A95A7
:10073000E1F781E30E9436046C2F6295660F607EBC
:1007400082E30E943604F801628185E30E94360448
:10075000C0E0F8018281C81750F4F801EC0FF11DD8
:10076000638186E38C0F0E943604CF5FF2CF81E075
:10077000DF91CF911F910F910C9449040F931F9318
:10078000CF938C018CE20E94240480FF37C081E665
:100790000E942404C82F82E60E94240498E0C99F86
:1007A00090011124829586958770282BF80131835A
:1007B000208385E60E942404F8018283C0E0F801CA
:1007C0008281C81750F486E68C0F0E942404F80139
:1007D000EC0FF11D8383CF5FF2CF40E061E08CE24C
:1007E0000E946E0440E061E08CE20E946E0440E0F2
:1007F00062E08CE20E946E0480E001C081E0CF9153
:100800001F910F910895CF938FE00E942404C82F69
:10081000C07E1F92CF938CE191E09F938F930E94B3
:1008200005140F900F900F900F90C11103C08BE231
:1008300091E002C088E491E09F938F930E94051499
:100840000F900F90CF910895CF93C82F0E94D90495
:1008500083E00E94CD048C2F0E94CD040E94D1041D
:10086000C82F0E94D7048C2FCF910895CF93DF9388
:10087000D82FC62F0E94D90482E00E94CD048D2F6C
:100880000E94CD048C2F0E94CD04DF91CF910C9457
:10089000D704CF93C82F833050F080E791E09F9327
:1008A0008F930E9405140F900F90CF9108950E948E
:1008B000D9048C2F81680E94CD04CF910C94D70469
:1008C000CF930E94D90480EA0E94CD040E94D104F3
:1008D000C82F0E94D7048C2FCF9108951F93CF93D8
:1008E000DF93182FD62FC42F0E94D90485E00E94D1
:1008F000CD04812F0E94CD048D2F0E94CD048C2F1A
:100900000E94CD04DF91CF911F910C94D704CF9317
:10091000C82F0E94D9048C2F0E94CD04CF910C9433
:10092000D7040E94D90480EC0E9487040C94D70459
:100930000E94C6040E94910487EE93E00197F1F7AC
:1009400000C000008EE00E942404982F907E903812
:1009500061F01F928F938DE891E09F938F930E9497
:1009600005140F900F900F900F9063E08AE20E94A1
:10097000360461EB89E20E94360465E088E20C945B
:100980003604482F60EE8FE00C946E04BC9ABD9A3A
:10099000BF9ABE9881E58DB908958FB9779BFECF38
:1009A00008958FEF8FB9779BFECF8FB10895C49ACA
:1009B0000895C498089590BD89B9549A539A8EE8C1
:1009C00080BD08955D9BFECF8CB908950E94E2041E
:1009D00080E090E008955F9BFECF8CB10895CF93A7
:1009E0000E94EB04C82F0E94E2048C2F90E0CF916C
:1009F0000895E6EBF3E08EE091E09383828380E05C
:100A000091E0918380830895579A08951F920F92E1
:100A10000FB60F9211248F938CB18F910F900FBE50
:100A20000F901F901895FC01118285E080838583CB
:100A30001482138212828683178210929D03089576
:100A400080919E03811105C010929E0380E090E08A
:100A5000089584E193E00E94BC0E8FE793E00E942A
:100A6000D50C8FE793E00E94120D81E090E008958D
:100A7000CF93DF93EC0180917303909174030E94F4
:100A80007E061A8288818E831F82DF91CF9108951E
:100A9000CF93DF93CDB7DEB72B970FB6F894DEBFB9
:100AA0000FBECDBFFC01862F90E09A83898381E041
:100AB0008B831C821D821E821F82188619861A86CD
:100AC0001B866B3031F06D3031F06A3031F480814B
:100AD00003C0818101C082818C83CE0101960E9476
:100AE00086032B960FB6F894DEBF0FBECDBFDF9105
:100AF000CF910895CF93DF93EC016AE00E944805FF
:100B00006BE0CE010E9448056DE0CE01DF91CF91F0
:100B10000C9448050F931F93CF93DF938C01EB0147
:100B200089818F9388818F9387EF92E09F938F9332
:100B30000E9405140F900F900F900F90888199815B
:100B40008E309105A9F08F309105D1F00997D9F435
:100B50008B81F80186831F928F9380ED91E09F93A4
:100B60008F930E9405140F900F900F900F900BC061
:100B70008CE993E0DF91CF911F910F910C94380590
:100B800081E0F8018783DF91CF911F910F91089544
:100B9000CF93DF9382EF91E09F938F930E94051490
:100BA0008BE292E09F938F9381E392E09F938F93E8
:100BB0008BE392E09F938F930E9405148FE492E061
:100BC0009F938F930E9405148DB79EB70A960FB618
:100BD000F8949EBF0FBE8DBF80919D03882319F0AE
:100BE00086EE91E002C081EE91E09F938F9382E7C1
:100BF00092E09F938F938BE392E09F938F930E9459
:100C0000051480919C031F928F938DE792E09F9330
:100C10008F93C3E8D2E0DF93CF930E9405148091B5
:100C2000A0038F9380919F038F9387E992E09F9316
:100C30008F93DF93CF930E9405148DB79EB7429692
:100C40000FB6F8949EBF0FBE8DBF80919E03811199
:100C500003C08FEE91E002C08BEE91E09F938F93E3
:100C60008DE992E09F938F938BE392E09F938F9314
:100C70000E94051488EA92E09F938F930E940514C6
:100C80008DB79EB708960FB6F8949EBF0FBE8DBF66
:100C9000DF91CF910895FC019081993019F481E0A2
:100CA000808308959F5F90830895FC01958199301A
:100CB00019F481E0858308959F5F95830895FC0171
:100CC0009181923011F4118208959F5F918308956C
:100CD000FC0185E08083858311820895CF93DF93A3
:100CE000C0E0D4E060E0CE010E945B136096C034A7
:100CF00085E0D807B9F7DF91CF910895AF92BF9201
:100D0000CF92DF92EF92FF920F931F93CF93DF93D7
:100D10005C01C0E0D4E000E010E0CE010E946B1363
:100D200090E08A159B0540F480E1E82E85E0F82EDE
:100D300092E1C92ED12C11C00F5F1F4F6096033175
:100D4000110559F7DF91CF911F910F91FF90EF900F
:100D5000DF90CF90BF90AF9008950C151D057CF4E7
:100D6000C7010E946B13682FC70140960E945B1356
:100D700081E0C81AD10880E1E81AF108EECF6A2DA7
:100D8000CE01DF91CF911F910F91FF90EF90DF90F7
:100D9000CF90BF90AF900C945B132F923F924F92E5
:100DA0005F926F927F929F92AF92BF92CF92DF92AB
:100DB000EF92FF920F931F93CF93DF93CDB7DEB7E0
:100DC0002DB63EB6992493948111912C082F10E0F2
:100DD000005C1F4F4DB65EB6A92CB12CC501019722
:100DE000800F911F24E0880F991F2A95E1F70E9438
:100DF0006B13682E712CC3010E942213E82EF12C74
:100E000097012F5F3F4F4DB75EB7421B530B0FB695
:100E1000F8945EBF0FBE4DBFEDB7FEB731966F01C0
:100E2000482FBF01C3010E943413EC0CFD1C3FE0AE
:100E3000632E712CEC14FD0461F0F70142917F01E7
:100E400050E0B301C5010E94730FF1E06F1A710801
:100E5000F1CF0FB6F8945EBE0FBE4DBE939428E05E
:100E60009212B8CF0FB6F8943EBE0FBE2DBEDF91E2
:100E7000CF911F910F91FF90EF90DF90CF90BF9097
:100E8000AF909F907F906F905F904F903F902F908A
:100E900008950F931F93CF93DF93EC018B018FE1A4
:100EA00090E00E94DB040E94F9040E9404050E9465
:100EB000E31280E00E94650381EE92E09F938F939E
:100EC0000E9405140E944C130E940A0CC8010E9443
:100ED0003F0CCE010E94130589E088830E94290EF1
:100EE0000E94DD0F22E344E66AE08AE00E94ED0FF3
:100EF00044E160E280E40E944E102EE148E264E1A9
:100F000084E10E94BE100E946B0E2FE986E891E0FA
:100F1000215080409040E1F700C000000E9403048F
:100F200078940F900F90DF91CF911F910F910895BA
:100F30006FE773E08CE993E00E9449078AEA93E047
:100F400090937903809378030E94A3080E94C805B8
:100F5000789460917803709179038FE793E00E9411
:100F6000E20B809177038230A0F30E946B0E109207
:100F70007703EFCF1F920F920FB60F9211242F938A
:100F80003F934F935F936F937F938F939F93AF9311
:100F9000BF93EF93FF93CF93DF93CDB7DEB72B973C
:100FA000DEBFCDBFCE0101960E94BE038A818F9322
:100FB00089818F9385EE92E09F938F930E94051411
:100FC000BE016F5F7F4F8CE993E00E948A050F900E
:100FD0000F900F900F902B960FB6F894DEBF0FBEB8
:100FE000CDBFDF91CF91FF91EF91BF91AF919F91D5
:100FF0008F917F916F915F914F913F912F910F90C2
:101000000FBE0F901F9018951F920F920FB60F9260
:1010100011242F933F934F935F936F937F938F93FD
:101020009F93AF93BF93EF93FF93809177038F5F6D
:1010300080937703809176038F5F8093760380910E
:101040007003882349F08091710390917203019697
:10105000909372038093710380919E03882321F102
:1010600080916E0390916F03019690936F0380932C
:101070006E036BE470E00E94AF13892BA9F480919A
:101080007303909174030196909374038093730398
:101090009F938F9380E093E09F938F930E9405141A
:1010A0000F900F900F900F9088B7806888BFFF91C6
:1010B000EF91BF91AF919F918F917F916F915F91D0
:1010C0004F913F912F910F900FBE0F901F90189549
:1010D000CF93DF9320917603283090F1FB01EC0150
:1010E0008B859C8510927603833391055CF0928109
:1010F000992331F193839150928384819817E0F47E
:10110000815019C08E3C9F4FDCF42281422F50E069
:10111000858190E001974817590794F423832F5F46
:1011200022838481482F50E0495F5F4F30E04217AF
:10113000530714F48F5F84830E941113788B6F8799
:10114000DF91CF9108952F923F924F925F926F92CD
:101150007F928F929F92AF92BF92CF92DF92EF9247
:10116000FF920F931F93CF93DF93CDB7DEB72897EE
:101170000FB6F894DEBF0FBECDBF7C01DC01159623
:101180008C91893008F0E3C0C82ED12C360174E070
:10119000660C771C7A95E1F7A12CB12C18861F827A
:1011A0008F8198858615970509F4A5C0D701ED9123
:1011B000FC912F813885E20FF31FE49144E03695CE
:1011C00027954A95E1F73A832983F0E0B097AF017C
:1011D00063E0440F551F6A95E1F75C834B8300E0A1
:1011E00010E08F8098845FE0852299246F81788554
:1011F000605171097E836D832F80388470E2271AD5
:1012000031084F80588480E3481A5108D70112965C
:101210008C9190E09501200F311FE981FA818E17A2
:101220009F0739F48114910421F4F801EC57FB4F26
:101230004EC091E0FFE08F16910409F090E081E04C
:1012400040917A03423009F080E041E06D817E8177
:101250006031710508F040E0492359F0882349F0D6
:1012600080919C03F80178E0879FE00DF11D112427
:1012700025C041E0A0E12A16310408F040E04923EE
:1012800059F0882349F08091A103F801B8E08B9FC1
:10129000E00DF11D112412C041E0E0E14E165104B1
:1012A00008F040E0942369F0882359F080919D0371
:1012B000F80148E0849FE00DF11D1124EC5EFB4F26
:1012C00006C0EB81FC81E00FF11FEC56FC4F6491EE
:1012D000C9010E945B130F5F1F4F0830110509F011
:1012E00095CF6F8178856F5F7F4F78876F8378E0C8
:1012F000A70EB11C55CF08E010E00C191D0934E011
:10130000000F111F3A95E1F7D12C8D2D90E0801739
:1013100091070CF094C0860D971DFC0123E0EE0FA1
:10132000FF1F2A95E1F7FA83E983E12CF12C60E0B5
:1013300089819A818E0D9F1D0E945B139FEFE91A90
:10134000F90AA8E0EA16F10491F7D394DECFA12CB4
:10135000B12C00E010E0D70114968C911497F8019D
:1013600020E1829FE00DF11D1124CF01ED91FC9150
:10137000E80FF91F3491380184E0769467948A95D8
:10138000E1F7432F50E04052510993E0440F551FBD
:101390009A95E1F75A834983C12CD12C48016FE01B
:1013A00086229924D70112962C91129730E0149638
:1013B0008C91281B3109C6018A0D9B1D2615370506
:1013C00039F48114910421F4F601EC57FB4F06C067
:1013D000E981FA81EC0DFD1DEC56FC4F64910E94F1
:1013E0005B13BFEFCB1ADB0AE8E0CE16D104D1F6CF
:1013F0000F5F1F4FF8E0AF0EB11C0038110509F068
:10140000AACFD70114968C9190E028960FB6F89445
:10141000DEBF0FBECDBFDF91CF911F910F91FF9027
:10142000EF90DF90CF90BF90AF909F908F907F9084
:101430006F905F904F903F902F900C94CD06289620
:101440000FB6F894DEBF0FBECDBFDF91CF911F91D5
:101450000F91FF90EF90DF90CF90BF90AF909F9053
:101460008F907F906F905F904F903F902F90089556
:101470008F929F92BF92CF92DF92EF92FF920F9343
:101480001F93CF93DF93CDB7DEB7EDB6FEB61091C5
:10149000A20384E890E00E94BC0E812F90E08A3085
:1014A000910500F5FC01E85CFF4F0C94E5130E94E8
:1014B00078112BC00E947E1128C00E949C1125C06B
:1014C0000E94B41122C00E94C6111FC00E94E411E4
:1014D0001CC00E94021219C00E940E1216C00E9467
:1014E0002C1213C00E94DD0F22E344E66AE08AE07A
:1014F0000E94ED0F44E160E280E40E944E102EE174
:1015000048E264E184E10E94BE10C0907303D09071
:101510007403C6010E942213882E912C94012F5F20
:101520003F4F4DB75EB7421B530B0FB6F8945EBFEB
:101530000FBE4DBF0DB71EB70F5F1F4F482FB8012D
:10154000C6010E943413680187E0B82EC601801BD3
:10155000910B881599054CF4F60141916F016B2DA3
:1015600080E00E94730FB394F1CF0E946B0E0FB610
:10157000F894FEBE0FBEEDBEDF91CF911F910F918B
:10158000FF90EF90DF90CF90BF909F908F90089545
:101590001F93CF93DF93EB010E94DD0F80917A03BD
:1015A000813009F4EDC020F0823009F4C0C006C1DA
:1015B0008A81823009F445C058F4882389F081304B
:1015C00009F0F4C082E080937A0384EA93E0E9C0F2
:1015D0008330E9F1843009F0E9C069E373E0E8C0E1
:1015E0006FE073E080E00E940D0F81E0809375034F
:1015F00080939E038CE993E00E947A050E94C805BF
:101600000E9444120E946B0EC1E2D3E08091A303BA
:10161000811107C0DF93CF930E9405140F900F90A4
:10162000F5CF10927403109273030E942005892B4A
:1016300019F00E94380AF9CFDF91CF911F910C94D5
:101640006B0E81E080937A0380EB93E0AAC081E087
:10165000809370030E946E060E94DD0F12E0C1E2CB
:10166000D3E068E273E080E00E940D0F0E946B0EF1
:101670008091710390917203839738F4DF93CF9335
:101680000E9405140F900F90F3CF109272031092E6
:1016900071034EE26EE080E00E94730F0E946B0EB9
:1016A0008091710390917203839738F4DF93CF9305
:1016B0000E9405140F900F90F3CF109272031092B6
:1016C00071034EE26FE080E00E94730F0E946B0E88
:1016D0008091710390917203839738F4DF93CF93D5
:1016E0000E9405140F900F90F3CF10927203109286
:1016F000710340E26FE080E00E94730F0E946B0E66
:101700008091710390917203839738F4DF93CF93A4
:101710000E9405140F900F90F3CF10927203109255
:101720007103115009F09DCF1092700347C08A8158
:101730008230C1F058F4882371F08130B9F58CE91A
:1017400093E0DF91CF911F910C944B06833089F089
:10175000843019F12BC08CE993E0DF91CF911F9178
:101760000C9468068CE993E0DF91CF911F910C9463
:1017700055068CE993E0DF91CF911F910C945F06A1
:101780008A81882329F0813089F460E673E010C0F3
:1017900063E573E080E00E940D0F10927A038AEAFD
:1017A00093E0909379038093780308C066E473E034
:1017B00080E0DF91CF911F910C940D0FDF91CF91BD
:1017C0001F9108950F931F93CF93DF93EC018B012B
:1017D0000E94D50CB801CE010E94680821E030E0DB
:1017E0008D89882311F020E030E09E81892F90E0E0
:1017F00082239323892B21F0B801CE010E94C80ACD
:10180000C8010E94A3088E818D8BDF91CF911F911B
:101810000F910895EAEAF3E084E992E091838083EE
:1018200085E08583128213821482A0EBB3E024E565
:1018300031E011963C932E9394E115969C93159765
:1018400012961C92129713961C92139714961C9240
:10185000A4EAB3E024E031E011963C932E93159670
:101860008C93159712961C92129713961C921397AD
:1018700014961C92F0937903E09378030895CF9324
:10188000DF93EC018C98BB98BA98B998C29A60E83B
:1018900080E094E10E947B13B199FECF80E094E157
:1018A0000E948B13888780E094E10E948B138F83C2
:1018B0001A821B821C821D82198218821A8619863E
:1018C0001C861B861E861D861E82188A1F86198A04
:1018D0001A8A1B8A1C8A1D8A1E8A188E1F8A1A8ED3
:1018E000198E1C8E1B8EDF91CF910895FC016185AE
:1018F000728523853485CB0105960B9738F4C90191
:1019000005960B9718F4168615860895872F8095EF
:10191000881F8827881F90E0880F991F432F4095C4
:10192000441F4427441F842B8230910579F1833072
:10193000910589F00197D1F446EA4603C001479F1B
:10194000900D1124A901461B570BBA010E94AF1339
:10195000665A7F4F27C04AE5429FC001439F900DC2
:101960001124620F731F0E94AF131CC046EA42038A
:10197000C001439F900D1124719561957109621BFF
:10198000730B0E94AF136C547F4F0CC04AE5469F07
:10199000C001479F900D1124621B730B0E94AF136F
:1019A000625F7E4F768765870895CF93DF93EC0162
:1019B00060E080E094E10E947B13B199FECF80E06B
:1019C00094E10E948B13888380E094E10E948B1342
:1019D000898380E094E10E948B138B8380E094E103
:1019E0000E948B138A8381E0849B80E08C8381E05A
:1019F000B39B80E08D8381E0B29980E08E83888103
:101A000090E02885821B91099C878B87898190E0D3
:101A10002F81821B91099A878987CE01DF91CF910F
:101A20000C94760C0F931F93CF93DF93CDB7DEB753
:101A30002B970FB6F894DEBF0FBECDBF8C01FC0113
:101A400023853485818D928DA901481B590BCA01CC
:101A500057FF03C091958195910908978CF081E01B
:101A600090E09A83898382E08B832C833D83CE012F
:101A700001960E948603F80183859485928F818F59
:101A8000F801218532858789908DA901481B590B62
:101A9000CA0157FF03C0919581959109089784F079
:101AA00082E090E09A8389838B832C833D83CE01EF
:101AB00001960E948603F80181859285908F878B1D
:101AC000F80184819389891771F026E030E03A8328
:101AD000298391E09B838C83CE0101960E9486032B
:101AE000F8018481838BF80185819489891771F0CD
:101AF00027E030E03A83298391E09B838C83CE01F9
:101B000001960E948603F8018581848BF801868105
:101B10009689891771F023E030E03A83298391E0B8
:101B20009B838C83CE0101960E948603F8018681F7
:101B3000868BF8012381822F90E03289831B9109E3
:101B400097FF03C0919581959109039774F085E003
:101B500090E09A83898381E08B832C83CE01019668
:101B60000E948603F8018381828BF8012281822FF3
:101B700090E03189831B910997FF03C0919581956E
:101B800091090B9774F084E090E09A83898381E057
:101B90008B832C83CE0101960E948603F8018281FB
:101BA000818BF80185859685238D348D8217930767
:101BB00089F028E030E03A83298322E02B838C836C
:101BC0009D83CE0101960E948603F8018585968546
:101BD000948F838F2B960FB6F894DEBF0FBECDBFC8
:101BE000DF91CF911F910F910895682F80E090E0D1
:101BF0000C947B13EF92FF920F931F93CF93DF937D
:101C0000EC018C01060F171FE12C82E0F82EC017A3
:101C1000D10741F06991C7010E947B138FEFE81A49
:101C2000F80AF5CFDF91CF911F910F91FF90EF90C0
:101C300008958770806B0C94F50DCF93C82F829513
:101C40008F7080610E94F50D8C2F8F70CF910C9456
:101C5000F50D8EEA0E94F50D81EA0E94F50D8AEDE0
:101C60000E94F50D82E10E94F50D88EC0E94F50DB1
:101C700088EA0E94F50D8FE30E94F50D85ED0E9424
:101C8000F50D80E80E94F50D81E80E94F50D80E5D4
:101C90000E94F50D89ED0E94F50D81E20E94F50D7F
:101CA00080E20E94F50D82E00E94F50D8BED0E940E
:101CB000F50D80E30E94F50D8DEA0E94F50D80E0A0
:101CC0000E94F50D84EA0E94F50D86EA0E94F50D4A
:101CD0008FEA0C94F50D8F929F92AF92BF92CF92A4
:101CE000DF92EF92FF921F93CF93DF93CDB7DEB7D2
:101CF000C058D1090FB6F894DEBF0FBECDBFCE01DC
:101D000001965C01CC24DD24C81AD90A10E04E01EA
:101D100091E8890E911C812F0E94190E80E00E948B
:101D20001D0E7501E814F90449F0C6018E0D9F1DC2
:101D30000E946B13F70181937F01F4CF60E870E09C
:101D4000C5010E94FA0D1F5FF0E8CF0ED11C1830BC
:101D500011F7C058DF4F0FB6F894DEBF0FBECDBFEE
:101D6000DF91CF911F91FF90EF90DF90CF90BF90C8
:101D7000AF909F908F900895CF92DF92EF92FF9255
:101D80000F931F93CF93DF937C0100E010E0F701E6
:101D9000C49180EE8C0F803668F5D0E0A09783E088
:101DA000CC0FDD1F8A95E1F7C12CD12CFE01EC0D83
:101DB000FD1DEC56FC4F6491C601800F911F0E94DF
:101DC0005B13FFEFCF1ADF0A88E0C816D10471F762
:101DD0009FEFE91AF90A085F1F4F0115E4E01E079B
:101DE000B1F6DF91CF911F910F91FF90EF90DF90AF
:101DF000CF900895C4E9D3E0C801845993406C01A1
:101E0000FE016491C6018C0F9D1F0E945B132196F9
:101E1000F3E0CC39DF07A1F7DBCFAF92BF92CF92CF
:101E2000DF92EF92FF921F93CF93DF93883008F0F9
:101E300050C020E8829FE00111247B015E0110E088
:101E4000F7018081882319F1C12CD12CF701808101
:101E5000F60128E0829FE00DF11D1124EC56FD4FA4
:101E60006491C5018C0D9D1D0E945B133FEFC31A49
:101E7000D30A88E0C816D10449F71F5F9FEFE91A1B
:101E8000F90AE8E0AE0EB11C1031D1F622C09CE98F
:101E9000A92E93E0B92E84E9C82E83E0D82ECE0176
:101EA00028E0129F800D911D1124FC01E459F3409C
:101EB0007F01F6016491C7018C0D9D1D0E945B138B
:101EC000FFEFCF1ADF0AAC14BD0499F71F5F103182
:101ED00011F7DF91CF911F91FF90EF90DF90CF909E
:101EE000BF90AF900895EF92FF920F931F93CF93FF
:101EF000DF93883058F5603148F5C62FD0E090E187
:101F0000899FC00DD11D112483E0CC0FDD1F8A9560
:101F1000E1F7042F10E00052110993E0000F111FA8
:101F20009A95E1F7E12CF12CF801EE0DFF1DEC562E
:101F3000FC4F6491CE018E0D9F1D0E945B138FEFAD
:101F4000E81AF80A98E0E916F10471F7DF91CF91E9
:101F50001F910F91FF90EF9008950F931F93CF93D0
:101F6000DF93803428F567FD23C0042F182F869552
:101F700086958695C62FD0E090E8899FC00DD11D2B
:101F80001124CE010E946B13177061E070E001C054
:101F9000660F1A95EAF7002311F0682B02C06095CE
:101FA0006823CE01DF91CF911F910F910C945B13A9
:101FB000DF91CF911F910F910895CF93DF93C0E0F0
:101FC000D0E060E0CE010E945B132196C11584E051
:101FD000D807B9F7DF91CF9108956F927F928F92D2
:101FE0009F92AF92BF92CF92DF92EF92FF920F93A8
:101FF0001F93CF93DF93E82EF62E942E822EC42FBC
:10200000D0E0C81BD109D7FF03C0D195C195D10934
:10201000082D10E00F19110917FF03C01195019544
:102020001109E91418F066246A9402C066246394C6
:10203000F81418F077247A9402C0772473946E0110
:10204000C01AD10AAA24BB24A01AB10A41E06E2DFD
:102050008F2D0E94AD0FE91002C0F81481F0C60167
:10206000880F991FA816B9061CF4C01AD10AE60CED
:102070008C179D075CF7CC0EDD1EF70CE7CFDF91C8
:10208000CF911F910F91FF90EF90DF90CF90BF9075
:10209000AF909F908F907F906F9008959F92AF9296
:1020A000BF92CF92DF92EF92FF920F931F93CF9345
:1020B000DF93D82EC62EC42FD0E0E12CF12C00E007
:1020C00010E041E0BC2EBD0C6B2D9C2C900E892D98
:1020D0000E94AD0F41E0AD2CAC1A6A2D892D0E94F3
:1020E000AD0F41E06B2DBC2CB01A8B2D0E94AD0FB3
:1020F00041E06A2D8B2D0E94AD0F41E0BD2CB00E4A
:102100006B2D9C2E9C0C892D0E94AD0F41E0AD2CB7
:10211000A01A6A2D892D0E94AD0F41E06B2DBC2CB9
:10212000BC1A8B2D0E94AD0F41E06A2D8B2D0E94B1
:10213000AD0F1E141F045CF00F5F1F4FC801880F06
:10214000991F0196E80EF91E1E141F043CF42197F6
:10215000CE01880F991F0196E81AF90AC017D10716
:102160000CF0AFCFDF91CF911F910F91FF90EF90C7
:10217000DF90CF90BF90AF909F9008950F931F93E3
:10218000CF93DF93082F162FD22FC82FC40F262FDF
:102190004C2F0E94ED0FD10F2D2F4C2F6D2F802F24
:1021A0000E94ED0F2D2F402F612F802F0E94ED0FE9
:1021B0002D2F4C2F612F8C2FDF91CF911F910F91DD
:1021C0000C94ED0F0F931F93CF93DF93D82F162FFF
:1021D000C42F022F0E94ED0F41E04C0F202F612FE2
:1021E00081E08D0F0E94ED0F4FEF4C0F202F612FDC
:1021F0008FEF8D0FDF91CF911F910F910C94ED0F09
:102200008F929F92AF92BF92CF92DF92EF92FF9206
:102210000F931F93CF93DF93B82EA62E4901C42F9F
:10222000D0E0C12CD12CE12CF12C8EE28816910447
:102230005CF40D321105ACF141E06C2F6B0D8A2D71
:102240008E0D0E94AD0F0EC098E88916910454F0CF
:1022500082EE8816910484F08CE3881681E098065B
:1022600004F514C007381105E4F041E06B2D6E1938
:102270008C2F8A0D0E94AD0F013E110594F041E0B4
:102280006B2D6C1B8A2D8E190E94AD0F0B3391E0C4
:1022900019073CF041E06B2D6E0D8A2D8C1B0E94BE
:1022A000AD0F1C141D0464F08FEFE81AF80AC70183
:1022B000880F991F0196C80ED91E1C141D043CF4EA
:1022C0002197CE01880F991F0196C81AD90ACE15F9
:1022D000DF050CF0AACFDF91CF911F910F91FF90F6
:1022E000EF90DF90CF90BF90AF909F908F90089528
:1022F00020E348E460E188E40C94E21020E148E641
:1023000060E188E40E94E21020E248E660E188E6AD
:102310000E94E21020E248E460E288E60E94E210B7
:1023200020E348E460E288E40E94E21020E348E60B
:1023300060E388E40C94E21020E148E660E188E480
:102340000E94E21020E348E660E188E60E94E21085
:1023500020E248E660E288E40E94E21020E348E6DA
:1023600060E388E40C94E21020E248E460E188E451
:102370000E94E21020E248E660E288E40E94E21057
:1023800020E348E660E188E60C94E21020E148E4AE
:1023900060E188E60E94E21020E248E460E188E41F
:1023A0000E94E21020E248E660E288E40E94E21027
:1023B00020E348E660E288E60E94E21020E348E677
:1023C00060E388E40C94E21020E148E460E188E6F0
:1023D0000E94E21020E348E460E188E40E94E210F9
:1023E00020E348E660E388E40E94E21020E248E44B
:1023F00060E288E60E94E21020E348E660E288E6B8
:102400000C94E21020E148E660E188E40E94E210CA
:1024100020E348E660E188E60C94E21020E148E61B
:1024200060E188E40E94E21020E348E660E388E48B
:102430000E94E21020E348E460E188E40E94E21098
:1024400020E348E660E188E60E94E21020E248E6E8
:1024500060E288E40C94E21020E148E660E188E460
:102460000E94E21020E348E660E188E60E94E21064
:1024700020E248E660E288E40E94E21020E248E4BC
:1024800060E188E40C94E2100F931F934CE064E148
:1024900080E60E944E1007E810E02DE230E040E1B7
:1024A00064E180E60E94001101EE10E027E830E0D0
:1024B00040E164E180E60E9400110BE311E021EEAF
:1024C00030E040E164E180E60E9400110DE210E09E
:1024D0002BE331E040E164E180E60E94001120E35B
:1024E00040E260E480E00E94ED0F28E340E460E316
:1024F00080E20E94ED0F28E240E668E380E40E945B
:10250000ED0F20E440E868E280E60E94ED0F24E34E
:1025100040E26CE380E00E94ED0F2CE340E464E3D2
:1025200080E20E94ED0F24E340E66CE380E40E9429
:10253000ED0F2CE340E864E380E60E94ED0F2AE013
:102540004AE06CE284E30E94BE1026E249E36CE2BA
:1025500084E30E94ED0F2CE24EE366E289E30E94E1
:10256000ED0F26E246E46CE286E40E94ED0F43E0C4
:1025700064E286E41F910F910C944E101F920F920B
:102580000FB60F9211248F939F93AF93BF938091B7
:102590007B0390917C03A0917D03B0917E03019613
:1025A000A11DB11D80937B0390937C03A0937D03B9
:1025B000B0937E03BF91AF919F918F910F900FBE0B
:1025C0000F901F9018951FBC8EB581608EBD89B786
:1025D000806889BF1DBC1CBC10928B0085E0809375
:1025E0008A00EDE7F0E080818460808310928900AA
:1025F00010928800089580917B0390917C03A091B4
:102600007D03B0917E032091880030918900DC0128
:1026100099278827BC01CD01620F731F811D911D71
:1026200008950E94FB129B01AC01A8EEB3E00E944A
:10263000EB1320EC32E140E050E00E94C313CA01EA
:10264000B9010895009771F020E030E0EAE0F0E091
:10265000BF010E949B13CB012F5F3F4F0097C1F733
:10266000822F089581E00895CF93DF939B01E42F9B
:10267000F0E0E60FF71F1082CAE0D0E0E217F307A0
:1026800041F03197BE010E949B13805D8083CB0196
:10269000F5CFDF91CF9108958FEF8ABB8FE084BB98
:1026A0008E9A8F9A319A85B7806885BF10BE80B7A1
:1026B000806280BF0895CF93DF9300D0CDB7DEB79F
:1026C0009A838983E981FA81F85E60830F900F9085
:1026D000DF91CF910895CF93DF9300D0CDB7DEB7D0
:1026E0009A838983E981FA81F85E80810F900F9047
:1026F000DF91CF910895CF93DF9300D0CDB7DEB7B0
:102700009A838983E981FA81F05F60830F900F904B
:10271000DF91CF910895CF93DF9300D0CDB7DEB78F
:102720009A838983E981FA81F05F80810F900F900D
:10273000DF91CF910895AA1BBB1B51E107C0AA1FCF
:10274000BB1FA617B70710F0A61BB70B881F991F52
:102750005A95A9F780959095BC01CD01089597FBF6
:10276000072E16F4009407D077FD09D00E949B1322
:1027700007FC05D03EF4909581959F4F0895709584
:1027800061957F4F0895A1E21A2EAA1BBB1BFD0184
:102790000DC0AA1FBB1FEE1FFF1FA217B307E40740
:1027A000F50720F0A21BB30BE40BF50B661F771F98
:1027B000881F991F1A9469F7609570958095909578
:1027C0009B01AC01BD01CF010895EE0FFF1F0590E5
:1027D000F491E02D09940E94F613A59F900DB49FEB
:1027E000900DA49F800D911D11240895A29FB0010A
:1027F000B39FC001A39F700D811D1124911DB29F35
:10280000700D811D1124911D0895A0E0B0E0EBE052
:10281000F4E10C94BC16AE014B5F5F4FFA0161917D
:102820007191AF018091B8039091B9030E941B147C
:10283000E2E00C94D816ABE0B0E0E1E2F4E10C94F5
:10284000AC166C017B018A01FC0117821682838120
:1028500081FFCCC1CE0101963C01F6019381F701C5
:1028600093FD859193FF81917F01882309F4BAC17B
:10287000853239F493FD859193FF81917F018532F3
:1028800029F4B60190E00E941216E7CF912C212C7A
:10289000312CFFE1F315D8F08B3279F038F4803227
:1028A00079F08332A1F4232D20611DC08D3261F0B7
:1028B000803369F4232D216016C0832D8260382E69
:1028C000E32DE4603E2E2AC0F32DF8601DC037FCD6
:1028D0002DC020ED280F2A3040F08E32B9F436FC9E
:1028E00081C1232D2064322E19C036FE06C08AE035
:1028F000989E200D1124922E11C0EAE02E9E200DEC
:102900001124222EF32DF0623F2E08C08C3621F4C4
:10291000832D8068382E02C0883641F4F70193FD7C
:10292000859193FF81917F018111B3CF982F9F7D76
:102930009554933028F40C5F1F4F9FE399830DC08B
:10294000833631F0833771F0833509F059C021C0E7
:10295000F801808189830E5F1F4F88248394912C16
:10296000530113C02801F2E04F0E511CF801A08062
:10297000B18036FE03C0692D70E002C06FEF7FEFBB
:10298000C5010E9407164C018201F32DFF773F2EEF
:1029900016C0280122E0420E511CF801A080B1802F
:1029A00036FE03C0692D70E002C06FEF7FEFC501F6
:1029B0000E94FC154C01F32DF0683F2E820133FC80
:1029C0001BC0822D90E088169906B0F4B60180E213
:1029D00090E00E9412162A94F4CFF50137FC8591FD
:1029E00037FE81915F01B60190E00E94121621101E
:1029F0002A9421E0821A91088114910471F7E8C0A9
:102A0000843611F0893641F5F80137FE07C0608140
:102A10007181828193810C5F1F4F08C06081718139
:102A2000072E000C880B990B0E5F1F4FF32DFF76BE
:102A30003F2E97FF09C090958095709561957F4FC7
:102A40008F4F9F4FF0683F2E2AE030E0A3010E9495
:102A50004E16882E861845C0853731F4232D2F7EDB
:102A6000B22E2AE030E025C0932D997FB92E8F3603
:102A7000C1F018F4883579F0B5C0803719F088377F
:102A800021F0B0C0E92FE061BE2EB4FE0DC0FB2DD9
:102A9000F460BF2E09C034FE0AC0292F2660B22E72
:102AA00006C028E030E005C020E130E002C020E1AF
:102AB00032E0F801B7FE07C06081718182819381A5
:102AC0000C5F1F4F06C06081718180E090E00E5F57
:102AD0001F4FA3010E944E16882E8618FB2DFF77EC
:102AE0003F2E36FE0DC0232D2E7FA22E891458F4C2
:102AF00034FE0BC032FC09C0832D8E7EA82E05C08B
:102B0000B82CA32C03C0B82C01C0B92CA4FE0FC054
:102B1000FE01E80DF11D8081803321F49A2D997E0C
:102B2000A92E09C0A2FE06C0B394B39404C08A2D96
:102B3000867809F0B394A3FC11C0A0FE06C0B214BD
:102B400088F4280C922C9B180EC0B21460F4B601C5
:102B500080E290E00E941216B394F7CFB21418F4FA
:102B60002B1802C0982C212CA4FE10C0B60180E3C3
:102B700090E00E941216A2FE17C0A1FC03C088E7D5
:102B800090E002C088E590E0B6010CC08A2D8678FE
:102B900059F0A1FE02C08BE201C080E2A7FC8DE2E9
:102BA000B60190E00E941216891438F4B60180E351
:102BB00090E00E9412169A94F7CF8A94F301E80DE0
:102BC000F11D8081B60190E00E9412168110F5CFB0
:102BD000222009F442CEB60180E290E00E94121653
:102BE0002A94F6CFF6018681978102C08FEF9FEF7E
:102BF0002B96E2E10C94C816FC01059061507040E0
:102C00000110D8F7809590958E0F9F1F0895FC01B5
:102C10006150704001900110D8F7809590958E0F0B
:102C20009F1F08950F931F93CF93DF93FB01238181
:102C300021FD03C08FEF9FEF2CC022FF16C04681FD
:102C40005781248135814217530744F4A081B18113
:102C50009D012F5F3F4F318320838C9326813781E5
:102C60002F5F3F4F3783268314C08B01EC01FB019C
:102C70000084F185E02D0995892BE1F6D80116969F
:102C80008D919C911797019617969C938E9316970A
:102C9000CE01DF91CF911F910F910895FA01AA27DC
:102CA000283051F1203181F1E8946F936E7F6E5F8F
:102CB0007F4F8F4F9F4FAF4FB1E03ED0B4E03CD03D
:102CC000670F781F891F9A1FA11D680F791F8A1F20
:102CD000911DA11D6A0F711D811D911DA11D20D087
:102CE00009F468943F912AE0269F11243019305D41
:102CF0003193DEF6CF010895462F4770405D419332
:102D0000B3E00FD0C9F7F6CF462F4F70405D4A337E
:102D100018F0495D31FD4052419302D0A9F7EACF46
:102D2000B4E0A6959795879577956795BA95C9F775
:102D300000976105710508959B01AC010A2E069468
:102D40005795479537952795BA95C9F7620F731F21
:102D5000841F951FA01D08952F923F924F925F925E
:102D60006F927F928F929F92AF92BF92CF92DF929B
:102D7000EF92FF920F931F93CF93DF93CDB7DEB700
:102D8000CA1BDB0B0FB6F894DEBF0FBECDBF099494
:102D90002A88398848885F846E847D848C849B84EB
:102DA000AA84B984C884DF80EE80FD800C811B81F9
:102DB000AA81B981CE0FD11D0FB6F894DEBF0FBE28
:0A2DC000CDBFED010895F894FFCF98
:102DCA0000000001000000000000EF040000000005
:102DDA00000200000000E6040000000043414E53D8
:102DEA005441543A20307825580A004D4350323520
:102DFA0031352065722069206E6F726D616C2D6DA0
:102E0A006F6475732E0A0D004665696C3A204D434E
:102E1A00503235313520657220696B6B6520692027
:102E2A006E6F726D616C2D6D6F6475732E0A0D0075
:102E3A006665696C2069204D4350323531355F52E1
:102E4A00657175657374546F53656E64004D4350B4
:102E5A003235313520657220696B6B6A65206920CD
:102E6A006B6F6E666967757261736A6F6E736D6F89
:102E7A006475732065747465722072657365742E47
:102E8A002043414E535441543A202578200D0A00DC
:102E9A004C69766573206C6566743A2025640A0D60
:102EAA000045617379004861726400596573004E88
:102EBA006F000A3D3D3D3D3D3D3D3D3D3D3D3D3D76
:102ECA003D3D3D3D3D3D3D2047616D65205374616B
:102EDA00747573203D3D3D3D3D3D3D3D3D3D3D3D90
:102EEA003D3D3D3D3D3D3D3D0A0D0056616C7565DC
:102EFA0000417474726962757465007C20252D31F5
:102F0A003573207C20252D313073207C0A0D007CFE
:102F1A002D2D2D2D2D2D2D2D2D2D2D2D2D2D2D2DD7
:102F2A002D7C2D2D2D2D2D2D2D2D2D2D2D2D7C0A4C
:102F3A000D00446966666963756C7479004C69763C
:102F4A006573007C20252D313573207C20252D3199
:102F5A003064207C0A0D0053636F726500537461FC
:102F6A0072742047616D65003D3D3D3D3D3D3D3DEF
:102F7A003D3D3D3D3D3D3D3D3D3D3D3D3D3D3D3D77
:102F8A003D3D3D3D3D3D3D3D3D3D3D3D3D3D3D3D67
:102F9A003D3D3D3D3D3D3D3D3D3D3D3D3D0A0A0DED
:102FAA0000474F21006D656C64696E672074617417
:102FBA007420696D6F742049443A2025640A0D0013
:102FCA0073636F72652B2B3A202564200D0A005318
:102FDA00746172746172207370656C65742E2E2E22
:102FEA000020202020200D005265736574746572DC
:102FFA002073636F72652020004176736C75747458
:10300A0061722E2E2E005567796C6469672076618D
:10301A006C67004974656D20312076616C677400B5
:0E302A004974656D20322076616C6774000079
:00000001FF
