:100000000C94FC020C94E3060C9419030C94190351
:100010000C9419030C9419030C9419030C941903F0
:100020000C9419030C94230F0C9419030C941903CA
:100030000C9419030C9419030C9419030C942D07B8
:100040000C9419030C9419030C9419030C94BC041C
:100050000C9419030C9419030C9419030C941903B0
:100060000C9419030C9419030C9419030C941903A0
:100070002052657365742073657474696E677320AC
:10008000204C69766573202020202020202020200D
:100090002053656E73697469766974792020202015
:1000A00020446966666963756C747920202020207D
:1000B000204261636B20202020202020202020204F
:1000C000204241434B20202020202020202020209F
:1000D000204E722E20313A20202020202020202067
:1000E000204E722E20323A20202020202020202056
:1000F000204E722E20333A20202020202020202045
:10010000204E722E20343A20202020202020202033
:10011000204E722E20353A20202020202020202022
:10012000204E722E20363A20202020202020202011
:10013000204E722E20373A20202020202020202000
:10014000204E722E20383A202020202020202020EF
:10015000204E722E20393A202020202020202020DE
:10016000204E722E2031303A2020202020202020C6
:10017000204E722E2031313A2020202020202020B5
:10018000204E722E2031323A2020202020202020A4
:10019000204E722E2031333A202020202020202093
:1001A000204E722E2031343A202020202020202082
:1001B000204E722E2031353A202020202020202071
:1001C000204E722E2031363A202020202020202060
:1001D000204E722E2031373A20202020202020204F
:1001E000204E722E2031383A20202020202020203E
:1001F000204E722E2031393A20202020202020202D
:100200002053746172742047616D65202020202086
:100210002053657474696E6773202020202020208D
:1002200020486967682053636F726573202020201F
:1002300020437265646974732020202020202020D0
:100240002045786974202020202020202020202094
:10025000000000000000000000000000000000009E
:10026000000000000000000000000000000000008E
:10027000000000000000000000000000000000007E
:100280002020207961704040402A2020202020201A
:1002900020202023404040232020202A23202020EB
:1002A0002020234040402A20202A40404040232054
:1002B0002A20202B23404040404040202040404006
:1002C00040402020202B404040402A202020404019
:1002D0004040402525404040404040202B20202ADF
:1002E0002023404040402A20202A40404023202014
:1002F0002020202323202020234040402320202092
:10030000000000000000000000005F00000000008E
:100310000007000700000000147F147F1400000095
:10032000242A7F2A120000002313086462000000C0
:100330003649562050000000000807030000000066
:10034000001C2241000000000041221C00000000AF
:1003500014083E081400000008083E0808000000C9
:1003600000503000000000000808080808000000E5
:10037000006060000000000020100804020000007F
:100380003E5149453E00000000427F400000000011
:1003900042615149460000002141454B31000000B7
:1003A0001814127F10000000274545453900000051
:1003B0003C4A494930000000017109050300000072
:1003C0003649494936000000064949291E00000007
:1003D0000036360000000000005636000000000025
:1003E0000814224100000000141414141414000016
:1003F000412214080000000002015109060000001B
:100400003E415D5D1E0000007E1111117E00000066
:100410007F494949360000003E4141412200000029
:100420007F4141221C0000007F49494941000000F2
:100430007F090909010000003E4149497A00000096
:100440007F0808087F00000000417F410000000095
:100450002040413F010000007F08142241000000BD
:100460007F404040400000007F0204027F00000007
:100470007F0204087F0000003E4141413E00000031
:100480007F090909060000003E4151215E0000007D
:100490007F091929460000004649494931000000FA
:1004A00001017F01010000003F4040403F0000008B
:1004B0001F2040201F0000007F2018207F00000028
:1004C00063140814630000000304780403000000B0
:1004D0006151494543000000003E414100000000D9
:1004E00002040810200000000041413E000000000E
:1004F000040201020400000040404040404000006F
:10050000000003070000000020545454780000004D
:100510007F48444438000000384444442000000030
:10052000384444487F0000003854545418000000F8
:10053000087E090102000000081454543C00000029
:100540007F0804047800000000447D4000000000A3
:100550002040443D00000000007F102844000000BF
:1005600000417F40000000007C0418047800000077
:100570007C0804047800000038444444380000003B
:100580007C14141408000000081414187C000000E7
:100590007C08040408000000485454542000000063
:1005A000043F4440200000003C4040207C0000000C
:1005B0001C2040201C0000003C4030403C0000005B
:1005C00044281028440000000C5050503C0000000B
:1005D0004464544C44000000000836410000000010
:1005E00000007F000000000000413608000000000D
:1005F000080408100800000011241FBECFEFD4E04B
:10060000DEBFCDBF13E0A0E0B1E0E6E8F6E202C055
:1006100005900D92AA35B107D9F723E0AAE5B3E01A
:1006200001C01D92AF39B207E1F70E9480060C9419
:1006300041130C940000CF93C82F0E944E048C2FBE
:100640000E94770460E680E60E94EC0360E680E7A3
:100650000E94EC034FEF63E08BE20E9424048A982F
:10066000F8948BB780648BBF85B7826085BF85B7F0
:100670008E7F85BFCF9108950F931F93CF93DF9304
:100680008C010E94160482FDFCCFF801C081D1814B
:10069000D770BE0183E0769567958A95E1F781E38F
:1006A0000E94EC036C2F6295660F607E82E30E94CD
:1006B000EC03F801628185E30E94EC03C0E0F801DD
:1006C0008281C81750F4F801EC0FF11D638186E3B5
:1006D0008C0F0E94EC03CF5FF2CF81E0DF91CF91CE
:1006E0001F910F910C94FF030F931F93CF938C01D5
:1006F0008CE20E94DA0380FF37C081E60E94DA03B1
:10070000C82F82E60E94DA0398E0C99F9001112465
:10071000829586958770282BF8013183208385E6A2
:100720000E94DA03F8018283C0E0F8018281C817D1
:1007300050F486E68C0F0E94DA03F801EC0FF11DED
:100740008383CF5FF2CF40E061E08CE20E9424041B
:1007500040E061E08CE20E94240440E062E08CE230
:100760000E94240480E001C081E0CF911F910F918D
:100770000895CF938FE00E94DA03C82FC07E1F92A6
:10078000CF938CE191E09F938F930E9463100F9021
:100790000F900F900F90C11103C08BE291E002C047
:1007A00088E491E09F938F930E9463100F900F90C5
:1007B000CF910895CF93C82F0E948F0483E00E94A9
:1007C00083048C2F0E9483040E948704C82F0E94F8
:1007D0008D048C2FCF910895CF93DF93D82FC62F00
:1007E0000E948F0482E00E9483048D2F0E94830464
:1007F0008C2F0E948304DF91CF910C948D04CF93B2
:10080000C82F833050F080E791E09F938F930E9430
:1008100063100F900F90CF9108950E948F048C2F3A
:1008200081680E948304CF910C948D04CF930E9421
:100830008F0480EA0E9483040E948704C82F0E94CC
:100840008D048C2FCF9108951F93CF93DF93182F92
:10085000D62FC42F0E948F0485E00E948304812F2D
:100860000E9483048D2F0E9483048C2F0E94830496
:10087000DF91CF911F910C948D04CF93C82F0E94CC
:100880008F048C2F0E948304CF910C948D040E94BE
:100890008F0480EC0E943D040C948D040E947C0423
:1008A0000E94470487EE93E00197F1F700C0000033
:1008B0008EE00E94DA03982F907E903861F01F92AC
:1008C0008F938DE891E09F938F930E9463100F9018
:1008D0000F900F900F9063E08AE20E94EC0361EBAF
:1008E00089E20E94EC0365E088E20C94EC03482F57
:1008F00060EE8FE00C942404BC9ABD9ABF9ABE9817
:1009000081E58DB908958FB9779BFECF08958FEF5C
:100910008FB9779BFECF8FB10895C49A0895C4987C
:10092000089590BD89B9549A539A8EE880BD089570
:100930005D9BFECF8CB908950E94980480E090E002
:1009400008955F9BFECF8CB10895CF930E94A104C0
:10095000C82F0E9498048C2F90E0CF910895E9E968
:10096000F3E08EE091E09383828380E091E09183D5
:1009700080830895579A08951F920F920FB60F9291
:1009800011248F938CB18F910F900FBE0F901F90F9
:100990001895FC01118285E080838583148213827F
:1009A00012828683109281030895809180038111C1
:1009B00005C01092820380E090E0089580E892E004
:1009C0000E94FD0C83E693E00E94160B83E693E001
:1009D0000E94530B81E090E00895CF93DF93CDB751
:1009E000DEB72B970FB6F894DEBF0FBECDBFFC016C
:1009F000862F90E09A83898381E08B831C821D82FD
:100A00001E821F82188619861A861B866B3031F06B
:100A10006D3031F06A3031F4808103C0818101C0D2
:100A200082818C83CE0101960E943C032B960FB6E7
:100A3000F894DEBF0FBECDBFDF91CF910895CF9365
:100A4000DF93EC016AE00E94ED046BE0CE010E94AE
:100A5000ED046DE0CE01DF91CF910C94ED040F9386
:100A60001F93CF93DF938C01EB0189818F93888152
:100A70008F9387EF92E09F938F930E9463100F9064
:100A80000F900F900F9088819981099779F48B814D
:100A9000F80186831F928F9380ED91E09F938F934F
:100AA0000E9463100F900F900F900F90DF91CF91E5
:100AB0001F910F910895CF93DF9382EF91E09F9361
:100AC0008F930E9463108BE292E09F938F9381E358
:100AD00092E09F938F938BE392E09F938F930E947A
:100AE00063108FE492E09F938F930E9463108DB701
:100AF0009EB70A960FB6F8949EBF0FBE8DBF809129
:100B00008103882319F086EE91E002C081EE91E026
:100B10009F938F9382E792E09F938F938BE392E072
:100B20009F938F930E946310809180031F928F93F5
:100B30008DE792E09F938F93C3E8D2E0DF93CF934A
:100B40000E946310809184038F93809183038F931D
:100B500087E992E09F938F93DF93CF930E94631076
:100B60008DB79EB742960FB6F8949EBF0FBE8DBF4D
:100B700080918203811103C08FEE91E002C08BEE61
:100B800091E09F938F938DE992E09F938F938BE3F6
:100B900092E09F938F930E94631088EA92E09F9364
:100BA0008F930E9463108DB79EB708960FB6F89486
:100BB0009EBF0FBE8DBFDF91CF910895FC01908144
:100BC000993019F481E0808308959F5F90830895A0
:100BD000FC019581993019F481E0858308959F5F28
:100BE00095830895FC019181933019F481E081830C
:100BF00008959F5F91830895FC0185E0808385833C
:100C000081E0818308952F923F924F925F926F927D
:100C10007F929F92AF92BF92CF92DF92EF92FF921C
:100C20000F931F93CF93DF93CDB7DEB72DB63EB6AC
:100C3000992493948111912CE82EF12C20E4E20E5A
:100C4000F11C4DB65EB6A92CB12CC50101978E0DD5
:100C50009F1D24E0880F991F2A95E1F70E94CF0F6E
:100C6000682E712CC3010E94870F082F10E0C80165
:100C70000196EDB7FEB7E81BF90B0FB6F894FEBF6F
:100C80000FBEEDBF2DB73EB72F5F3F4F6901A801E3
:100C9000B901C3010E94990F0C0D1D1D3FE0632E89
:100CA000712C0C151D0561F0F80142918F0150E087
:100CB000B301C5010E94B40DF1E06F1A7108F1CFC4
:100CC0000FB6F8945EBE0FBE4DBE939428E092120C
:100CD000B8CF0FB6F8943EBE0FBE2DBEDF91CF91B8
:100CE0001F910F91FF90EF90DF90CF90BF90AF904A
:100CF0009F907F906F905F904F903F902F900895BE
:100D00008FE190E00E9491040E94AF040E94BA0417
:100D10000E94480F80E00E941B0381EE92E09F93A7
:100D20008F930E9463100E94B00F0E944B0A83E6CB
:100D300093E00E94800A80E893E00E94C90485E065
:100D4000809380030E946A0C0E941E0E22E344E6F8
:100D50006AE08AE00E942E0E44E150E060E270E01A
:100D600080E490E00E948F0E2EE148E264E184E18D
:100D70000E94FF0E0E94AC0C2FE986E891E0215002
:100D800080409040E1F700C000000E94B9037894D1
:100D900080915C0390915D030E94A3070E945B0514
:100DA0000F900F9060915C0370915D0383E693E078
:100DB0000E94230A80915B038230A0F30E94AC0C56
:100DC00010925B03EFCF1F920F920FB60F92112478
:100DD0002F933F934F935F936F937F938F939F9343
:100DE000AF93BF93EF93FF93CF93DF93CDB7DEB76E
:100DF0002B97DEBFCDBFCE0101960E9474038A817E
:100E00008F9389818F9385EE92E09F938F930E94B9
:100E10006310BE016F5F7F4F80E893E00E942F0553
:100E20000F900F900F900F902B960FB6F894DEBF97
:100E30000FBECDBFDF91CF91FF91EF91BF91AF91E9
:100E40009F918F917F916F915F914F913F912F91E2
:100E50000F900FBE0F901F9018951F920F920FB614
:100E60000F9211248F9380915B038F5F80935B03BC
:100E70008F910F900FBE0F901F9018958F929F9299
:100E8000AF92BF92EF92FF920F931F93CF93DF9396
:100E90008C01EB01FC01E384F4840E94760FF801DD
:100EA000278530894B015C01821A930AA108B10899
:100EB000B7FE03C00E94760F9B01F801308B278795
:100EC000F5E68F169104A104B10494F183E3E816CA
:100ED000F10464F08A81882359F18B8381508A83DD
:100EE0009C81891700F591509C831DC0FEECEF1684
:100EF000FFEFFF06ECF48A81482F50E02D8130E0AF
:100F000021503109421753079CF48B838F5F8A83EA
:100F10002C81422F50E0495F5F4F90E048175907FE
:100F200014F42F5F2C830E94760FF801708B678773
:100F3000DF91CF911F910F91FF90EF90BF90AF90F5
:100F40009F908F9008952F923F924F925F926F9251
:100F50007F928F929F92AF92BF92CF92DF92EF9249
:100F6000FF920F931F93CF93DF93CDB7DEB72897F0
:100F70000FB6F894DEBF0FBECDBF7C01DC01159625
:100F80008C91893008F0E3C0C82ED12C360174E072
:100F9000660C771C7A95E1F7A12CB12C18861F827C
:100FA0008F8198858615970509F4A5C0D701ED9125
:100FB000FC912F813885E20FF31FE49144E03695D0
:100FC00027954A95E1F73A832983F0E0B097AF017E
:100FD00063E0440F551F6A95E1F75C834B8300E0A3
:100FE00010E08F8098845FE0852299246F81788556
:100FF000605171097E836D832F80388470E2271AD7
:1010000031084F80588480E3481A5108D70112965E
:101010008C9190E09501200F311FE981FA818E17A4
:101020009F0739F48114910421F4F801E051FC4F39
:101030004EC091E0FFE08F16910409F090E081E04E
:1010400040915E03423009F080E041E06D817E8195
:101050006031710508F040E0492359F0882349F0D8
:1010600080918003F80178E0879FE00DF11D112445
:1010700025C041E0A0E12A16310408F040E04923F0
:1010800059F0882349F080918503F801B8E08B9FDF
:10109000E00DF11D112412C041E0E0E14E165104B3
:1010A00008F040E0942369F0882359F0809181038F
:1010B000F80148E0849FE00DF11D1124E058FC4F39
:1010C00006C0EB81FC81E00FF11FE050FD4F649101
:1010D000C9010E94BF0F0F5F1F4F0830110509F0B3
:1010E00095CF6F8178856F5F7F4F78876F8378E0CA
:1010F000A70EB11C55CF08E010E00C191D0934E013
:10110000000F111F3A95E1F7D12C8D2D90E080173B
:1011100091070CF094C0860D971DFC0123E0EE0FA3
:10112000FF1F2A95E1F7FA83E983E12CF12C60E0B7
:1011300089819A818E0D9F1D0E94BF0F9FEFE91A32
:10114000F90AA8E0EA16F10491F7D394DECFA12CB6
:10115000B12C00E010E0D70114968C911497F8019F
:1011600020E1829FE00DF11D1124CF01ED91FC9152
:10117000E80FF91F3491380184E0769467948A95DA
:10118000E1F7432F50E04052510993E0440F551FBF
:101190009A95E1F75A834983C12CD12C48016FE01D
:1011A00086229924D70112962C91129730E014963A
:1011B0008C91281B3109C6018A0D9B1D2615370508
:1011C00039F48114910421F4F601E051FC4F06C07A
:1011D000E981FA81EC0DFD1DE050FD4F64910E9404
:1011E000BF0FBFEFCB1ADB0AE8E0CE16D104D1F671
:1011F0000F5F1F4FF8E0AF0EB11C0038110509F06A
:10120000AACFD70114968C9190E028960FB6F89447
:10121000DEBF0FBECDBFDF91CF911F910F91FF9029
:10122000EF90DF90CF90BF90AF909F908F907F9086
:101230006F905F904F903F902F900C9403062896EC
:101240000FB6F894DEBF0FBECDBFDF91CF911F91D7
:101250000F91FF90EF90DF90CF90BF90AF909F9055
:101260008F907F906F905F904F903F902F90089558
:10127000AF92BF92CF92DF92EF92FF920F931F93A4
:10128000CF93DF93CDB7DEB7ADB6BEB6C0908603C1
:10129000D12CC6010E94870F082F10E0C8010196CB
:1012A0002DB73EB7281B390B0FB6F8943EBF0FBEC3
:1012B0002DBF8DB79EB701967C01A801BC01C60168
:1012C0000E94990F0E941E0EC12CD12CC016D1066F
:1012D00058F4F70141917F01FFEFCF1ADF0A6C2D1F
:1012E00081E00E94B40DF2CF0E94AC0C0FB6F894CE
:1012F000BEBE0FBEADBEDF91CF911F910F91FF908B
:10130000EF90DF90CF90BF90AF900895CF93DF9391
:10131000EB010E941E0E80915E03813009F473C0C0
:1013200020F0823009F44AC08BC08A818230A9F152
:1013300058F4882389F0813009F07BC082E08093E3
:101340005E0387E893E070C0833069F1843009F070
:1013500070C065E273E06FC060E073E080E00E94FF
:101360004E0D81E080935A038093820380E893E0DE
:101370000E941F050E945B0580E892E00E94FD0C20
:101380000E94AC0C0E94D504892B19F00E943809E8
:10139000F9CFDF91CF910C94AC0C81E080935E0388
:1013A00083E993E041C062E173E080E00E944E0D6A
:1013B00080E892E0DF91CF910C94FD0C8A8182301D
:1013C000B1F050F4882369F0813099F580E893E01A
:1013D000DF91CF910C94DE05833079F0843001F1F8
:1013E00028C080E893E0DF91CF910C94FC0580E861
:1013F00093E0DF91CF910C94E80580E893E0DF91D2
:10140000CF910C94F2058A81882329F0813089F4E8
:101410006CE473E010C06FE373E080E00E944E0D57
:1014200010925E038DE893E090935D0380935C03DC
:1014300007C062E373E080E0DF91CF910C944E0D22
:10144000DF91CF9108950F931F93CF93DF93EC011A
:101450008B010E94160BB801CE010E943E0721E0CD
:1014600030E08D89882311F020E030E09E81892FC3
:1014700090E082239323892B21F0B801CE010E94B2
:101480008609C8010E94A3078E818D8BDF91CF91C1
:101490001F910F910895EDE8F3E080E092E09183D1
:1014A000808385E08583128213821482A3E9B3E0EE
:1014B00020EC30E011963C932E9394E115969C938A
:1014C000159712961C92129713961C9213971496C6
:1014D0001C92A7E8B3E020E730E011963C932E93EE
:1014E00015968C93159712961C92129713961C9230
:1014F000139714961C92F0935D03E0935C03089598
:10150000CF93DF93EC018C98BB98BA98B998C29AA4
:1015100060E880E094E10E94DF0FB199FECF80E0A7
:1015200094E10E94EF0F888780E094E10E94EF0F22
:101530008F831A821B821C821D82198218821A864E
:1015400019861C861B861E861D861E82188A1F868B
:10155000198A1A8A1B8A1C8A1D8A1E8A188E1F8A5B
:101560001A8E198E1C8E1B8EDF91CF910895FC016F
:101570006185728523853485CB0105960B9738F4F8
:10158000C90105960B9718F4168615860895872FBE
:101590008095881F8827881F90E0880F991F432F08
:1015A0004095441F4427441F842B8230910579F1D4
:1015B0008330910589F00197D1F446EA4603C001D2
:1015C000479F900D1124A901461B570BBA010E9499
:1015D0001310665A7F4F27C04AE5429FC001439FC0
:1015E000900D1124620F731F0E9413101CC046EA55
:1015F0004203C001439F900D1124719561957109BB
:10160000621B730B0E9413106C547F4F0CC04AE591
:10161000469FC001479F900D1124621B730B0E94CF
:101620001310625F7E4F768765870895CF93DF93AF
:10163000EC0160E080E094E10E94DF0FB199FECF01
:1016400080E094E10E94EF0F888380E094E10E94A3
:10165000EF0F898380E094E10E94EF0F8B8380E09D
:1016600094E10E94EF0F8A8381E0849B80E08C8369
:1016700081E0B39B80E08D8381E0B29980E08E832E
:10168000888190E02885821B91099C878B878981BE
:1016900090E02F81821B91099A878987CE01DF9183
:1016A000CF910C94B70A0F931F93CF93DF93CDB7CD
:1016B000DEB72B970FB6F894DEBF0FBECDBF8C01FF
:1016C000FC0123853485818D928DA901481B590B1E
:1016D000CA0157FF03C091958195910908978CF035
:1016E00081E090E09A83898382E08B832C833D8321
:1016F000CE0101960E943C03F80183859485928F68
:10170000818FF801218532858789908DA901481B39
:10171000590BCA0157FF03C091958195910908970C
:1017200084F082E090E09A8389838B832C833D83CD
:10173000CE0101960E943C03F80181859285908F2D
:10174000878BF80184819389891771F026E030E056
:101750003A83298391E09B838C83CE0101960E947A
:101760003C03F8018481838BF80185819489891772
:1017700071F027E030E03A83298391E09B838C83EA
:10178000CE0101960E943C03F8018581848BF8010B
:1017900086819689891771F023E030E03A832983A6
:1017A00091E09B838C83CE0101960E943C03F8015B
:1017B0008681868BF8012381822F90E03289831BFA
:1017C000910997FF03C0919581959109039774F052
:1017D00085E090E09A83898381E08B832C83CE011E
:1017E00001960E943C03F8018381828BF8012281DB
:1017F000822F90E03189831B910997FF03C0919557
:10180000819591090B9774F084E090E09A83898325
:1018100081E08B832C83CE0101960E943C03F8016A
:101820008281818BF80185859685238D348D821781
:10183000930789F028E030E03A83298322E02B8364
:101840008C839D83CE0101960E943C03F80185851F
:101850009685948F838F2B960FB6F894DEBF0FBEBC
:10186000CDBFDF91CF911F910F910895682F80E038
:1018700090E00C94DF0FEF92FF920F931F93CF93A2
:10188000DF93EC018C01060F171FE12C82E0F82E8C
:10189000C017D10741F06991C7010E94DF0F8FEF98
:1018A000E81AF80AF5CFDF91CF911F910F91FF90C1
:1018B000EF9008958770806B0C94360CCF93C82FEF
:1018C00082958F7080610E94360C8C2F8F70CF9123
:1018D0000C94360C8EEA0E94360C81EA0E94360C7B
:1018E0008AED0E94360C82E10E94360C88EC0E9440
:1018F000360C88EA0E94360C8FE30E94360C85ED88
:101900000E94360C80E80E94360C81E80E94360C5A
:1019100080E50E94360C89ED0E94360C81E20E941F
:10192000360C80E20E94360C82E00E94360C8BED71
:101930000E94360C80E30E94360C8DEA0E94360C21
:1019400080E00E94360C84EA0E94360C86EA0E94EF
:10195000360C8FEA0C94360C8F929F92AF92BF9206
:10196000CF92DF92EF92FF921F93CF93DF93CDB789
:10197000DEB7C058D1090FB6F894DEBF0FBECDBF99
:10198000CE0101965C01CC24DD24C81AD90A10E0EE
:101990004E0191E8890E911C812F0E945A0C80E023
:1019A0000E945E0C7501E814F90449F0C6018E0D21
:1019B0009F1D0E94CF0FF70181937F01F4CF60E854
:1019C00070E0C5010E943B0C1F5FF0E8CF0ED11CF8
:1019D000183011F7C058DF4F0FB6F894DEBF0FBEB6
:1019E000CDBFDF91CF911F91FF90EF90DF90CF900F
:1019F000BF90AF909F908F900895CF92DF92EF921B
:101A0000FF920F931F93CF93DF937C0100E010E0D0
:101A1000F701C49180EE8C0F803668F5D0E0A09776
:101A200083E0CC0FDD1F8A95E1F7C12CD12CFE019C
:101A3000EC0DFD1DE050FD4F6491C601800F911F1C
:101A40000E94BF0FFFEFCF1ADF0A88E0C816D1044B
:101A500071F79FEFE91AF90A085F1F4F0115E4E0DB
:101A60001E07B1F6DF91CF911F910F91FF90EF907C
:101A7000DF90CF900895C0E0D3E0C801805093403C
:101A80006C01FE016491C6018C0F9D1F0E94BF0F67
:101A90002196F3E0C830DF07A1F7DBCFAF92BF920A
:101AA000CF92DF92EF92FF921F93CF93DF93883014
:101AB00008F050C020E8829FE00111247B015E0104
:101AC00010E0F7018081882319F1C12CD12CF70196
:101AD0008081F60128E0829FE00DF11D1124E05085
:101AE000FE4F6491C5018C0D9D1D0E94BF0F3FEFFD
:101AF000C31AD30A88E0C816D10449F71F5F9FEFC5
:101B0000E91AF90AE8E0AE0EB11C1031D1F622C094
:101B100098E0A92E93E0B92E80E0C82E83E0D82E5D
:101B2000CE0128E0129F800D911D1124FC01E05090
:101B3000F3407F01F6016491C7018C0D9D1D0E9449
:101B4000BF0FFFEFCF1ADF0AAC14BD0499F71F5F78
:101B5000103111F7DF91CF911F91FF90EF90DF903F
:101B6000CF90BF90AF900895EF92FF920F931F9385
:101B7000CF93DF93883058F5603148F5C62FD0E019
:101B800090E1899FC00DD11D112483E0CC0FDD1F92
:101B90008A95E1F7042F10E00052110993E0000F3D
:101BA000111F9A95E1F7E12CF12CF801EE0DFF1DC4
:101BB000E050FD4F6491CE018E0D9F1D0E94BF0F1E
:101BC0008FEFE81AF80A98E0E916F10471F7DF914F
:101BD000CF911F910F91FF90EF9008950F931F9356
:101BE000CF93DF93803428F567FD23C0042F182F8F
:101BF000869586958695C62FD0E090E8899FC00D82
:101C0000D11D1124CE010E94CF0F177061E070E04A
:101C100001C0660F1A95EAF7002311F0682B02C085
:101C200060956823CE01DF91CF911F910F910C94A5
:101C3000BF0FDF91CF911F910F910895CF93DF9345
:101C4000C0E0D0E060E0CE010E94BF0F2196C11538
:101C500084E0D807B9F7DF91CF9108956F927F9212
:101C60008F929F92AF92BF92CF92DF92EF92FF92AC
:101C70000F931F93CF93DF93E82EF62E942E822E90
:101C8000C42FD0E0C81BD109D7FF03C0D195C1959F
:101C9000D109082D10E00F19110917FF03C0119584
:101CA00001951109E91418F066246A9402C06624AB
:101CB0006394F81418F077247A9402C0772473940C
:101CC0006E01C01AD10AAA24BB24A01AB10A41E0AD
:101CD0006E2D8F2D0E94EE0DE91002C0F81481F0D8
:101CE000C601880F991FA816B9061CF4C01AD10A9C
:101CF000E60C8C179D075CF7CC0EDD1EF70CE7CFCA
:101D0000DF91CF911F910F91FF90EF90DF90CF90D7
:101D1000BF90AF909F908F907F906F9008959F920B
:101D2000AF92BF92CF92DF92EF92FF920F931F93E9
:101D3000CF93DF93D82EC62EC42FD0E0E12CF12C08
:101D400000E010E041E0BC2EBD0C6B2D9C2C900EF1
:101D5000892D0E94EE0D41E0AD2CAC1A6A2D892D23
:101D60000E94EE0D41E06B2DBC2CB01A8B2D0E9411
:101D7000EE0D41E06A2D8B2D0E94EE0D41E0BD2C51
:101D8000B00E6B2D9C2E9C0C892D0E94EE0D41E017
:101D9000AD2CA01A6A2D892D0E94EE0D41E06B2D0D
:101DA000BC2CBC1A8B2D0E94EE0D41E06A2D8B2DB0
:101DB0000E94EE0D1E141F045CF00F5F1F4FC80140
:101DC000880F991F0196E80EF91E1E141F043CF49B
:101DD0002197CE01880F991F0196E81AF90AC017BA
:101DE000D1070CF0AFCFDF91CF911F910F91FF90F2
:101DF000EF90DF90CF90BF90AF909F9008950F939A
:101E00001F93CF93DF93082F162FD22FC82FC40F05
:101E1000262F4C2F0E942E0ED10F2D2F4C2F6D2FC1
:101E2000802F0E942E0E2D2F402F612F802F0E9479
:101E30002E0E2D2F4C2F612F8C2FDF91CF911F91C4
:101E40000F910C942E0E1F920F920FB60F92112429
:101E50008F939F93AF93BF9380915F0390916003A3
:101E6000A0916103B09162030196A11DB11D809301
:101E70005F0390936003A0936103B0936203BF91EB
:101E8000AF919F918F910F900FBE0F901F9018955B
:101E90001FBC8EB581608EBD89B7806889BF1DBCAF
:101EA0001CBC10928B0085E080938A00EDE7F0E087
:101EB0008081846080831092890010928800089548
:101EC00080915F0390916003A0916103B0916203E0
:101ED0002091880030918900DC0199278827BC0176
:101EE000CD01620F731F811D911D08950E94600F27
:101EF0009B01AC01A8EEB3E00E94491020EC32E156
:101F000040E050E00E942710CA01B90108950097EF
:101F100071F020E030E0EAE0F0E0BF010E94FF0F46
:101F2000CB012F5F3F4F0097C1F7822F089581E0CB
:101F30000895CF93DF93FB01E40FF51F10829A0100
:101F4000CAE0D0E02150310937FD07C0BE010E9430
:101F5000FF0F805D8293CB01F5CFDF91CF91089584
:101F60008FEF8ABB8FE084BB8E9A8F9A319A85B7A8
:101F7000806885BF10BE80B7806280BF0895CF9310
:101F8000DF9300D0CDB7DEB79A838983E981FA81E8
:101F9000F85E60830F900F90DF91CF910895CF93FB
:101FA000DF9300D0CDB7DEB79A838983E981FA81C8
:101FB000F85E80810F900F90DF91CF910895CF93BD
:101FC000DF9300D0CDB7DEB79A838983E981FA81A8
:101FD000F05F60830F900F90DF91CF910895CF93C2
:101FE000DF9300D0CDB7DEB79A838983E981FA8188
:101FF000F05F80810F900F90DF91CF910895AA1B21
:10200000BB1B51E107C0AA1FBB1FA617B70710F0E3
:10201000A61BB70B881F991F5A95A9F78095909515
:10202000BC01CD01089597FB072E16F4009407D04C
:1020300077FD09D00E94FF0F07FC05D03EF4909574
:1020400081959F4F0895709561957F4F0895A1E206
:102050001A2EAA1BBB1BFD010DC0AA1FBB1FEE1F22
:10206000FF1FA217B307E407F50720F0A21BB30B6D
:10207000E40BF50B661F771F881F991F1A9469F7E9
:1020800060957095809590959B01AC01BD01CF0145
:1020900008950E945410A59F900DB49F900DA49F89
:1020A000800D911D11240895A29FB001B39FC0011E
:1020B000A39F700D811D1124911DB29F700D811D74
:1020C0001124911D0895A0E0B0E0E9E6F0E10C9440
:1020D0001A13AE014B5F5F4FFA0161917191AF012D
:1020E00080919B0390919C030E947910E2E00C94F4
:1020F0003613ABE0B0E0EFE7F0E10C940A136C01AB
:102100007B018A01FC0117821682838181FFCCC189
:10211000CE0101963C01F6019381F70193FD859173
:1021200093FF81917F01882309F4BAC1853239F484
:1021300093FD859193FF81917F01853229F4B6014A
:1021400090E00E947012E7CF912C212C312CFFE1FE
:10215000F315D8F08B3279F038F4803279F083328D
:10216000A1F4232D20611DC08D3261F0803369F40C
:10217000232D216016C0832D8260382EE32DE4606C
:102180003E2E2AC0F32DF8601DC037FC2DC020ED77
:10219000280F2A3040F08E32B9F436FC81C1232D4D
:1021A0002064322E19C036FE06C08AE0989E200DAB
:1021B0001124922E11C0EAE02E9E200D1124222E11
:1021C000F32DF0623F2E08C08C3621F4832D8068F9
:1021D000382E02C0883641F4F70193FD859193FFB4
:1021E00081917F018111B3CF982F9F7D95549330BA
:1021F00028F40C5F1F4F9FE399830DC0833631F0A5
:10220000833771F0833509F059C021C0F80180810E
:1022100089830E5F1F4F88248394912C530113C030
:102220002801F2E04F0E511CF801A080B18036FE6B
:1022300003C0692D70E002C06FEF7FEFC5010E94FF
:1022400065124C018201F32DFF773F2E16C0280145
:1022500022E0420E511CF801A080B18036FE03C07E
:10226000692D70E002C06FEF7FEFC5010E945A1226
:102270004C01F32DF0683F2E820133FC1BC0822DF0
:1022800090E088169906B0F4B60180E290E00E94D2
:1022900070122A94F4CFF50137FC859137FE8191B5
:1022A0005F01B60190E00E94701221102A9421E093
:1022B000821A91088114910471F7E8C0843611F0F4
:1022C000893641F5F80137FE07C06081718182814E
:1022D00093810C5F1F4F08C060817181072E000C35
:1022E000880B990B0E5F1F4FF32DFF763F2E97FF44
:1022F00009C090958095709561957F4F8F4F9F4F46
:10230000F0683F2E2AE030E0A3010E94AC12882E34
:10231000861845C0853731F4232D2F7EB22E2AE052
:1023200030E025C0932D997FB92E8F36C1F018F477
:10233000883579F0B5C0803719F0883721F0B0C002
:10234000E92FE061BE2EB4FE0DC0FB2DF460BF2E60
:1023500009C034FE0AC0292F2660B22E06C028E02C
:1023600030E005C020E130E002C020E132E0F801B9
:10237000B7FE07C060817181828193810C5F1F4F1E
:1023800006C06081718180E090E00E5F1F4FA30165
:102390000E94AC12882E8618FB2DFF773F2E36FE4A
:1023A0000DC0232D2E7FA22E891458F434FE0BC0AD
:1023B00032FC09C0832D8E7EA82E05C0B82CA32C1C
:1023C00003C0B82C01C0B92CA4FE0FC0FE01E80D5B
:1023D000F11D8081803321F49A2D997EA92E09C0A8
:1023E000A2FE06C0B394B39404C08A2D867809F087
:1023F000B394A3FC11C0A0FE06C0B21488F4280C4C
:10240000922C9B180EC0B21460F4B60180E290E0EA
:102410000E947012B394F7CFB21418F42B1802C0B4
:10242000982C212CA4FE10C0B60180E390E00E94FD
:102430007012A2FE17C0A1FC03C088E790E002C0A2
:1024400088E590E0B6010CC08A2D867859F0A1FE8F
:1024500002C08BE201C080E2A7FC8DE2B60190E0F1
:102460000E947012891438F4B60180E390E00E9453
:1024700070129A94F7CF8A94F301E80DF11D8081D0
:10248000B60190E00E9470128110F5CF222009F46D
:1024900042CEB60180E290E00E9470122A94F6CFFC
:1024A000F6018681978102C08FEF9FEF2B96E2E1C4
:1024B0000C942613FC010590615070400110D8F770
:1024C000809590958E0F9F1F0895FC01615070407C
:1024D00001900110D8F7809590958E0F9F1F089559
:1024E0000F931F93CF93DF93FB01238121FD03C043
:1024F0008FEF9FEF2CC022FF16C0468157812481A9
:1025000035814217530744F4A081B1819D012F5FAB
:102510003F4F318320838C93268137812F5F3F4F3C
:102520003783268314C08B01EC01FB010084F18505
:10253000E02D0995892BE1F6D80116968D919C9195
:102540001797019617969C938E931697CE01DF915D
:10255000CF911F910F910895FA01AA27283051F1C8
:10256000203181F1E8946F936E7F6E5F7F4F8F4FC4
:102570009F4FAF4FB1E03ED0B4E03CD0670F781F23
:10258000891F9A1FA11D680F791F8A1F911DA11D08
:102590006A0F711D811D911DA11D20D009F4689441
:1025A0003F912AE0269F11243019305D3193DEF6E9
:1025B000CF010895462F4770405D4193B3E00FD09F
:1025C000C9F7F6CF462F4F70405D4A3318F0495D8A
:1025D00031FD4052419302D0A9F7EACFB4E0A6956D
:1025E0009795879577956795BA95C9F7009761058F
:1025F000710508959B01AC010A2E069457954795E5
:1026000037952795BA95C9F7620F731F841F951FD9
:10261000A01D08952F923F924F925F926F927F92EA
:102620008F929F92AF92BF92CF92DF92EF92FF92E2
:102630000F931F93CF93DF93CDB7DEB7CA1BDB0B8E
:102640000FB6F894DEBF0FBECDBF09942A88398833
:1026500048885F846E847D848C849B84AA84B9843A
:10266000C884DF80EE80FD800C811B81AA81B98146
:10267000CE0FD11D0FB6F894DEBF0FBECDBFED015A
:062680000895F894FFCF5D
:1026860000000001000000000000A504000000009A
:102696000002000000009C040000000043414E536D
:1026A6005441543A20307825580A004D435032356B
:1026B60031352065722069206E6F726D616C2D6DEB
:1026C6006F6475732E0A0D004665696C3A204D439A
:1026D600503235313520657220696B6B6520692073
:1026E6006E6F726D616C2D6D6F6475732E0A0D00C1
:1026F6006665696C2069204D4350323531355F522D
:10270600657175657374546F53656E64004D4350FF
:102716003235313520657220696B6B6A6520692018
:102726006B6F6E666967757261736A6F6E736D6FD4
:102736006475732065747465722072657365742E92
:102746002043414E535441543A202578200D0A0027
:102756004C69766573206C6566743A2025640A0DAB
:102766000045617379004861726400596573004ED3
:102776006F000A3D3D3D3D3D3D3D3D3D3D3D3D3DC1
:102786003D3D3D3D3D3D3D2047616D6520537461B6
:10279600747573203D3D3D3D3D3D3D3D3D3D3D3DDB
:1027A6003D3D3D3D3D3D3D3D0A0D0056616C756527
:1027B60000417474726962757465007C20252D3140
:1027C6003573207C20252D313073207C0A0D007C4A
:1027D6002D2D2D2D2D2D2D2D2D2D2D2D2D2D2D2D23
:1027E6002D7C2D2D2D2D2D2D2D2D2D2D2D2D7C0A98
:1027F6000D00446966666963756C7479004C697688
:102806006573007C20252D313573207C20252D31E4
:102816003064207C0A0D0053636F72650053746147
:1028260072742047616D65003D3D3D3D3D3D3D3D3A
:102836003D3D3D3D3D3D3D3D3D3D3D3D3D3D3D3DC2
:102846003D3D3D3D3D3D3D3D3D3D3D3D3D3D3D3DB2
:102856003D3D3D3D3D3D3D3D3D3D3D3D3D0A0A0D38
:1028660000474F21006D656C64696E672074617462
:102876007420696D6F742049443A2025640A0D005E
:1028860053746172746172207370656C65742E2E58
:102896002E005669736572206B7265646974746183
:1028A600722E2E2E004176736C75747461722E2E04
:1028B6002E005567796C6469672076616C670049FC
:1028C60074656D20312076616C6774004974656D9E
:0A28D60020322076616C6774000068
:00000001FF
