S011000041546D6567613136322E737265634B
S11300000C94F4020C943A050C9411030C9411030F
S11300100C9411030C9411030C9411030C9411030C
S11300200C9411030C942A0C0C9411030C941103DA
S11300300C9411030C9411030C9411030C9480057B
S11300400C9411030C9411030C9411030C94930459
S11300500C9411030C9411030C9411030C941103CC
S11300600C9411030C9411030C9411030C941103BC
S113007020536F756E642020202020202020202013
S1130080204272696768746E657373202020202093
S113009020436F6E74726F6C732020202020202008
S11300A0204261636B20202020202020202020205B
S11300B0204974656D203120204241434B2020208B
S11300C0204974656D20322020202020202020200B
S11300D0204974656D2033202020202020202020FA
S11300E0204974656D2034202020202020202020E9
S11300F0204974656D2035202020202020202020D8
S1130100204974656D2036202020202020202020C6
S1130110204974656D2037202020202020202020B5
S1130120204974656D2038202020202020202020A4
S1130130204974656D203920202020202020202093
S1130140204974656D20313020202020202020207B
S1130150204974656D20313120202020202020206A
S1130160204974656D203132202020202020202059
S1130170204974656D203133202020202020202048
S1130180204974656D203134202020202020202037
S1130190204974656D203135202020202020202026
S11301A0204974656D203136202020202020202015
S11301B0204974656D203137202020202020202004
S11301C0204974656D2031382020202020202020F3
S11301D0204974656D2031392020202020202020E2
S11301E0204974656D2032302020202020202020DA
S11301F02053746172742047616D65202020202093
S11302002053657474696E67732020202020202099
S113021020486967682053636F726573202020202B
S113022020437265646974732020202020202020DC
S113023020457869742020202020202020202020A0
S113024000000000000000000000000000000000AA
S1130250000000000000000000000000000000009A
S1130260000000000000000000000000000000008A
S11302702020207961704040402A20202020202026
S113028020202023404040232020202A23202020F7
S11302902020234040402A20202A40404040232060
S11302A02A20202B23404040404040202040404012
S11302B040402020202B404040402A202020404025
S11302C04040402525404040404040202B20202AEB
S11302D02023404040402A20202A40404023202020
S11302E0202020232320202023404040232020209E
S11302F0000000000000000000005F00000000009B
S11303000007000700000000147F147F14000000A1
S1130310242A7F2A120000002313086462000000CC
S11303203649562050000000000807030000000072
S1130330001C2241000000000041221C00000000BB
S113034014083E081400000008083E0808000000D5
S113035000503000000000000808080808000000F1
S1130360006060000000000020100804020000008B
S11303703E5149453E00000000427F40000000001D
S113038042615149460000002141454B31000000C3
S11303901814127F1000000027454545390000005D
S11303A03C4A49493000000001710905030000007E
S11303B03649494936000000064949291E00000013
S11303C00036360000000000005636000000000031
S11303D00814224100000000141414141414000022
S11303E04122140800000000020151090600000027
S11303F03E415D5D1E0000007E1111117E00000073
S11304007F494949360000003E4141412200000035
S11304107F4141221C0000007F49494941000000FE
S11304207F090909010000003E4149497A000000A2
S11304307F0808087F00000000417F4100000000A1
S11304402040413F010000007F08142241000000C9
S11304507F404040400000007F0204027F00000013
S11304607F0204087F0000003E4141413E0000003D
S11304707F090909060000003E4151215E00000089
S11304807F09192946000000464949493100000006
S113049001017F01010000003F4040403F00000097
S11304A01F2040201F0000007F2018207F00000034
S11304B063140814630000000304780403000000BC
S11304C06151494543000000003E414100000000E5
S11304D002040810200000000041413E000000001A
S11304E0040201020400000040404040404000007B
S11304F0000003070000000020545454780000005A
S11305007F4844443800000038444444200000003C
S1130510384444487F000000385454541800000004
S1130520087E090102000000081454543C00000035
S11305307F0804047800000000447D4000000000AF
S11305402040443D00000000007F102844000000CB
S113055000417F40000000007C0418047800000083
S11305607C08040478000000384444443800000047
S11305707C14141408000000081414187C000000F3
S11305807C0804040800000048545454200000006F
S1130590043F4440200000003C4040207C00000018
S11305A01C2040201C0000003C4030403C00000067
S11305B044281028440000000C5050503C00000017
S11305C04464544C4400000000083641000000001C
S11305D000007F0000000000004136080000000019
S11305E0080408100800000011241FBECFEFD4E057
S11305F0DEBFCDBF12E0A0E0B1E0E2E4F0E202C071
S113060005900D92AC38B107D9F722E0ACE8B2E01E
S113061001C01D92AD3AB207E1F70E94A0040C9408
S11306201F100C940000CF93C82F0E9425048C2F18
S11306300E944E0460E680E60E94C30360E680E701
S11306400E94C3034FEF63E08BE20E94FB038A988E
S1130650F8948BB780648BBF85B7826085BF85B7FC
S11306608E7F85BFCF9108950F931F93CF93DF9310
S11306708C010E94ED0382FDFCCFF801C081D18181
S1130680D770BE0183E0769567958A95E1F781E39B
S11306900E94C3036C2F6295660F607E82E30E9402
S11306A0C303F801628185E30E94C303C0E0F8013B
S11306B08281C81750F4F801EC0FF11D638186E3C1
S11306C08C0F0E94C303CF5FF2CF81E0DF91CF9103
S11306D01F910F910C94D6030F931F93CF938C010A
S11306E08CE20E94B10380FF37C081E60E94B1030F
S11306F0C82F82E60E94B10398E0C99F900111249B
S1130700829586958770282BF8013183208385E6AE
S11307100E94B103F8018283C0E0F8018281C81706
S113072050F486E68C0F0E94B103F801EC0FF11D22
S11307308383CF5FF2CF40E061E08CE20E94FB0351
S113074040E061E08CE20E94FB0340E062E08CE266
S11307500E94FB0380E001C081E0CF911F910F91C3
S11307600895CF93C82F0E94660483E00E945A0420
S11307708C2F0E945A040E945E04C82F0E946404B5
S11307808C2FCF910895CF93DF93D82FC62F0E943B
S1130790660482E00E945A048D2F0E945A048C2F12
S11307A00E945A04DF91CF910C946404CF93C82F14
S11307B0833050F08CE191E09F938F930E94410D20
S11307C00F900F90CF9108950E9466048C2F81683A
S11307D00E945A04CF910C946404CF930E9466043F
S11307E080EA0E945A040E945E04C82F0E94640496
S11307F08C2FCF9108951F93CF93DF93182FD62F6B
S1130800C42F0E94660485E00E945A04812F0E942E
S11308105A048D2F0E945A048C2F0E945A04DF918F
S1130820CF911F910C946404CF93C82F0E94660447
S11308308C2F0E945A04CF910C9464040E94660485
S113084080EC0E9414040C9464040E9453040E94DB
S11308501E0487EE93E00197F1F700C000008EE0DC
S11308600E94B103982F907E903861F01F928F936D
S113087089E391E09F938F930E94410D0F900F9015
S11308800F900F9063E08AE20E94C30361EB89E258
S11308900E94C30365E088E20C94C303482F60EE12
S11308A08FE00C94FB03BC9ABD9ABF9ABE9881E575
S11308B08DB908958FB9779BFECF08958FEF8FB9C7
S11308C0779BFECF8FB10895C49A0895C498089574
S11308D090BD89B9549A539A8EE880BD08955D9B62
S11308E0FECF8CB908950E946F0480E090E00895D3
S11308F05F9BFECF8CB10895CF930E947804C82FDC
S11309000E946F048C2F90E0CF910895E7EAF2E003
S11309108EE091E09383828380E091E091838083F1
S11309200895579A08951F920F920FB60F921124AB
S11309308F938CB18F910F900FBE0F901F901895CD
S1130940CF93DF93CDB7DEB76D970FB6F894DEBFC4
S11309500FBECDBF8FE190E00E9468040E94860420
S11309600E9491040E944F0C80E00E9413038CE7C4
S113097091E09F938F930E94410D0E948E0C0E94E0
S11309809F07CE0101960E94C1070E94AB090E94F5
S1130990250B22E344E66AE08AE00E94350B44E139
S11309A050E060E270E080E490E00E94960B2EE15B
S11309B048E264E184E10E94060C0E94ED092FE9FB
S11309C086E891E0215080409040E1F700C00000AB
S11309D08FE00E94B103182F107E1F921F9380E8AE
S11309E091E09F938F930E94410D0F900F900F9071
S11309F00F900F900F90111103C08FE891E002C087
S1130A008CEA91E09F938F930E94410D0F900F9079
S1130A1078948BE992E090938F0280938E020E94E7
S1130A2014060BE912E060918E0270918F02CE01E0
S1130A3001960E94770780918D028823A1F380E7B5
S1130A4092E00E943E0A89B78F7789BFCE01019652
S1130A500E945708CE0101960E9494088D8181302E
S1130A6051F71092900210938F0200938E0210920D
S1130A708D02E1CF1F920F920FB60F9211242F9384
S1130A803F934F935F936F937F938F939F93AF9312
S1130A90BF93EF93FF93CF93DF93CDB7DEB72B973D
S1130AA0DEBFCDBFCE0101960E946C038A818F9375
S1130AB089818F9384ED91E09F938F930E94410DE0
S1130AC089B7806889BF0F900F900F900F902B9675
S1130AD00FB6F894DEBF0FBECDBFDF91CF91FF916B
S1130AE0EF91BF91AF919F918F917F916F915F91A2
S1130AF04F913F912F910F900FBE0F901F9018951B
S1130B001F920F920FB60F9211242F933F934F937E
S1130B105F936F937F938F939F93AF93BF93EF9361
S1130B20FF93F89480918C028F5F80938C028230C3
S1130B3020F00E94ED0910928C027894FF91EF91BD
S1130B40BF91AF919F918F917F916F915F914F91E1
S1130B503F912F910F900FBE0F901F9018958F9279
S1130B609F92AF92BF92EF92FF920F931F93CF93F6
S1130B70DF938C01EB01FC01E384F4840E947D0C7F
S1130B80F801278530894B015C01821A930AA10878
S1130B90B108B7FE03C00E947D0C9B01F801308BA5
S1130BA02787F5E68F169104A104B10494F183E339
S1130BB0E816F10464F08A81882359F18B8381500B
S1130BC08A839C81891700F591509C831DC0FEEC9B
S1130BD0EF16FFEFFF06ECF48A81482F50E02D81D9
S1130BE030E021503109421753079CF48B838F5F07
S1130BF08A832C81422F50E0495F5F4F90E0481771
S1130C00590714F42F5F2C830E947D0CF801708B1C
S1130C106787DF91CF911F910F91FF90EF90BF9065
S1130C20AF909F908F9008952F923F924F925F9232
S1130C306F927F928F929F92AF92BF92CF92DF92E8
S1130C40EF92FF920F931F93CF93DF93EC018D816B
S1130C50893008F076C0C82ED12C460164E0880C97
S1130C60991C6A95E1F7A12CB12C00E010E008155D
S1130C70190509F43DC0E881F981E00FF11F4490A2
S1130C80180144E0369427944A95E1F7512C20E268
S1130C90421A510853E0440C551C5A95E1F7E12CD3
S1130CA0F12C38013FE063227724C5018E0D9F1D8E
S1130CB0F7016114710441F42A8130E022153305EF
S1130CC019F4E052FC4F04C0E40DF51DE051FD4F52
S1130CD064910E949D0C4FEFE41AF40A88E0E81630
S1130CE0F10419F70F5F1F4F28E0A20EB11CBFCF0C
S1130CF008E010E00C191D0934E0000F111F3A95AB
S1130D00E1F7D12C8D2D90E0801791070CF068C08D
S1130D10880D991DEC0123E0CC0FDD1F2A95E1F726
S1130D20E12CF12C60E0CE018E0D9F1D0E949D0CE4
S1130D303FEFE31AF30A48E0E416F10499F7D39479
S1130D40E1CFA12CB12CE12CF12C8C81970140E155
S1130D50849F200D311D1124E881F981E20FF31FD6
S1130D600491370184E0769467948A95E1F710E062
S1130D700052110993E0000F111F9A95E1F7C12C5D
S1130D80D12C47018FE0882299242A8130E08C817C
S1130D90281B3109C6018A0D9B1DF601261537054E
S1130DA031F48114910419F4E052FC4F04C0E00FB3
S1130DB0F11FE051FD4F64910E949D0C2FEFC21A68
S1130DC0D20A38E0C316D10401F74FEFE41AF40A4B
S1130DD088E0A80EB11C20E8E216F10409F0B5CFB2
S1130DE0DF91CF911F910F91FF90EF90DF90CF9003
S1130DF0BF90AF909F908F907F906F905F904F9037
S1130E003F902F900895CF93DF93EB010E94250B21
S1130E1080919002813009F44AC018F08230A9F11F
S1130E2063C08A81823001F158F4882389F08130CB
S1130E3009F053C082E08093900285E992E048C0B3
S1130E408330C1F0843009F048C064E172E047C0E7
S1130E506FEE71E080E00E948F0A81E080938D0242
S1130E60DF91CF910C94ED0981E08093900281EAA7
S1130E7092E02EC061E072E080E00E948F0A80E779
S1130E8092E0DF91CF910C943E0A8A81813049F03F
S1130E9028F0823049F08330B9F01FC06EE272E06E
S1130EA01EC069E472E01BC06DE572E018C08A815F
S1130EB0882329F0813089F46FE772E010C062E77B
S1130EC072E080E00E948F0A109290028BE992E017
S1130ED090938F0280938E0207C061E272E080E0FB
S1130EE0DF91CF910C948F0ADF91CF9108950F93E6
S1130EF01F93CF93DF93EC018B010E945708B80135
S1130F00CE010E94AF0521E030E08D89882311F0E5
S1130F1020E030E09E81892F90E082239323892B67
S1130F2021F0B801CE010E940307C8010E941406F3
S1130F308E818D8BDF91CF911F910F910895EBE9F5
S1130F40F2E080EF91E09183808385E085831282D3
S1130F5013821482E1EAF2E080EB90E091838083D3
S1130F6084E18583128213821482E5E9F2E080E74A
S1130F7090E09183808384E08583128213821482BB
S1130F800895CF93DF93EC018C98BB98BA98B998E5
S1130F90C29A60E880E094E10E94BD0CB199FECF52
S1130FA080E094E10E94CD0C888780E094E10E9467
S1130FB0CD0C8F831A821B821C821D821982188297
S1130FC01A8619861C861B861E861D861E82188A12
S1130FD01F86198A1A8A1B8A1C8A1D8A1E8A188EE1
S1130FE01F8A1A8E198E1C8E1B8EDF91CF91089545
S1130FF0FC016185728523853485CB0105960B97A9
S113100038F4C90105960B9718F4168615860895C9
S1131010872F8095881F8827881F90E0880F991F45
S1131020432F4095441F4427441F842B823091054D
S113103079F18330910589F00197D1F446EA4603AA
S1131040C001479F900D1124A901461B570BBA01FB
S11310500E94DD0C665A7F4F27C04AE5429FC001BB
S1131060439F900D1124620F731F0E94DD0C1CC05E
S113107046EA4203C001439F900D11247195619586
S11310807109621B730B0E94DD0C6C547F4F0CC002
S11310904AE5469FC001479F900D1124621B730BC4
S11310A00E94DD0C625F7E4F768765870895CF933B
S11310B0DF93EC0160E080E094E10E94BD0CB19903
S11310C0FECF80E094E10E94CD0C888380E094E11F
S11310D00E94CD0C898380E094E10E94CD0C8B8327
S11310E080E094E10E94CD0C8A8381E0849B80E0BF
S11310F08C8381E0B39B80E08D8381E0B29980E0B2
S11311008E83888190E02885821B91099C878B8738
S1131110898190E02F81821B91099A878987CE016A
S1131120DF91CF910C94F8070F931F93CF93DF9324
S1131130CDB7DEB72B970FB6F894DEBF0FBECDBF89
S11311408C01FC0123853485818D928DA901481B76
S1131150590BCA0157FF03C09195819591090897CE
S11311608CF081E090E09A83898382E08B832C83E6
S11311703D83CE0101960E943403F8018385948552
S1131180928F818FF801218532858789908DA901FD
S1131190481B590BCA0157FF03C0919581959109CA
S11311A0089784F082E090E09A8389838B832C8370
S11311B03D83CE0101960E943403F8018185928516
S11311C0908F878BF80184819389891771F026E0C9
S11311D030E03A83298391E09B838C83CE0101968E
S11311E00E943403F8018481838BF80185819489FA
S11311F0891771F027E030E03A83298391E09B83DB
S11312008C83CE0101960E943403F8018581848B7E
S1131210F80186819689891771F023E030E03A83DA
S1131220298391E09B838C83CE0101960E94340331
S1131230F8018681868BF8012381822F90E0328920
S1131240831B910997FF03C0919581959109039799
S113125074F085E090E09A83898381E08B832C830A
S1131260CE0101960E943403F8018381828BF80138
S11312702281822F90E03189831B910997FF03C05B
S1131280919581959109039774F084E090E09A8395
S1131290898381E08B832C83CE0101960E943403E1
S11312A0F8018281818BF80185859685238D348DA3
S11312B08217930789F028E030E03A83298322E0FB
S11312C02B838C839D83CE0101960E943403F80105
S11312D085859685948F838F2B960FB6F894DEBF01
S11312E00FBECDBFDF91CF911F910F910895682F4D
S11312F080E090E00C94BD0CEF92FF920F931F934B
S1131300CF93DF93EC018C01060F171FE12C82E0D1
S1131310F82EC017D10741F06991C7010E94BD0C96
S11313208FEFE81AF80AF5CFDF91CF911F910F9153
S1131330FF90EF9008958770806B0C947709CF939A
S1131340C82F82958F7080610E9477098C2F8F70CF
S1131350CF910C9477098EEA0E94770981EA0E9462
S113136077098AED0E94770982E10E94770988EC67
S11313700E94770988EA0E9477098FE30E9477091F
S113138085ED0E94770980E80E94770981E80E9430
S1131390770980E50E94770989ED0E94770981E247
S11313A00E94770980E20E94770982E00E9477090F
S11313B08BED0E94770980E30E9477098DEA0E94F1
S11313C0770980E00E94770984EA0E94770986EA17
S11313D00E9477098FEA0C9477098F929F92AF92BB
S11313E0BF92CF92DF92EF92FF921F93CF93DF933E
S11313F0CDB7DEB7C058D1090FB6F894DEBF0FBE23
S1131400CDBFCE0101965C01CC24DD24C81AD90AD3
S113141010E04E0191E8890E911C812F0E949B09D6
S113142080E00E949F097501E814F90449F0C6019F
S11314308E0D9F1D0E94AD0CF70181937F01F4CFA7
S113144060E870E0C5010E947C091F5FF0E8CF0EE0
S1131450D11C183011F7C058DF4F0FB6F894DEBF17
S11314600FBECDBFDF91CF911F91FF90EF90DF9022
S1131470CF90BF90AF909F908F900895CF92DF92BE
S1131480EF92FF920F931F93CF93DF937C0100E0C1
S113149010E0F701C49180EE8C0F803668F5D0E03F
S11314A0A09783E0CC0FDD1F8A95E1F7C12CD12CE6
S11314B0FE01EC0DFD1DE051FD4F6491C601800F4E
S11314C0911F0E949D0CFFEFCF1ADF0A88E0C81617
S11314D0D10471F79FEFE91AF90A085F1F4F01154C
S11314E0E4E01E07B1F6DF91CF911F910F91FF90B9
S11314F0EF90DF90CF900895C0EFD2E0C801805FF5
S113150092406C01FE016491C6018C0F9D1F0E94E4
S11315109D0C2196F2E0C83FDF07A1F7DBCFAF9225
S1131520BF92CF92DF92EF92FF921F93CF93DF93FC
S1131530883008F050C020E8829FE00111247B012C
S11315405E0110E0F7018081882319F1C12CD12CB0
S1131550F7018081F60128E0829FE00DF11D11243E
S1131560E051FE4F6491C5018C0D9D1D0E949D0CA0
S11315703FEFC31AD30A88E0C816D10449F71F5FA6
S11315809FEFE91AF90AE8E0AE0EB11C1031D1F66A
S113159022C098EFA92E92E0B92E80EFC82E82E0E7
S11315A0D82ECE0128E0129F800D911D1124FC013C
S11315B0E05FF2407F01F6016491C7018C0D9D1D2F
S11315C00E949D0CFFEFCF1ADF0AAC14BD0499F7FB
S11315D01F5F103111F7DF91CF911F91FF90EF90B2
S11315E0DF90CF90BF90AF9008950F931F93CF9348
S11315F0DF93803428F567FD23C0042F182F8695C8
S113160086958695C62FD0E090E8899FC00DD11DA0
S11316101124CE010E94AD0C177061E070E001C08E
S1131620660F1A95EAF7002311F0682B02C0609543
S11316306823CE01DF91CF911F910F910C949D0CE3
S1131640DF91CF911F910F910895CF93DF93C0E065
S1131650D0E060E0CE010E949D0C2196C11584E08B
S1131660D807B9F7DF91CF9108956F927F928F9247
S11316709F92AF92BF92CF92DF92EF92FF920F931D
S11316801F93CF93DF93E82EF62E942E822EC42F31
S1131690D0E0C81BD109D7FF03C0D195C195D109AA
S11316A0082D10E00F19110917FF03C011950195BA
S11316B01109E91418F066246A9402C0662463943C
S11316C0F81418F077247A9402C0772473946E0186
S11316D0C01AD10AAA24BB24A01AB10A41E06E2D73
S11316E08F2D0E94F50AE91002C0F81481F0C6019A
S11316F0880F991FA816B9061CF4C01AD10AE60C63
S11317008C179D075CF7CC0EDD1EF70CE7CFDF913D
S1131710CF911F910F91FF90EF90DF90CF90BF90EA
S1131720AF909F908F907F906F9008959F92AF920B
S1131730BF92CF92DF92EF92FF920F931F93CF93BA
S1131740DF93D82EC62EC42FD0E0E12CF12C00E07C
S113175010E041E0BC2EBD0C6B2D9C2C900E892D0D
S11317600E94F50A41E0AD2CAC1A6A2D892D0E9425
S1131770F50A41E06B2DBC2CB01A8B2D0E94F50AA2
S113178041E06A2D8B2D0E94F50A41E0BD2CB00E7C
S11317906B2D9C2E9C0C892D0E94F50A41E0AD2CEA
S11317A0A01A6A2D892D0E94F50A41E06B2DBC2CEC
S11317B0BC1A8B2D0E94F50A41E06A2D8B2D0E94E4
S11317C0F50A1E141F045CF00F5F1F4FC801880F39
S11317D0991F0196E80EF91E1E141F043CF421976C
S11317E0CE01880F991F0196E81AF90AC017D1078C
S11317F00CF0AFCFDF91CF911F910F91FF90EF903D
S1131800DF90CF90BF90AF909F9008950F931F9358
S1131810CF93DF93082F162FD22FC82FC40F262F54
S11318204C2F0E94350BD10F2D2F4C2F6D2F802F55
S11318300E94350B2D2F402F612F802F0E94350BD6
S11318402D2F4C2F612F8C2FDF91CF911F910F9152
S11318500C94350B1F920F920FB60F9211248F9395
S11318609F93AF93BF938091910290919202A09124
S11318709302B09194020196A11DB11D809391022F
S113188090939202A0939302B0939402BF91AF916C
S11318909F918F910F900FBE0F901F9018951FBCB2
S11318A08EB581608EBD89B7806889BF1DBC1CBCA4
S11318B010928B0085E080938A00EDE7F0E0808150
S11318C0846080831092890010928800089580912A
S11318D0910290919202A0919302B091940220916E
S11318E0880030918900DC0199278827BC01CD014B
S11318F0620F731F811D911D08950E94670C9B0147
S1131900AC01A8EEB3E00E94130D20EC32E140E0FC
S113191050E00E94F10CCA01B90108958FEF8ABB0F
S11319208FE084BB8E9A8F9A319A85B7806885BF81
S113193010BE80B7806280BF0895CF93DF9300D03C
S1131940CDB7DEB79A838983E981FA81F85E608333
S11319500F900F90DF91CF910895CF93DF9300D034
S1131960CDB7DEB79A838983E981FA81F85E8081F5
S11319700F900F90DF91CF910895CF93DF9300D014
S1131980CDB7DEB79A838983E981FA81F05F6083FA
S11319900F900F90DF91CF910895CF93DF9300D0F4
S11319A0CDB7DEB79A838983E981FA81F05F8081BC
S11319B00F900F90DF91CF91089597FB072E16F4A7
S11319C0009407D077FD09D00E941E0D07FC05D0B6
S11319D03EF4909581959F4F0895709561957F4F42
S11319E00895A1E21A2EAA1BBB1BFD010DC0AA1F5C
S11319F0BB1FEE1FFF1FA217B307E407F50720F074
S1131A00A21BB30BE40BF50B661F771F881F991FEE
S1131A101A9469F760957095809590959B01AC0137
S1131A20BD01CF0108950E94320DA59F900DB49F72
S1131A30900DA49F800D911D11240895AA1BBB1B1A
S1131A4051E107C0AA1FBB1FA617B70710F0A61BBA
S1131A50B70B881F991F5A95A9F780959095BC01DB
S1131A60CD010895A29FB001B39FC001A39F700D43
S1131A70811D1124911DB29F700D811D1124911D92
S1131A800895A0E0B0E0E7E4FDE00C94F80FAE01A7
S1131A904B5F5F4FFA0161917191AF018091A9028F
S1131AA09091AA020E94570DE2E00C941410ABE04E
S1131AB0B0E0EDE5FDE00C94E80F6C017B018A01D8
S1131AC0FC0117821682838181FFCCC1CE0101966D
S1131AD03C01F6019381F70193FD859193FF819178
S1131AE07F01882309F4BAC1853239F493FD8591C5
S1131AF093FF81917F01853229F4B60190E00E9421
S1131B004E0FE7CF912C212C312CFFE1F315D8F0A7
S1131B108B3279F038F4803279F08332A1F4232DBA
S1131B2020611DC08D3261F0803369F4232D216062
S1131B3016C0832D8260382EE32DE4603E2E2AC029
S1131B40F32DF8601DC037FC2DC020ED280F2A307E
S1131B5040F08E32B9F436FC81C1232D2064322E3C
S1131B6019C036FE06C08AE0989E200D1124922EDC
S1131B7011C0EAE02E9E200D1124222EF32DF062D6
S1131B803F2E08C08C3621F4832D8068382E02C085
S1131B90883641F4F70193FD859193FF81917F018C
S1131BA08111B3CF982F9F7D9554933028F40C5F07
S1131BB01F4F9FE399830DC0833631F0833771F053
S1131BC0833509F059C021C0F801808189830E5FF3
S1131BD01F4F88248394912C530113C02801F2E0F1
S1131BE04F0E511CF801A080B18036FE03C0692D50
S1131BF070E002C06FEF7FEFC5010E94430F4C01FC
S1131C008201F32DFF773F2E16C0280122E0420EF9
S1131C10511CF801A080B18036FE03C0692D70E02C
S1131C2002C06FEF7FEFC5010E94380F4C01F32D06
S1131C30F0683F2E820133FC1BC0822D90E0881691
S1131C409906B0F4B60180E290E00E944E0F2A9407
S1131C50F4CFF50137FC859137FE81915F01B60120
S1131C6090E00E944E0F21102A9421E0821A9108DC
S1131C708114910471F7E8C0843611F0893641F576
S1131C80F80137FE07C060817181828193810C5F06
S1131C901F4F08C060817181072E000C880B990BBF
S1131CA00E5F1F4FF32DFF763F2E97FF09C09095CF
S1131CB08095709561957F4F8F4F9F4FF0683F2EB1
S1131CC02AE030E0A3010E948A0F882E861845C0BE
S1131CD0853731F4232D2F7EB22E2AE030E025C043
S1131CE0932D997FB92E8F36C1F018F4883579F089
S1131CF0B5C0803719F0883721F0B0C0E92FE06112
S1131D00BE2EB4FE0DC0FB2DF460BF2E09C034FE00
S1131D100AC0292F2660B22E06C028E030E005C094
S1131D2020E130E002C020E132E0F801B7FE07C054
S1131D3060817181828193810C5F1F4F06C0608135
S1131D40718180E090E00E5F1F4FA3010E948A0F13
S1131D50882E8618FB2DFF773F2E36FE0DC0232DCF
S1131D602E7FA22E891458F434FE0BC032FC09C015
S1131D70832D8E7EA82E05C0B82CA32C03C0B82CAE
S1131D8001C0B92CA4FE0FC0FE01E80DF11D808135
S1131D90803321F49A2D997EA92E09C0A2FE06C093
S1131DA0B394B39404C08A2D867809F0B394A3FC49
S1131DB011C0A0FE06C0B21488F4280C922C9B1803
S1131DC00EC0B21460F4B60180E290E00E944E0F9F
S1131DD0B394F7CFB21418F42B1802C0982C212C0A
S1131DE0A4FE10C0B60180E390E00E944E0FA2FE54
S1131DF017C0A1FC03C088E790E002C088E590E02A
S1131E00B6010CC08A2D867859F0A1FE02C08BE27F
S1131E1001C080E2A7FC8DE2B60190E00E944E0F63
S1131E20891438F4B60180E390E00E944E0F9A942E
S1131E30F7CF8A94F301E80DF11D8081B60190E09B
S1131E400E944E0F8110F5CF222009F442CEB60134
S1131E5080E290E00E944E0F2A94F6CFF60186812C
S1131E60978102C08FEF9FEF2B96E2E10C94041050
S1131E70FC010590615070400110D8F78095909551
S1131E808E0F9F1F0895FC01615070400190011056
S1131E90D8F7809590958E0F9F1F08950F931F93E9
S1131EA0CF93DF93FB01238121FD03C08FEF9FEFCD
S1131EB02CC022FF16C046815781248135814217E8
S1131EC0530744F4A081B1819D012F5F3F4F3183BB
S1131ED020838C93268137812F5F3F4F378326835E
S1131EE014C08B01EC01FB010084F185E02D099500
S1131EF0892BE1F6D80116968D919C91179701963E
S1131F0017969C938E931697CE01DF91CF911F91D4
S1131F100F910895FA01AA27283051F1203181F157
S1131F20E8946F936E7F6E5F7F4F8F4F9F4FAF4FDD
S1131F30B1E03ED0B4E03CD0670F781F891F9A1FF0
S1131F40A11D680F791F8A1F911DA11D6A0F711DA4
S1131F50811D911DA11D20D009F468943F912AE0B0
S1131F60269F11243019305D3193DEF6CF01089598
S1131F70462F4770405D4193B3E00FD0C9F7F6CFC9
S1131F80462F4F70405D4A3318F0495D31FD405291
S1131F90419302D0A9F7EACFB4E0A6959795879527
S1131FA077956795BA95C9F7009761057105089506
S1131FB09B01AC010A2E06945795479537952795B2
S1131FC0BA95C9F7620F731F841F951FA01D08954A
S1131FD02F923F924F925F926F927F928F929F9235
S1131FE0AF92BF92CF92DF92EF92FF920F931F9323
S1131FF0CF93DF93CDB7DEB7CA1BDB0B0FB6F894D4
S1132000DEBF0FBECDBF09942A88398848885F8413
S11320106E847D848C849B84AA84B984C884DF8084
S1132020EE80FD800C811B81AA81B981CE0FD11D68
S11320300FB6F894DEBF0FBECDBFED010895F8943E
S1052040FFCFCC
S1132042000000010000000000007C040000000009
S11320520002000000007304000000006665696C61
S11320622069204D4350323531355F5265717565B3
S11320727374546F53656E64004D43503235313579
S113208220657220696B6B6A652069206B6F6E66CE
S11320926967757261736A6F6E736D6F64757320AD
S11320A265747465722072657365742E2043414EA3
S11320B2535441543A202578200D0A00474F2100F9
S11320C243414E535441543A20307825580A004D26
S11320D24350323531352065722069206E6F726D3E
S11320E2616C2D6D6F6475732E0A0D004665696C03
S11320F23A204D43503235313520657220696B6B7D
S1132102652069206E6F726D616C2D6D6F647573DD
S11321122E0A0D006D656C64696E672074617474B7
S113212220696D6F742049443A2025640A0D0053D6
S1132132746172746172207370656C65742E2E2ED4
S1132142005669736572206B726564697474617296
S11321522E2E2E004176736C75747461722E2E2E9F
S1132162005567796C6469672076616C6700456E17
S113217264726572206C7964696E6E7374696C6CD6
S1132182696E6761722E2E2E00456E64726572202E
S11321926C7973737479726B652E2E2E00456E649E
S11321A2726572206B6F6E74726F6C6C61722E2E1C
S11321B22E004974656D20312076616C6774004984
S10F21C274656D20322076616C67740037
S9030000FC
