:100000000C94F4020C946E050C9411030C941103DF
:100010000C9411030C9411030C9411030C94110310
:100020000C9411030C94F90C0C9411030C9411030F
:100030000C9411030C9411030C9411030C94B4054B
:100040000C9411030C9411030C9411030C9493045D
:100050000C9411030C9411030C9411030C941103D0
:100060000C9411030C9411030C9411030C941103C0
:100070002052657365742073657474696E677320AC
:10008000204C69766573202020202020202020200D
:100090002053656E73697469766974792020202015
:1000A00020446966666963756C747920202020207D
:1000B000204974656D203120204241434B2020208F
:1000C000204974656D20322020202020202020200F
:1000D000204974656D2033202020202020202020FE
:1000E000204974656D2034202020202020202020ED
:1000F000204974656D2035202020202020202020DC
:10010000204974656D2036202020202020202020CA
:10011000204974656D2037202020202020202020B9
:10012000204974656D2038202020202020202020A8
:10013000204974656D203920202020202020202097
:10014000204974656D20313020202020202020207F
:10015000204974656D20313120202020202020206E
:10016000204974656D20313220202020202020205D
:10017000204974656D20313320202020202020204C
:10018000204974656D20313420202020202020203B
:10019000204974656D20313520202020202020202A
:1001A000204974656D203136202020202020202019
:1001B000204974656D203137202020202020202008
:1001C000204974656D2031382020202020202020F7
:1001D000204974656D2031392020202020202020E6
:1001E000204974656D2032302020202020202020DE
:1001F0002053746172742047616D65202020202097
:100200002053657474696E6773202020202020209D
:1002100020486967682053636F726573202020202F
:1002200020437265646974732020202020202020E0
:1002300020457869742020202020202020202020A4
:1002400000000000000000000000000000000000AE
:10025000000000000000000000000000000000009E
:10026000000000000000000000000000000000008E
:100270002020207961704040402A2020202020202A
:1002800020202023404040232020202A23202020FB
:100290002020234040402A20202A40404040232064
:1002A0002A20202B23404040404040202040404016
:1002B00040402020202B404040402A202020404029
:1002C0004040402525404040404040202B20202AEF
:1002D0002023404040402A20202A40404023202024
:1002E00020202023232020202340404023202020A2
:1002F000000000000000000000005F00000000009F
:100300000007000700000000147F147F14000000A5
:10031000242A7F2A120000002313086462000000D0
:100320003649562050000000000807030000000076
:10033000001C2241000000000041221C00000000BF
:1003400014083E081400000008083E0808000000D9
:1003500000503000000000000808080808000000F5
:10036000006060000000000020100804020000008F
:100370003E5149453E00000000427F400000000021
:1003800042615149460000002141454B31000000C7
:100390001814127F10000000274545453900000061
:1003A0003C4A494930000000017109050300000082
:1003B0003649494936000000064949291E00000017
:1003C0000036360000000000005636000000000035
:1003D0000814224100000000141414141414000026
:1003E000412214080000000002015109060000002B
:1003F0003E415D5D1E0000007E1111117E00000077
:100400007F494949360000003E4141412200000039
:100410007F4141221C0000007F4949494100000002
:100420007F090909010000003E4149497A000000A6
:100430007F0808087F00000000417F4100000000A5
:100440002040413F010000007F08142241000000CD
:100450007F404040400000007F0204027F00000017
:100460007F0204087F0000003E4141413E00000041
:100470007F090909060000003E4151215E0000008D
:100480007F0919294600000046494949310000000A
:1004900001017F01010000003F4040403F0000009B
:1004A0001F2040201F0000007F2018207F00000038
:1004B00063140814630000000304780403000000C0
:1004C0006151494543000000003E414100000000E9
:1004D00002040810200000000041413E000000001E
:1004E000040201020400000040404040404000007F
:1004F000000003070000000020545454780000005E
:100500007F48444438000000384444442000000040
:10051000384444487F000000385454541800000008
:10052000087E090102000000081454543C00000039
:100530007F0804047800000000447D4000000000B3
:100540002040443D00000000007F102844000000CF
:1005500000417F40000000007C0418047800000087
:100560007C0804047800000038444444380000004B
:100570007C14141408000000081414187C000000F7
:100580007C08040408000000485454542000000073
:10059000043F4440200000003C4040207C0000001C
:1005A0001C2040201C0000003C4030403C0000006B
:1005B00044281028440000000C5050503C0000001B
:1005C0004464544C44000000000836410000000020
:1005D00000007F000000000000413608000000001D
:1005E000080408100800000011241FBECFEFD4E05B
:1005F000DEBFCDBF12E0A0E0B1E0E0EEF1E202C06C
:1006000005900D92AC34B107D9F722E0ACE4B2E02A
:1006100001C01D92AD36B207E1F70E94CC040C94E4
:10062000EE100C940000CF93C82F0E9425048C2F4D
:100630000E944E0460E680E60E94C30360E680E705
:100640000E94C3034FEF63E08BE20E94FB038A9892
:10065000F8948BB780648BBF85B7826085BF85B700
:100660008E7F85BFCF9108950F931F93CF93DF9314
:100670008C010E94ED0382FDFCCFF801C081D18185
:10068000D770BE0183E0769567958A95E1F781E39F
:100690000E94C3036C2F6295660F607E82E30E9406
:1006A000C303F801628185E30E94C303C0E0F8013F
:1006B0008281C81750F4F801EC0FF11D638186E3C5
:1006C0008C0F0E94C303CF5FF2CF81E0DF91CF9107
:1006D0001F910F910C94D6030F931F93CF938C010E
:1006E0008CE20E94B10380FF37C081E60E94B10313
:1006F000C82F82E60E94B10398E0C99F900111249F
:10070000829586958770282BF8013183208385E6B2
:100710000E94B103F8018283C0E0F8018281C8170A
:1007200050F486E68C0F0E94B103F801EC0FF11D26
:100730008383CF5FF2CF40E061E08CE20E94FB0355
:1007400040E061E08CE20E94FB0340E062E08CE26A
:100750000E94FB0380E001C081E0CF911F910F91C7
:100760000895CF93C82F0E94660483E00E945A0424
:100770008C2F0E945A040E945E04C82F0E946404B9
:100780008C2FCF910895CF93DF93D82FC62F0E943F
:10079000660482E00E945A048D2F0E945A048C2F16
:1007A0000E945A04DF91CF910C946404CF93C82F18
:1007B000833050F08FE191E09F938F930E94100E51
:1007C0000F900F90CF9108950E9466048C2F81683E
:1007D0000E945A04CF910C946404CF930E94660443
:1007E00080EA0E945A040E945E04C82F0E9464049A
:1007F0008C2FCF9108951F93CF93DF93182FD62F6F
:10080000C42F0E94660485E00E945A04812F0E9432
:100810005A048D2F0E945A048C2F0E945A04DF9193
:10082000CF911F910C946404CF93C82F0E9466044B
:100830008C2F0E945A04CF910C9464040E94660489
:1008400080EC0E9414040C9464040E9453040E94DF
:100850001E0487EE93E00197F1F700C000008EE0E0
:100860000E94B103982F907E903861F01F928F9371
:100870008CE391E09F938F930E94100E0F900F9046
:100880000F900F9063E08AE20E94C30361EB89E25C
:100890000E94C30365E088E20C94C303482F60EE16
:1008A0008FE00C94FB03BC9ABD9ABF9ABE9881E579
:1008B0008DB908958FB9779BFECF08958FEF8FB9CB
:1008C000779BFECF8FB10895C49A0895C498089578
:1008D00090BD89B9549A539A8EE880BD08955D9B66
:1008E000FECF8CB908950E946F0480E090E00895D7
:1008F0005F9BFECF8CB10895CF930E947804C82FE0
:100900000E946F048C2F90E0CF910895E7E6F2E00B
:100910008EE091E09383828380E091E091838083F5
:100920000895579A08951F920F920FB60F921124AF
:100930008F938CB18F910F900FBE0F901F901895D1
:10094000FC0185E08083818381E082830895FC013E
:100950009081993019F481E0808308959F5F90839E
:100960000895FC019181993019F481E08183089503
:100970009F5F91830895FC019281933019F481E087
:10098000828308959F5F92830895FC0185E08083B0
:10099000818381E082830895CF93DF93CDB7DEB763
:1009A0006D970FB6F894DEBF0FBECDBF8FE190E01C
:1009B0000E9468040E9486040E9491040E941E0DF9
:1009C00080E00E9413038FE791E09F938F930E9432
:1009D000100E0E945D0D0E946E08CE0101960E94CD
:1009E00090080E947A0A0E94F40B22E344E66AE02F
:1009F0008AE00E94040C44E150E060E270E080E490
:100A000090E00E94650C2EE148E264E184E10E94DE
:100A1000D50C0E94BC0A2FE986E891E02150804065
:100A20009040E1F700C000008FE00E94B103182F52
:100A3000107E1F921F9383E891E09F938F930E94F3
:100A4000100E0F900F900F900F900F900F901111AC
:100A500003C082E991E002C08FEA91E09F938F93F7
:100A60000E94100E0F900F9078948BE592E0909377
:100A70004F0280934E028CE191E00E94A00480918D
:100A80004E0290914F020E9448060BE512E06091E1
:100A90004E0270914F02CE0101960E94460880914D
:100AA0004D028823A1F380E792E00E940D0B89B7E5
:100AB0008F7789BFCE0101960E942609CE0101964B
:100AC0000E9463098D81813051F71092500210937A
:100AD0004F0200934E0210924D02E1CF1F920F92EF
:100AE0000FB60F9211242F933F934F935F936F9301
:100AF0007F938F939F93AF93BF93EF93FF93CF9386
:100B0000DF93CDB7DEB72B97DEBFCDBFCE01019609
:100B10000E946C038A818F9389818F9387ED91E086
:100B20009F938F930E94100E89B7806889BF0F90A2
:100B30000F900F900F902B960FB6F894DEBF0FBE5C
:100B4000CDBFDF91CF91FF91EF91BF91AF919F9179
:100B50008F917F916F915F914F913F912F910F9066
:100B60000FBE0F901F9018951F920F920FB60F9205
:100B700011242F933F934F935F936F937F938F93A2
:100B80009F93AF93BF93EF93FF93F89480914C02A0
:100B90008F5F80934C02823020F00E94BC0A10923A
:100BA0004C027894FF91EF91BF91AF919F918F91FB
:100BB0007F916F915F914F913F912F910F900FBE59
:100BC0000F901F9018958F929F92AF92BF92EF92C5
:100BD000FF920F931F93CF93DF938C01EB01FC01E6
:100BE000E384F4840E944C0DF801278530894B0181
:100BF0005C01821A930AA108B108B7FE03C00E94E3
:100C00004C0D9B01F801308B2787F5E68F16910478
:100C1000A104B10494F183E3E816F10464F08A813D
:100C2000882359F18B8381508A839C81891700F531
:100C300091509C831DC0FEECEF16FFEFFF06ECF415
:100C40008A81482F50E02D8130E021503109421730
:100C500053079CF48B838F5F8A832C81422F50E053
:100C6000495F5F4F90E04817590714F42F5F2C83BA
:100C70000E944C0DF801708B6787DF91CF911F9117
:100C80000F91FF90EF90BF90AF909F908F9008953D
:100C90002F923F924F925F926F927F928F929F928C
:100CA000AF92BF92CF92DF92EF92FF920F931F937A
:100CB000CF93DF93CDB7DEB728970FB6F894DEBF9A
:100CC0000FBECDBF7C01DC0115968C91893008F0F8
:100CD000E3C0C82ED12C360174E0660C771C7A95DF
:100CE000E1F7A12CB12C18861F828F81988586157B
:100CF000970509F4A5C0D701ED91FC912F813885A6
:100D0000E20FF31FE49144E0369527954A95E1F709
:100D10003A832983F0E0B097AF0163E0440F551F99
:100D20006A95E1F75C834B8300E010E08F80988444
:100D30005FE0852299246F817885605171097E83F7
:100D40006D832F80388470E2271A31084F805884D1
:100D500080E3481A5108D70112968C9190E09501D2
:100D6000200F311FE981FA818E179F0739F4811412
:100D7000910421F4F801E052FC4F4EC091E0FFE0F5
:100D80008F16910409F090E081E0409150024230CA
:100D900009F080E041E06D817E816031710508F0ED
:100DA00040E0492359F0882349F080911C01F80163
:100DB00078E0879FE00DF11D112425C041E0A0E1FE
:100DC0002A16310408F040E0492359F0882349F0FD
:100DD00080911D01F801B8E08B9FE00DF11D1124F9
:100DE00012C041E0E0E14E16510408F040E09423C7
:100DF00069F0882359F080911E01F80148E0849F32
:100E0000E00DF11D1124E059FC4F06C0EB81FC817F
:100E1000E00FF11FE051FD4F6491C9010E946C0D7C
:100E20000F5F1F4F0830110509F095CF6F8178854E
:100E30006F5F7F4F78876F8378E0A70EB11C55CF27
:100E400008E010E00C191D0934E0000F111F3A955D
:100E5000E1F7D12C8D2D90E0801791070CF076C032
:100E6000860D971DFC0123E0EE0FFF1F2A95E1F789
:100E7000FA83E983E12CF12C60E089819A818E0D5F
:100E80009F1D0E946C0D9FEFE91AF90AA8E0EA166F
:100E9000F10491F7D394DECFA12CB12C00E010E047
:100EA000D70114968C911497F80120E1829FE00DF0
:100EB000F11D1124CF01ED91FC91E80FF91F349140
:100EC000380184E0769467948A95E1F7432F50E0E7
:100ED0004052510993E0440F551F9A95E1F75A8308
:100EE0004983C12CD12C48016FE086229924D70177
:100EF00012962C91129730E014968C91281B310990
:100F0000C6018A0D9B1D2615370539F481149104FD
:100F100021F4F601E052FC4F06C0E981FA81EC0DA4
:100F2000FD1DE051FD4F64910E946C0DBFEFCB1A87
:100F3000DB0AE8E0CE16D104D1F60F5F1F4FF8E0D0
:100F4000AF0EB11C0038110509F0AACF28960FB6D4
:100F5000F894DEBF0FBECDBFDF91CF911F910F91EF
:100F6000FF90EF90DF90CF90BF90AF909F908F90C9
:100F70007F906F905F904F903F902F900895CF9308
:100F8000DF93EB010E94F40B80915002813009F451
:100F90005DC018F08230A9F176C08A81823001F1FB
:100FA00058F4882389F0813009F066C082E080938C
:100FB000500285E592E05BC08330C1F0843009F0D7
:100FC0005BC067E172E05AC062EF71E080E00E94AE
:100FD0005E0B81E080934D02DF91CF910C94BC0AAF
:100FE00081E08093500281E692E041C064E072E0CB
:100FF00080E00E945E0B80E792E0DF91CF910C943D
:101000000D0B8A818230B1F050F4882369F0813071
:1010100099F58CE191E0DF91CF910C94A704833096
:1010200079F0843001F128C08CE191E0DF91CF911B
:101030000C94C5048CE191E0DF91CF910C94B10444
:101040008CE191E0DF91CF910C94BB048A818823DD
:1010500029F0813089F46EE372E010C061E372E040
:1010600080E00E945E0B109250028BE592E090931C
:101070004F0280934E0207C064E272E080E0DF918D
:10108000CF910C945E0BDF91CF9108950F931F9336
:10109000CF93DF93EC018B010E942609B801CE01AA
:1010A0000E94E30521E030E08D89882311F020E0E3
:1010B00030E09E81892F90E082239323892B21F0B9
:1010C000B801CE010E94BF07C8010E9448068E8168
:1010D0008D8BDF91CF911F910F910895EBE5F2E099
:1010E00080EF91E09183808385E085831282138273
:1010F0001482E1E6F2E080EB90E09183808384E16A
:101100008583128213821482E5E5F2E080E790E0A5
:101110009183808384E085831282138214820895F0
:10112000CF93DF93EC018C98BB98BA98B998C29A88
:1011300060E880E094E10E948C0DB199FECF80E0E0
:1011400094E10E949C0D888780E094E10E949C0DB0
:101150008F831A821B821C821D82198218821A8632
:1011600019861C861B861E861D861E82188A1F866F
:10117000198A1A8A1B8A1C8A1D8A1E8A188E1F8A3F
:101180001A8E198E1C8E1B8EDF91CF910895FC0153
:101190006185728523853485CB0105960B9738F4DC
:1011A000C90105960B9718F4168615860895872FA2
:1011B0008095881F8827881F90E0880F991F432FEC
:1011C0004095441F4427441F842B8230910579F1B8
:1011D0008330910589F00197D1F446EA4603C001B6
:1011E000479F900D1124A901461B570BBA010E947D
:1011F000AC0D665A7F4F27C04AE5429FC001439F0E
:10120000900D1124620F731F0E94AC0D1CC046EAA2
:101210004203C001439F900D11247195619571099E
:10122000621B730B0E94AC0D6C547F4F0CC04AE5DF
:10123000469FC001479F900D1124621B730B0E94B3
:10124000AC0D625F7E4F768765870895CF93DF93FD
:10125000EC0160E080E094E10E948C0DB199FECF3A
:1012600080E094E10E949C0D888380E094E10E94DC
:101270009C0D898380E094E10E949C0D8B8380E02B
:1012800094E10E949C0D8A8381E0849B80E08C83A2
:1012900081E0B39B80E08D8381E0B29980E08E8312
:1012A000888190E02885821B91099C878B878981A2
:1012B00090E02F81821B91099A878987CE01DF9167
:1012C000CF910C94C7080F931F93CF93DF93CDB7A3
:1012D000DEB72B970FB6F894DEBF0FBECDBF8C01E3
:1012E000FC0123853485818D928DA901481B590B02
:1012F000CA0157FF03C091958195910908978CF019
:1013000081E090E09A83898382E08B832C833D8304
:10131000CE0101960E943403F80183859485928F53
:10132000818FF801218532858789908DA901481B1D
:10133000590BCA0157FF03C09195819591090897F0
:1013400084F082E090E09A8389838B832C833D83B1
:10135000CE0101960E943403F80181859285908F19
:10136000878BF80184819389891771F026E030E03A
:101370003A83298391E09B838C83CE0101960E945E
:101380003403F8018481838BF8018581948989175E
:1013900071F027E030E03A83298391E09B838C83CE
:1013A000CE0101960E943403F8018581848BF801F7
:1013B00086819689891771F023E030E03A8329838A
:1013C00091E09B838C83CE0101960E943403F80147
:1013D0008681868BF8012381822F90E03289831BDE
:1013E000910997FF03C0919581959109039774F036
:1013F00085E090E09A83898381E08B832C83CE0102
:1014000001960E943403F8018381828BF8012281C6
:10141000822F90E03189831B910997FF03C091953A
:1014200081959109039774F084E090E09A83898311
:1014300081E08B832C83CE0101960E943403F80156
:101440008281818BF80185859685238D348D821765
:10145000930789F028E030E03A83298322E02B8348
:101460008C839D83CE0101960E943403F80185850B
:101470009685948F838F2B960FB6F894DEBF0FBEA0
:10148000CDBFDF91CF911F910F910895682F80E01C
:1014900090E00C948C0DEF92FF920F931F93CF93DB
:1014A000DF93EC018C01060F171FE12C82E0F82E70
:1014B000C017D10741F06991C7010E948C0D8FEFD1
:1014C000E81AF80AF5CFDF91CF911F910F91FF90A5
:1014D000EF9008958770806B0C94460ACF93C82FC5
:1014E00082958F7080610E94460A8C2F8F70CF91F9
:1014F0000C94460A8EEA0E94460A81EA0E94460A35
:101500008AED0E94460A82E10E94460A88EC0E9407
:10151000460A88EA0E94460A8FE30E94460A85ED41
:101520000E94460A80E80E94460A81E80E94460A14
:1015300080E50E94460A89ED0E94460A81E20E94E7
:10154000460A80E20E94460A82E00E94460A8BED2B
:101550000E94460A80E30E94460A8DEA0E94460ADB
:1015600080E00E94460A84EA0E94460A86EA0E94B7
:10157000460A8FEA0C94460A8F929F92AF92BF92CE
:10158000CF92DF92EF92FF921F93CF93DF93CDB76D
:10159000DEB7C058D1090FB6F894DEBF0FBECDBF7D
:1015A000CE0101965C01CC24DD24C81AD90A10E0D2
:1015B0004E0191E8890E911C812F0E946A0A80E0F9
:1015C0000E946E0A7501E814F90449F0C6018E0DF7
:1015D0009F1D0E947C0DF70181937F01F4CF60E88D
:1015E00070E0C5010E944B0A1F5FF0E8CF0ED11CCE
:1015F000183011F7C058DF4F0FB6F894DEBF0FBE9A
:10160000CDBFDF91CF911F91FF90EF90DF90CF90F2
:10161000BF90AF909F908F900895CF92DF92EF92FE
:10162000FF920F931F93CF93DF937C0100E010E0B4
:10163000F701C49180EE8C0F803668F5D0E0A0975A
:1016400083E0CC0FDD1F8A95E1F7C12CD12CFE0180
:10165000EC0DFD1DE051FD4F6491C601800F911FFF
:101660000E946C0DFFEFCF1ADF0A88E0C816D10484
:1016700071F79FEFE91AF90A085F1F4F0115E4E0BF
:101680001E07B1F6DF91CF911F910F91FF90EF9060
:10169000DF90CF900895C0EFD2E0C801805F924004
:1016A0006C01FE016491C6018C0F9D1F0E946C0DA0
:1016B0002196F2E0C83FDF07A1F7DBCFAF92BF92E0
:1016C000CF92DF92EF92FF921F93CF93DF938830F8
:1016D00008F050C020E8829FE00111247B015E01E8
:1016E00010E0F7018081882319F1C12CD12CF7017A
:1016F0008081F60128E0829FE00DF11D1124E05168
:10170000FE4F6491C5018C0D9D1D0E946C0D3FEF35
:10171000C31AD30A88E0C816D10449F71F5F9FEFA8
:10172000E91AF90AE8E0AE0EB11C1031D1F622C078
:1017300098EFA92E92E0B92E80EFC82E82E0D82E25
:10174000CE0128E0129F800D911D1124FC01E05F65
:10175000F2407F01F6016491C7018C0D9D1D0E942E
:101760006C0DFFEFCF1ADF0AAC14BD0499F71F5FB1
:10177000103111F7DF91CF911F91FF90EF90DF9023
:10178000CF90BF90AF9008950F931F93CF93DF93A7
:10179000803428F567FD23C0042F182F8695869581
:1017A0008695C62FD0E090E8899FC00DD11D1124E9
:1017B000CE010E947C0D177061E070E001C0660FE1
:1017C0001A95EAF7002311F0682B02C06095682390
:1017D000CE01DF91CF911F910F910C946C0DDF9191
:1017E000CF911F910F910895CF93DF93C0E0D0E088
:1017F00060E0CE010E946C0D2196C11584E0D807EF
:10180000B9F7DF91CF9108956F927F928F929F9257
:10181000AF92BF92CF92DF92EF92FF920F931F93FE
:10182000CF93DF93E82EF62E942E822EC42FD0E095
:10183000C81BD109D7FF03C0D195C195D109082D87
:1018400010E00F19110917FF03C011950195110937
:10185000E91418F066246A9402C066246394F814AC
:1018600018F077247A9402C0772473946E01C01A1A
:10187000D10AAA24BB24A01AB10A41E06E2D8F2DF3
:101880000E94C40BE91002C0F81481F0C601880F51
:10189000991FA816B9061CF4C01AD10AE60C8C17B9
:1018A0009D075CF7CC0EDD1EF70CE7CFDF91CF91E3
:1018B0001F910F91FF90EF90DF90CF90BF90AF906E
:1018C0009F908F907F906F9008959F92AF92BF925C
:1018D000CF92DF92EF92FF920F931F93CF93DF93FC
:1018E000D82EC62EC42FD0E0E12CF12C00E010E061
:1018F00041E0BC2EBD0C6B2D9C2C900E892D0E94BE
:10190000C40B41E0AD2CAC1A6A2D892D0E94C40B8A
:1019100041E06B2DBC2CB01A8B2D0E94C40B41E012
:101920006A2D8B2D0E94C40B41E0BD2CB00E6B2D97
:101930009C2E9C0C892D0E94C40B41E0AD2CA01A5A
:101940006A2D892D0E94C40B41E06B2DBC2CBC1A62
:101950008B2D0E94C40B41E06A2D8B2D0E94C40B7D
:101960001E141F045CF00F5F1F4FC801880F991FE2
:101970000196E80EF91E1E141F043CF42197CE01B7
:10198000880F991F0196E81AF90AC017D1070CF0C1
:10199000AFCFDF91CF911F910F91FF90EF90DF902C
:1019A000CF90BF90AF909F9008950F931F93CF93C8
:1019B000DF93082F162FD22FC82FC40F262F4C2F9E
:1019C0000E94040CD10F2D2F4C2F6D2F802F0E94C1
:1019D000040C2D2F402F612F802F0E94040C2D2FDF
:1019E0004C2F612F8C2FDF91CF911F910F910C9471
:1019F000040C1F920F920FB60F9211248F939F9396
:101A0000AF93BF938091510290915202A0915302E3
:101A1000B09154020196A11DB11D80935102909383
:101A20005202A0935302B0935402BF91AF919F9181
:101A30008F910F900FBE0F901F9018951FBC8EB501
:101A400081608EBD89B7806889BF1DBC1CBC1092A7
:101A50008B0085E080938A00EDE7F0E08081846070
:101A6000808310928900109288000895809151021D
:101A700090915202A0915302B0915402209188009B
:101A800030918900DC0199278827BC01CD01620FC4
:101A9000731F811D911D08950E94360D9B01AC019D
:101AA000A8EEB3E00E94E20D20EC32E140E050E00D
:101AB0000E94C00DCA01B90108958FEF8ABB8FE063
:101AC00084BB8E9A8F9A319A85B7806885BF10BE85
:101AD00080B7806280BF0895CF93DF9300D0CDB7E9
:101AE000DEB79A838983E981FA81F85E60830F907B
:101AF0000F90DF91CF910895CF93DF9300D0CDB7B2
:101B0000DEB79A838983E981FA81F85E80810F903C
:101B10000F90DF91CF910895CF93DF9300D0CDB791
:101B2000DEB79A838983E981FA81F05F60830F9041
:101B30000F90DF91CF910895CF93DF9300D0CDB771
:101B4000DEB79A838983E981FA81F05F80810F9003
:101B50000F90DF91CF91089597FB072E16F4009414
:101B600007D077FD09D00E94ED0D07FC05D03EF4AB
:101B7000909581959F4F0895709561957F4F089539
:101B8000A1E21A2EAA1BBB1BFD010DC0AA1FBB1F81
:101B9000EE1FFF1FA217B307E407F50720F0A21BF3
:101BA000B30BE40BF50B661F771F881F991F1A9460
:101BB00069F760957095809590959B01AC01BD018A
:101BC000CF0108950E94010EA59F900DB49F900D26
:101BD000A49F800D911D11240895AA1BBB1B51E1E8
:101BE00007C0AA1FBB1FA617B70710F0A61BB70B8D
:101BF000881F991F5A95A9F780959095BC01CD0132
:101C00000895A29FB001B39FC001A39F700D811DD5
:101C10001124911DB29F700D811D1124911D0895F5
:101C2000A0E0B0E0E6E1FEE00C94C710AE014B5F2F
:101C30005F4FFA0161917191AF01809169029091BA
:101C40006A020E94260EE2E00C94E310ABE0B0E0E2
:101C5000ECE2FEE00C94B7106C017B018A01FC0100
:101C600017821682838181FFCCC1CE0101963C018F
:101C7000F6019381F70193FD859193FF81917F0197
:101C8000882309F4BAC1853239F493FD859193FF15
:101C900081917F01853229F4B60190E00E941D10E8
:101CA000E7CF912C212C312CFFE1F315D8F08B32AA
:101CB00079F038F4803279F08332A1F4232D206159
:101CC0001DC08D3261F0803369F4232D216016C070
:101CD000832D8260382EE32DE4603E2E2AC0F32D42
:101CE000F8601DC037FC2DC020ED280F2A3040F0D1
:101CF0008E32B9F436FC81C1232D2064322E19C0F6
:101D000036FE06C08AE0989E200D1124922E11C046
:101D1000EAE02E9E200D1124222EF32DF0623F2E9C
:101D200008C08C3621F4832D8068382E02C0883696
:101D300041F4F70193FD859193FF81917F0181111A
:101D4000B3CF982F9F7D9554933028F40C5F1F4F8D
:101D50009FE399830DC0833631F0833771F083356B
:101D600009F059C021C0F801808189830E5F1F4F9F
:101D700088248394912C530113C02801F2E04F0E64
:101D8000511CF801A080B18036FE03C0692D70E0BF
:101D900002C06FEF7FEFC5010E9412104C0182015B
:101DA000F32DFF773F2E16C0280122E0420E511C72
:101DB000F801A080B18036FE03C0692D70E002C03A
:101DC0006FEF7FEFC5010E9407104C01F32DF06803
:101DD0003F2E820133FC1BC0822D90E088169906AD
:101DE000B0F4B60180E290E00E941D102A94F4CF76
:101DF000F50137FC859137FE81915F01B60190E0D6
:101E00000E941D1021102A9421E0821A9108811449
:101E1000910471F7E8C0843611F0893641F5F80174
:101E200037FE07C060817181828193810C5F1F4FF3
:101E300008C060817181072E000C880B990B0E5F22
:101E40001F4FF32DFF763F2E97FF09C09095809589
:101E5000709561957F4F8F4F9F4FF0683F2E2AE01E
:101E600030E0A3010E945910882E861845C085379E
:101E700031F4232D2F7EB22E2AE030E025C0932DA1
:101E8000997FB92E8F36C1F018F4883579F0B5C036
:101E9000803719F0883721F0B0C0E92FE061BE2EFD
:101EA000B4FE0DC0FB2DF460BF2E09C034FE0AC085
:101EB000292F2660B22E06C028E030E005C020E1C0
:101EC00030E002C020E132E0F801B7FE07C06081D7
:101ED0007181828193810C5F1F4F06C06081718187
:101EE00080E090E00E5F1F4FA3010E945910882EE2
:101EF0008618FB2DFF773F2E36FE0DC0232D2E7F3B
:101F0000A22E891458F434FE0BC032FC09C0832D74
:101F10008E7EA82E05C0B82CA32C03C0B82C01C0FF
:101F2000B92CA4FE0FC0FE01E80DF11D80818033A5
:101F300021F49A2D997EA92E09C0A2FE06C0B39461
:101F4000B39404C08A2D867809F0B394A3FC11C021
:101F5000A0FE06C0B21488F4280C922C9B180EC068
:101F6000B21460F4B60180E290E00E941D10B394B8
:101F7000F7CFB21418F42B1802C0982C212CA4FE11
:101F800010C0B60180E390E00E941D10A2FE17C0B1
:101F9000A1FC03C088E790E002C088E590E0B601AC
:101FA0000CC08A2D867859F0A1FE02C08BE201C0D8
:101FB00080E2A7FC8DE2B60190E00E941D1089141A
:101FC00038F4B60180E390E00E941D109A94F7CF98
:101FD0008A94F301E80DF11D8081B60190E00E9422
:101FE0001D108110F5CF222009F442CEB60180E207
:101FF00090E00E941D102A94F6CFF6018681978109
:1020000002C08FEF9FEF2B96E2E10C94D310FC01FE
:102010000590615070400110D8F7809590958E0F13
:102020009F1F0895FC016150704001900110D8F786
:10203000809590958E0F9F1F08950F931F93CF93B8
:10204000DF93FB01238121FD03C08FEF9FEF2CC0A5
:1020500022FF16C0468157812481358142175307DC
:1020600044F4A081B1819D012F5F3F4F31832083D4
:102070008C93268137812F5F3F4F3783268314C08F
:102080008B01EC01FB010084F185E02D0995892B82
:10209000E1F6D80116968D919C91179701961796A7
:1020A0009C938E931697CE01DF91CF911F910F9144
:1020B0000895FA01AA27283051F1203181F1E894DE
:1020C0006F936E7F6E5F7F4F8F4F9F4FAF4FB1E02B
:1020D0003ED0B4E03CD0670F781F891F9A1FA11D26
:1020E000680F791F8A1F911DA11D6A0F711D811D27
:1020F000911DA11D20D009F468943F912AE0269FEC
:1021000011243019305D3193DEF6CF010895462F4A
:102110004770405D4193B3E00FD0C9F7F6CF462F2B
:102120004F70405D4A3318F0495D31FD4052419394
:1021300002D0A9F7EACFB4E0A69597958795779551
:102140006795BA95C9F700976105710508959B01D8
:10215000AC010A2E06945795479537952795BA9561
:10216000C9F7620F731F841F951FA01D08952F923A
:102170003F924F925F926F927F928F929F92AF9217
:10218000BF92CF92DF92EF92FF920F931F93CF9364
:10219000DF93CDB7DEB7CA1BDB0B0FB6F894DEBFFB
:1021A0000FBECDBF09942A88398848885F846E8421
:1021B0007D848C849B84AA84B984C884DF80EE806B
:1021C000FD800C811B81AA81B981CE0FD11D0FB674
:1021D000F894DEBF0FBECDBFED010895F894FFCF98
:1021E000000000010000000000007C04000000006E
:1021F00000020000000073040000000005050066F6
:1022000065696C2069204D4350323531355F526528
:102210007175657374546F53656E64004D4350322D
:1022200035313520657220696B6B6A652069206BDA
:102230006F6E666967757261736A6F6E736D6F64D6
:1022400075732065747465722072657365742E20D1
:1022500043414E535441543A202578200D0A0047FB
:102260004F210043414E535441543A203078255871
:102270000A004D4350323531352065722069206E99
:102280006F726D616C2D6D6F6475732E0A0D004653
:1022900065696C3A204D43503235313520657220E6
:1022A000696B6B652069206E6F726D616C2D6D6F4F
:1022B0006475732E0A0D006D656C64696E67207419
:1022C00061747420696D6F742049443A2025640A52
:1022D0000D0053746172746172207370656C657463
:1022E0002E2E2E005669736572206B7265646974B8
:1022F0007461722E2E2E004176736C757474617247
:102300002E2E2E005567796C6469672076616C67A4
:10231000004974656D20312076616C6774004974E2
:0C232000656D20322076616C677400004F
:00000001FF
